{
  "contractName": "Voting",
  "abi": [
    {
      "inputs": [],
      "stateMutability": "nonpayable",
      "type": "constructor"
    },
    {
      "inputs": [
        {
          "internalType": "uint256",
          "name": "",
          "type": "uint256"
        }
      ],
      "name": "candidateList",
      "outputs": [
        {
          "internalType": "string",
          "name": "partySymbol",
          "type": "string"
        },
        {
          "internalType": "uint256",
          "name": "voteCount",
          "type": "uint256"
        },
        {
          "internalType": "uint256",
          "name": "constituency",
          "type": "uint256"
        }
      ],
      "stateMutability": "view",
      "type": "function",
      "constant": true
    },
    {
      "inputs": [],
      "name": "chairperson",
      "outputs": [
        {
          "internalType": "address",
          "name": "",
          "type": "address"
        }
      ],
      "stateMutability": "view",
      "type": "function",
      "constant": true
    },
    {
      "inputs": [
        {
          "internalType": "address",
          "name": "",
          "type": "address"
        }
      ],
      "name": "depositStatus",
      "outputs": [
        {
          "internalType": "bool",
          "name": "",
          "type": "bool"
        }
      ],
      "stateMutability": "view",
      "type": "function",
      "constant": true
    },
    {
      "inputs": [
        {
          "internalType": "address",
          "name": "",
          "type": "address"
        }
      ],
      "name": "voterList",
      "outputs": [
        {
          "internalType": "bool",
          "name": "voted",
          "type": "bool"
        },
        {
          "internalType": "uint256",
          "name": "constituency",
          "type": "uint256"
        }
      ],
      "stateMutability": "view",
      "type": "function",
      "constant": true
    },
    {
      "inputs": [
        {
          "internalType": "address",
          "name": "_candidate",
          "type": "address"
        }
      ],
      "name": "depositFees",
      "outputs": [],
      "stateMutability": "payable",
      "type": "function",
      "payable": true
    },
    {
      "inputs": [
        {
          "internalType": "string",
          "name": "_partySymbol",
          "type": "string"
        },
        {
          "internalType": "address",
          "name": "_candidate",
          "type": "address"
        },
        {
          "internalType": "uint256",
          "name": "_constituency",
          "type": "uint256"
        }
      ],
      "name": "registerCandidates",
      "outputs": [],
      "stateMutability": "nonpayable",
      "type": "function"
    },
    {
      "inputs": [
        {
          "internalType": "uint256",
          "name": "_candidateIndex",
          "type": "uint256"
        },
        {
          "internalType": "uint256",
          "name": "voterConstituency",
          "type": "uint256"
        }
      ],
      "name": "vote",
      "outputs": [],
      "stateMutability": "nonpayable",
      "type": "function"
    },
    {
      "inputs": [],
      "name": "winner",
      "outputs": [
        {
          "internalType": "string",
          "name": "",
          "type": "string"
        }
      ],
      "stateMutability": "view",
      "type": "function",
      "constant": true
    }
  ],
  "bytecode": "0x608060405234801561001057600080fd5b50336000806101000a81548173ffffffffffffffffffffffffffffffffffffffff021916908373ffffffffffffffffffffffffffffffffffffffff160217905550611212806100606000396000f3fe60806040526004361061007b5760003560e01c8063b13c744b1161004e578063b13c744b1461012e578063b384abef1461016d578063dfbf53ae14610196578063f3205dfa146101c15761007b565b806303b4caed146100805780632e4176cf146100be5780635513a653146100e95780637f067a2514610112575b600080fd5b34801561008c57600080fd5b506100a760048036038101906100a29190610860565b6101fe565b6040516100b59291906108c1565b60405180910390f35b3480156100ca57600080fd5b506100d361022f565b6040516100e091906108f9565b60405180910390f35b3480156100f557600080fd5b50610110600480360381019061010b9190610a86565b610253565b005b61012c60048036038101906101279190610860565b6103ec565b005b34801561013a57600080fd5b5061015560048036038101906101509190610af5565b610450565b60405161016493929190610ba1565b60405180910390f35b34801561017957600080fd5b50610194600480360381019061018f9190610bdf565b610512565b005b3480156101a257600080fd5b506101ab610696565b6040516101b89190610c1f565b60405180910390f35b3480156101cd57600080fd5b506101e860048036038101906101e39190610860565b6107ce565b6040516101f59190610c41565b60405180910390f35b60016020528060005260406000206000915090508060000160009054906101000a900460ff16908060010154905082565b60008054906101000a900473ffffffffffffffffffffffffffffffffffffffff1681565b60008054906101000a900473ffffffffffffffffffffffffffffffffffffffff1673ffffffffffffffffffffffffffffffffffffffff163373ffffffffffffffffffffffffffffffffffffffff16146102e1576040517f08c379a00000000000000000000000000000000000000000000000000000000081526004016102d890610cce565b60405180910390fd5b60011515600360008473ffffffffffffffffffffffffffffffffffffffff1673ffffffffffffffffffffffffffffffffffffffff16815260200190815260200160002060009054906101000a900460ff16151514610374576040517f08c379a000000000000000000000000000000000000000000000000000000000815260040161036b90610d60565b60405180910390fd5b600260405180606001604052808581526020016000815260200183815250908060018154018082558091505060019003906000526020600020906003020160009091909190915060008201518160000190816103d09190610f8c565b5060208201518160010155604082015181600201555050505050565b6064341061044d576001600360008373ffffffffffffffffffffffffffffffffffffffff1673ffffffffffffffffffffffffffffffffffffffff16815260200190815260200160002060006101000a81548160ff0219169083151502179055505b50565b6002818154811061046057600080fd5b906000526020600020906003020160009150905080600001805461048390610daf565b80601f01602080910402602001604051908101604052809291908181526020018280546104af90610daf565b80156104fc5780601f106104d1576101008083540402835291602001916104fc565b820191906000526020600020905b8154815290600101906020018083116104df57829003601f168201915b5050505050908060010154908060020154905083565b6000600160003373ffffffffffffffffffffffffffffffffffffffff1673ffffffffffffffffffffffffffffffffffffffff1681526020019081526020016000206040518060400160405290816000820160009054906101000a900460ff161515151581526020016001820154815250509050818160200181815250506001151581600001511515036105da576040517f08c379a00000000000000000000000000000000000000000000000000000000081526004016105d1906110aa565b60405180910390fd5b600283815481106105ee576105ed6110ca565b5b906000526020600020906003020160020154816020015114610645576040517f08c379a000000000000000000000000000000000000000000000000000000000815260040161063c90611145565b60405180910390fd5b60018160000190151590811515815250506002838154811061066a576106696110ca565b5b9060005260206000209060030201600101600081548092919061068c90611194565b9190505550505050565b60606000606060005b6002805490508110156107c55782600282815481106106c1576106c06110ca565b5b90600052602060002090600302016001015411156107b257600281815481106106ed576106ec6110ca565b5b906000526020600020906003020160010154925060028181548110610715576107146110ca565b5b9060005260206000209060030201600001805461073190610daf565b80601f016020809104026020016040519081016040528092919081815260200182805461075d90610daf565b80156107aa5780601f1061077f576101008083540402835291602001916107aa565b820191906000526020600020905b81548152906001019060200180831161078d57829003601f168201915b505050505091505b80806107bd90611194565b91505061069f565b50809250505090565b60036020528060005260406000206000915054906101000a900460ff1681565b6000604051905090565b600080fd5b600080fd5b600073ffffffffffffffffffffffffffffffffffffffff82169050919050565b600061082d82610802565b9050919050565b61083d81610822565b811461084857600080fd5b50565b60008135905061085a81610834565b92915050565b600060208284031215610876576108756107f8565b5b60006108848482850161084b565b91505092915050565b60008115159050919050565b6108a28161088d565b82525050565b6000819050919050565b6108bb816108a8565b82525050565b60006040820190506108d66000830185610899565b6108e360208301846108b2565b9392505050565b6108f381610822565b82525050565b600060208201905061090e60008301846108ea565b92915050565b600080fd5b600080fd5b6000601f19601f8301169050919050565b7f4e487b7100000000000000000000000000000000000000000000000000000000600052604160045260246000fd5b6109678261091e565b810181811067ffffffffffffffff821117156109865761098561092f565b5b80604052505050565b60006109996107ee565b90506109a5828261095e565b919050565b600067ffffffffffffffff8211156109c5576109c461092f565b5b6109ce8261091e565b9050602081019050919050565b82818337600083830152505050565b60006109fd6109f8846109aa565b61098f565b905082815260208101848484011115610a1957610a18610919565b5b610a248482856109db565b509392505050565b600082601f830112610a4157610a40610914565b5b8135610a518482602086016109ea565b91505092915050565b610a63816108a8565b8114610a6e57600080fd5b50565b600081359050610a8081610a5a565b92915050565b600080600060608486031215610a9f57610a9e6107f8565b5b600084013567ffffffffffffffff811115610abd57610abc6107fd565b5b610ac986828701610a2c565b9350506020610ada8682870161084b565b9250506040610aeb86828701610a71565b9150509250925092565b600060208284031215610b0b57610b0a6107f8565b5b6000610b1984828501610a71565b91505092915050565b600081519050919050565b600082825260208201905092915050565b60005b83811015610b5c578082015181840152602081019050610b41565b60008484015250505050565b6000610b7382610b22565b610b7d8185610b2d565b9350610b8d818560208601610b3e565b610b968161091e565b840191505092915050565b60006060820190508181036000830152610bbb8186610b68565b9050610bca60208301856108b2565b610bd760408301846108b2565b949350505050565b60008060408385031215610bf657610bf56107f8565b5b6000610c0485828601610a71565b9250506020610c1585828601610a71565b9150509250929050565b60006020820190508181036000830152610c398184610b68565b905092915050565b6000602082019050610c566000830184610899565b92915050565b7f4f6e6c79206368616972706572736f6e2063616e20726567697374657220636160008201527f6e64696461746573000000000000000000000000000000000000000000000000602082015250565b6000610cb8602883610b2d565b9150610cc382610c5c565b604082019050919050565b60006020820190508181036000830152610ce781610cab565b9050919050565b7f43616e64696461746520686173206e6f74206465706f7369746564207468652060008201527f7365637572697479206465706f73697400000000000000000000000000000000602082015250565b6000610d4a603083610b2d565b9150610d5582610cee565b604082019050919050565b60006020820190508181036000830152610d7981610d3d565b9050919050565b7f4e487b7100000000000000000000000000000000000000000000000000000000600052602260045260246000fd5b60006002820490506001821680610dc757607f821691505b602082108103610dda57610dd9610d80565b5b50919050565b60008190508160005260206000209050919050565b60006020601f8301049050919050565b600082821b905092915050565b600060088302610e427fffffffffffffffffffffffffffffffffffffffffffffffffffffffffffffffff82610e05565b610e4c8683610e05565b95508019841693508086168417925050509392505050565b6000819050919050565b6000610e89610e84610e7f846108a8565b610e64565b6108a8565b9050919050565b6000819050919050565b610ea383610e6e565b610eb7610eaf82610e90565b848454610e12565b825550505050565b600090565b610ecc610ebf565b610ed7818484610e9a565b505050565b5b81811015610efb57610ef0600082610ec4565b600181019050610edd565b5050565b601f821115610f4057610f1181610de0565b610f1a84610df5565b81016020851015610f29578190505b610f3d610f3585610df5565b830182610edc565b50505b505050565b600082821c905092915050565b6000610f6360001984600802610f45565b1980831691505092915050565b6000610f7c8383610f52565b9150826002028217905092915050565b610f9582610b22565b67ffffffffffffffff811115610fae57610fad61092f565b5b610fb88254610daf565b610fc3828285610eff565b600060209050601f831160018114610ff65760008415610fe4578287015190505b610fee8582610f70565b865550611056565b601f19841661100486610de0565b60005b8281101561102c57848901518255600182019150602085019450602081019050611007565b868310156110495784890151611045601f891682610f52565b8355505b6001600288020188555050505b505050505050565b7f416c726561647920766f7465642e000000000000000000000000000000000000600082015250565b6000611094600e83610b2d565b915061109f8261105e565b602082019050919050565b600060208201905081810360008301526110c381611087565b9050919050565b7f4e487b7100000000000000000000000000000000000000000000000000000000600052603260045260246000fd5b7f4b696e646c7920766f746520696e20796f757220636f6e7374697475656e6379600082015250565b600061112f602083610b2d565b915061113a826110f9565b602082019050919050565b6000602082019050818103600083015261115e81611122565b9050919050565b7f4e487b7100000000000000000000000000000000000000000000000000000000600052601160045260246000fd5b600061119f826108a8565b91507fffffffffffffffffffffffffffffffffffffffffffffffffffffffffffffffff82036111d1576111d0611165565b5b60018201905091905056fea26469706673582212200600036a5db2da65621a5cacf1b5fa3c1249f48a1b4b2d0961e38cb336ff9f2a64736f6c63430008120033",
  "immutableReferences": {},
  "source": "// SPDX-License-Identifier: GPL-3.0\r\n\r\n/* This contract implements a decentralized voting system, where users can cast votes that are counted in a \r\ntransparent and tamper-proof way. The winner is declared based on the highest number of votes. \r\n\r\nValid voters are of age more than 18 years. \r\n\r\nValid candidates for election have age more than 25 years and have deposited the minimum security fees to contest the \r\nelection.\r\n\r\nOnly the owner of the contract call register the voter and the candidates and also declare the winning candidate.\r\n\r\n*/\r\n\r\npragma solidity ^0.8.18;\r\n\r\ncontract Voting {\r\n    \r\n    struct Voter {\r\n        \r\n        bool voted;  \r\n        uint constituency;  \r\n    }\r\n\r\n    struct candidate {\r\n        string partySymbol;   \r\n        uint voteCount; \r\n        uint constituency;\r\n    }\r\n\r\n    address public chairperson;\r\n\r\n    mapping(address=>Voter) public voterList;\r\n\r\n    candidate[] public candidateList;\r\n\r\n    \r\n    constructor() {\r\n        chairperson = msg.sender;\r\n    }\r\n\r\n    mapping(address=>bool) public depositStatus;\r\n\r\n    function depositFees(address _candidate) public payable {\r\n        if(msg.value>=100) {\r\n            depositStatus[_candidate]=true;\r\n        }\r\n    }\r\n\r\n    function registerCandidates(string memory _partySymbol, address _candidate,uint _constituency) public {\r\n        require(msg.sender==chairperson,\"Only chairperson can register candidates\");\r\n        require(depositStatus[_candidate]==true,\"Candidate has not deposited the security deposit\");\r\n        candidateList.push(candidate({partySymbol:_partySymbol,voteCount:0,constituency:_constituency}));\r\n    }\r\n        \r\n    \r\n    function vote(uint _candidateIndex, uint voterConstituency) public {\r\n        Voter memory sender = voterList[msg.sender];\r\n        sender.constituency=voterConstituency;\r\n        require(sender.voted!=true, \"Already voted.\");\r\n        require(sender.constituency==candidateList[_candidateIndex].constituency,\"Kindly vote in your constituency\");\r\n        sender.voted = true;\r\n        candidateList[_candidateIndex].voteCount++;\r\n    }\r\n\r\n    \r\n    function winner() public view returns (string memory) {\r\n        uint winningVotes=0;\r\n        string memory winningParty;\r\n        for(uint i=0;i<candidateList.length;i++) {\r\n            if(candidateList[i].voteCount>winningVotes) {\r\n                winningVotes=candidateList[i].voteCount;\r\n                winningParty=candidateList[i].partySymbol;\r\n            }\r\n        }\r\n        return winningParty;\r\n    }\r\n}",
  "sourcePath": "D:\\2) Web3\\3) My projects\\1) Ethereum Smart contracts\\2) Voting system in India\\contracts\\Voting.sol",
  "compiler": {
    "name": "solc",
    "version": "0.8.18+commit.87f61d96.Emscripten.clang"
  },
  "schemaVersion": "3.4.11",
  "updatedAt": "2023-03-06T12:30:18.021Z",
  "networkType": "ethereum",
  "devdoc": {
    "kind": "dev",
    "methods": {},
    "version": 1
  },
  "userdoc": {
    "kind": "user",
    "methods": {},
    "version": 1
  }
}