{
  "contractName": "AddressType",
  "abi": [
    {
      "inputs": [
        {
          "internalType": "address",
          "name": "addr",
          "type": "address"
        }
      ],
      "name": "addressType",
      "outputs": [
        {
          "internalType": "string",
          "name": "",
          "type": "string"
        }
      ],
      "stateMutability": "view",
      "type": "function",
      "constant": true
    }
  ],
  "bytecode": "0x608060405234801561001057600080fd5b50610271806100206000396000f3fe608060405234801561001057600080fd5b506004361061002b5760003560e01c806399ddb29b14610030575b600080fd5b61004a60048036038101906100459190610134565b610060565b60405161005791906101f1565b60405180910390f35b60606000823b905060008111156100af576040518060400160405280601881526020017f4974206973206120636f6e7472616374206164647265737300000000000000008152509150506100cc565b604051806060016040528060288152602001610214602891399150505b919050565b600080fd5b600073ffffffffffffffffffffffffffffffffffffffff82169050919050565b6000610101826100d6565b9050919050565b610111816100f6565b811461011c57600080fd5b50565b60008135905061012e81610108565b92915050565b60006020828403121561014a576101496100d1565b5b60006101588482850161011f565b91505092915050565b600081519050919050565b600082825260208201905092915050565b60005b8381101561019b578082015181840152602081019050610180565b60008484015250505050565b6000601f19601f8301169050919050565b60006101c382610161565b6101cd818561016c565b93506101dd81856020860161017d565b6101e6816101a7565b840191505092915050565b6000602082019050818103600083015261020b81846101b8565b90509291505056fe497420697320616e2045787465726e616c6c79206f776e6564206163636f756e7420616472657373a2646970667358221220ef8d3d265c4a8b5074a5fd603a80793da264b53045a424f0fd390b2b8d6f17dc64736f6c63430008120033",
  "immutableReferences": {},
  "source": "//SPDX-License-Identifier:GPL-3.0\r\n\r\npragma solidity ^0.8.18;\r\n\r\ncontract AddressType {\r\n       \r\n    function addressType(address addr) public view returns(string memory) {\r\n        uint size;\r\n        assembly {size:=extcodesize(addr)}\r\n        if(size>0)\r\n        return \"It is a contract address\";\r\n        else\r\n        return \"It is an Externally owned account adress\";\r\n    }\r\n}",
  "sourcePath": "D:\\2) Web3\\3) My projects\\1) Ethereum Smart contracts\\3) Given address is contract or EOA\\contracts\\AddressType.sol",
  "compiler": {
    "name": "solc",
    "version": "0.8.18+commit.87f61d96.Emscripten.clang"
  },
  "schemaVersion": "3.4.11",
  "updatedAt": "2023-03-06T16:58:04.071Z",
  "networkType": "ethereum",
  "devdoc": {
    "kind": "dev",
    "methods": {},
    "version": 1
  },
  "userdoc": {
    "kind": "user",
    "methods": {},
    "version": 1
  }
}