{
  "contractName": "Crowdfunding",
  "abi": [
    {
      "inputs": [
        {
          "internalType": "uint256",
          "name": "_totalFundingGoal",
          "type": "uint256"
        }
      ],
      "stateMutability": "nonpayable",
      "type": "constructor"
    },
    {
      "anonymous": false,
      "inputs": [
        {
          "indexed": false,
          "internalType": "string",
          "name": "_message",
          "type": "string"
        }
      ],
      "name": "FundingGoalReached",
      "type": "event"
    },
    {
      "anonymous": false,
      "inputs": [
        {
          "indexed": false,
          "internalType": "address",
          "name": "contributor",
          "type": "address"
        },
        {
          "indexed": false,
          "internalType": "uint256",
          "name": "amount",
          "type": "uint256"
        }
      ],
      "name": "FundingReceived",
      "type": "event"
    },
    {
      "inputs": [
        {
          "internalType": "address",
          "name": "",
          "type": "address"
        }
      ],
      "name": "contributors",
      "outputs": [
        {
          "internalType": "uint256",
          "name": "",
          "type": "uint256"
        }
      ],
      "stateMutability": "view",
      "type": "function",
      "constant": true
    },
    {
      "inputs": [],
      "name": "currentFunding",
      "outputs": [
        {
          "internalType": "uint256",
          "name": "",
          "type": "uint256"
        }
      ],
      "stateMutability": "view",
      "type": "function",
      "constant": true
    },
    {
      "inputs": [],
      "name": "owner",
      "outputs": [
        {
          "internalType": "address payable",
          "name": "",
          "type": "address"
        }
      ],
      "stateMutability": "view",
      "type": "function",
      "constant": true
    },
    {
      "inputs": [],
      "name": "totalFundingGoal",
      "outputs": [
        {
          "internalType": "uint256",
          "name": "",
          "type": "uint256"
        }
      ],
      "stateMutability": "view",
      "type": "function",
      "constant": true
    },
    {
      "inputs": [],
      "name": "contribute",
      "outputs": [],
      "stateMutability": "payable",
      "type": "function",
      "payable": true
    },
    {
      "inputs": [],
      "name": "transferToOwner",
      "outputs": [],
      "stateMutability": "payable",
      "type": "function",
      "payable": true
    },
    {
      "inputs": [],
      "name": "withdraw",
      "outputs": [],
      "stateMutability": "nonpayable",
      "type": "function"
    }
  ],
  "bytecode": "0x608060405234801561001057600080fd5b50604051610ce1380380610ce1833981810160405281019061003291906100c2565b336000806101000a81548173ffffffffffffffffffffffffffffffffffffffff021916908373ffffffffffffffffffffffffffffffffffffffff160217905550806001819055506000600281905550506100ef565b600080fd5b6000819050919050565b61009f8161008c565b81146100aa57600080fd5b50565b6000815190506100bc81610096565b92915050565b6000602082840312156100d8576100d7610087565b5b60006100e6848285016100ad565b91505092915050565b610be3806100fe6000396000f3fe6080604052600436106100705760003560e01c80633ccfd60b1161004e5780633ccfd60b146100e757806361da77c5146100fe5780638da5cb5b14610129578063d7bb99ba1461015457610070565b80630888b70d146100755780631f6d4942146100a05780632d90ae94146100dd575b600080fd5b34801561008157600080fd5b5061008a61015e565b604051610097919061063a565b60405180910390f35b3480156100ac57600080fd5b506100c760048036038101906100c291906106b8565b610164565b6040516100d4919061063a565b60405180910390f35b6100e561017c565b005b3480156100f357600080fd5b506100fc610313565b005b34801561010a57600080fd5b506101136104c5565b604051610120919061063a565b60405180910390f35b34801561013557600080fd5b5061013e6104cb565b60405161014b9190610706565b60405180910390f35b61015c6104ef565b005b60025481565b60036020528060005260406000206000915090505481565b60008054906101000a900473ffffffffffffffffffffffffffffffffffffffff1673ffffffffffffffffffffffffffffffffffffffff163373ffffffffffffffffffffffffffffffffffffffff161461020a576040517f08c379a0000000000000000000000000000000000000000000000000000000008152600401610201906107a4565b60405180910390fd5b476002541461024e576040517f08c379a000000000000000000000000000000000000000000000000000000000815260040161024590610810565b60405180910390fd5b6001546002541015610295576040517f08c379a000000000000000000000000000000000000000000000000000000000815260040161028c9061087c565b60405180910390fd5b3373ffffffffffffffffffffffffffffffffffffffff166108fc479081150290604051600060405180830381858888f193505050501580156102db573d6000803e3d6000fd5b507f10807512c91339d4ac8329bc189a0a381653b51989fe65a3337fd80c22fbd5ea604051610309906108e8565b60405180910390a1565b6001544710610357576040517f08c379a000000000000000000000000000000000000000000000000000000000815260040161034e9061097a565b60405180910390fd5b6000600360003373ffffffffffffffffffffffffffffffffffffffff1673ffffffffffffffffffffffffffffffffffffffff16815260200190815260200160002054116103d9576040517f08c379a00000000000000000000000000000000000000000000000000000000081526004016103d0906109e6565b60405180910390fd5b6000600360003373ffffffffffffffffffffffffffffffffffffffff1673ffffffffffffffffffffffffffffffffffffffff1681526020019081526020016000205490506000600360003373ffffffffffffffffffffffffffffffffffffffff1673ffffffffffffffffffffffffffffffffffffffff1681526020019081526020016000208190555080600260008282546104749190610a35565b925050819055503373ffffffffffffffffffffffffffffffffffffffff166108fc829081150290604051600060405180830381858888f193505050501580156104c1573d6000803e3d6000fd5b5050565b60015481565b60008054906101000a900473ffffffffffffffffffffffffffffffffffffffff1681565b60003411610532576040517f08c379a000000000000000000000000000000000000000000000000000000000815260040161052990610ab5565b60405180910390fd5b600154471115610577576040517f08c379a000000000000000000000000000000000000000000000000000000000815260040161056e90610b21565b60405180910390fd5b34600360003373ffffffffffffffffffffffffffffffffffffffff1673ffffffffffffffffffffffffffffffffffffffff16815260200190815260200160002060008282546105c69190610b41565b9250508190555034600260008282546105df9190610b41565b925050819055507f23bac35767dec08bf219a302474bbc6687dfaaf3776a62d45bb7811de040e26d3334604051610617929190610b84565b60405180910390a1565b6000819050919050565b61063481610621565b82525050565b600060208201905061064f600083018461062b565b92915050565b600080fd5b600073ffffffffffffffffffffffffffffffffffffffff82169050919050565b60006106858261065a565b9050919050565b6106958161067a565b81146106a057600080fd5b50565b6000813590506106b28161068c565b92915050565b6000602082840312156106ce576106cd610655565b5b60006106dc848285016106a3565b91505092915050565b60006106f08261065a565b9050919050565b610700816106e5565b82525050565b600060208201905061071b60008301846106f7565b92915050565b600082825260208201905092915050565b7f4f6e6c79206f776e65722063616e2063616c6c20746869732066756e6374696f60008201527f6e00000000000000000000000000000000000000000000000000000000000000602082015250565b600061078e602183610721565b915061079982610732565b604082019050919050565b600060208201905081810360008301526107bd81610781565b9050919050565b7f54686572652069732061206d69736d61746368206f662066756e647300000000600082015250565b60006107fa601c83610721565b9150610805826107c4565b602082019050919050565b60006020820190508181036000830152610829816107ed565b9050919050565b7f46756e64696e6720676f616c206e6f7420726561636865640000000000000000600082015250565b6000610866601883610721565b915061087182610830565b602082019050919050565b6000602082019050818103600083015261089581610859565b9050919050565b7f46756e64696e6720676f616c2072656163686564000000000000000000000000600082015250565b60006108d2601483610721565b91506108dd8261089c565b602082019050919050565b60006020820190508181036000830152610901816108c5565b9050919050565b7f46756e64696e6720676f616c20616c726561647920726561636865642e204e6f60008201527f772063616e277420776974686472617700000000000000000000000000000000602082015250565b6000610964603083610721565b915061096f82610908565b604082019050919050565b6000602082019050818103600083015261099381610957565b9050919050565b7f4e6f20636f6e747269627574696f6e20746f2077697468647261770000000000600082015250565b60006109d0601b83610721565b91506109db8261099a565b602082019050919050565b600060208201905081810360008301526109ff816109c3565b9050919050565b7f4e487b7100000000000000000000000000000000000000000000000000000000600052601160045260246000fd5b6000610a4082610621565b9150610a4b83610621565b9250828203905081811115610a6357610a62610a06565b5b92915050565b7f4d75737420636f6e7472696275746520736f6d65206574686572000000000000600082015250565b6000610a9f601a83610721565b9150610aaa82610a69565b602082019050919050565b60006020820190508181036000830152610ace81610a92565b9050919050565b7f416c6c2066756e64696e672072656365697665642e0000000000000000000000600082015250565b6000610b0b601583610721565b9150610b1682610ad5565b602082019050919050565b60006020820190508181036000830152610b3a81610afe565b9050919050565b6000610b4c82610621565b9150610b5783610621565b9250828201905080821115610b6f57610b6e610a06565b5b92915050565b610b7e8161067a565b82525050565b6000604082019050610b996000830185610b75565b610ba6602083018461062b565b939250505056fea264697066735822122094986c0ec6bf6be1709ba578e7cf1b470f5c3f592934e837ccfe0ec1bf775d6464736f6c63430008120033",
  "immutableReferences": {},
  "source": "//SPDX-License-Identifier:GPL-3.0\r\n\r\npragma solidity ^0.8.0;\r\n\r\ncontract Crowdfunding {\r\n       \r\n    address payable public owner;\r\n    uint public totalFundingGoal;\r\n    uint public currentFunding;\r\n    mapping(address => uint) public contributors;\r\n    \r\n    event FundingReceived(address contributor, uint amount);\r\n    event FundingGoalReached(string _message);\r\n    \r\n    constructor(uint _totalFundingGoal) {\r\n        owner=payable(msg.sender);\r\n        totalFundingGoal = _totalFundingGoal;\r\n        currentFunding=0;\r\n    }\r\n    \r\n    function contribute() public payable {\r\n        require(msg.value > 0, \"Must contribute some ether\");\r\n        require(address(this).balance <= totalFundingGoal, \"All funding received.\");\r\n        contributors[msg.sender] += msg.value;\r\n        currentFunding+=msg.value;\r\n        emit FundingReceived(msg.sender, msg.value);\r\n    }\r\n    \r\n        \r\n    function transferToOwner() public payable {\r\n        require(msg.sender==owner,\"Only owner can call this function\");\r\n        require(currentFunding==address(this).balance,\"There is a mismatch of funds\");\r\n        require(currentFunding>=totalFundingGoal,\"Funding goal not reached\");\r\n        payable(msg.sender).transfer(address(this).balance);\r\n        emit FundingGoalReached(\"Funding goal reached\");\r\n    }\r\n    \r\n    function withdraw() public {\r\n        require(address(this).balance<totalFundingGoal,\"Funding goal already reached. Now can't withdraw\");\r\n        require(contributors[msg.sender] > 0, \"No contribution to withdraw\");\r\n        uint amount = contributors[msg.sender];\r\n        contributors[msg.sender] = 0;\r\n        currentFunding-=amount;\r\n        payable(msg.sender).transfer(amount);\r\n    }\r\n}\r\n\r\n",
  "sourcePath": "D:\\2) Web3\\3) My projects\\1) Ethereum Smart contracts\\12) Decentralised crowdfunding\\contracts\\Crowdfunding.sol",
  "compiler": {
    "name": "solc",
    "version": "0.8.18+commit.87f61d96.Emscripten.clang"
  },
  "schemaVersion": "3.4.11",
  "updatedAt": "2023-03-14T06:45:52.444Z",
  "networkType": "ethereum",
  "devdoc": {
    "kind": "dev",
    "methods": {},
    "version": 1
  },
  "userdoc": {
    "kind": "user",
    "methods": {},
    "version": 1
  }
}