{
  "contractName": "SupplyChain",
  "abi": [
    {
      "inputs": [
        {
          "internalType": "uint256",
          "name": "",
          "type": "uint256"
        }
      ],
      "name": "products",
      "outputs": [
        {
          "internalType": "uint256",
          "name": "productId",
          "type": "uint256"
        },
        {
          "internalType": "string",
          "name": "name",
          "type": "string"
        },
        {
          "internalType": "string",
          "name": "description",
          "type": "string"
        },
        {
          "internalType": "address payable",
          "name": "manufacturer",
          "type": "address"
        },
        {
          "internalType": "address payable",
          "name": "distributor",
          "type": "address"
        },
        {
          "internalType": "address payable",
          "name": "retailer",
          "type": "address"
        },
        {
          "internalType": "address payable",
          "name": "consumer",
          "type": "address"
        },
        {
          "internalType": "bool",
          "name": "approveByManufacturer",
          "type": "bool"
        },
        {
          "internalType": "bool",
          "name": "approveByDistributor",
          "type": "bool"
        },
        {
          "internalType": "bool",
          "name": "approveByRetailer",
          "type": "bool"
        },
        {
          "internalType": "bool",
          "name": "approveByCustomer",
          "type": "bool"
        },
        {
          "internalType": "uint256",
          "name": "manufacturerPrice",
          "type": "uint256"
        }
      ],
      "stateMutability": "view",
      "type": "function",
      "constant": true
    },
    {
      "inputs": [
        {
          "internalType": "string",
          "name": "_name",
          "type": "string"
        },
        {
          "internalType": "string",
          "name": "_description",
          "type": "string"
        },
        {
          "internalType": "uint256",
          "name": "_manufacturerPrice",
          "type": "uint256"
        },
        {
          "internalType": "uint256",
          "name": "_identity",
          "type": "uint256"
        }
      ],
      "name": "createProduct",
      "outputs": [],
      "stateMutability": "nonpayable",
      "type": "function"
    },
    {
      "inputs": [
        {
          "internalType": "uint256",
          "name": "_productId",
          "type": "uint256"
        },
        {
          "internalType": "uint256",
          "name": "_identity",
          "type": "uint256"
        },
        {
          "internalType": "bool",
          "name": "approveProduct",
          "type": "bool"
        }
      ],
      "name": "updateProduct",
      "outputs": [],
      "stateMutability": "nonpayable",
      "type": "function"
    },
    {
      "inputs": [
        {
          "internalType": "uint256",
          "name": "_productIndex",
          "type": "uint256"
        }
      ],
      "name": "payRetailer",
      "outputs": [],
      "stateMutability": "payable",
      "type": "function",
      "payable": true
    },
    {
      "inputs": [
        {
          "internalType": "uint256",
          "name": "_productIndex",
          "type": "uint256"
        }
      ],
      "name": "payDistributor",
      "outputs": [],
      "stateMutability": "payable",
      "type": "function",
      "payable": true
    },
    {
      "inputs": [
        {
          "internalType": "uint256",
          "name": "_productIndex",
          "type": "uint256"
        }
      ],
      "name": "payManufacturer",
      "outputs": [],
      "stateMutability": "payable",
      "type": "function",
      "payable": true
    }
  ],
  "bytecode": "0x608060405234801561001057600080fd5b506120fb806100206000396000f3fe6080604052600436106100555760003560e01c80630384a08f1461005a5780637acc0b201461008357806390d16cba146100cb578063a2a43c0d146100f4578063c7f8c78214610110578063e11a5c0b1461012c575b600080fd5b34801561006657600080fd5b50610081600480360381019061007c91906113ba565b610148565b005b34801561008f57600080fd5b506100aa60048036038101906100a5919061140d565b6103cd565b6040516100c29c9b9a99989796959493929190611529565b60405180910390f35b3480156100d757600080fd5b506100f260048036038101906100ed9190611726565b610601565b005b61010e6004803603810190610109919061140d565b61091b565b005b61012a6004803603810190610125919061140d565b610c7e565b005b6101466004803603810190610141919061140d565b610fed565b005b60018214806101575750600282145b806101625750600382145b6101a1576040517f08c379a000000000000000000000000000000000000000000000000000000000815260040161019890611837565b60405180910390fd5b60008084815481106101b6576101b5611857565b5b906000526020600020906008020190506001831480156101eb5750600115158160060160149054906101000a900460ff161515145b1561025057338160040160006101000a81548173ffffffffffffffffffffffffffffffffffffffff021916908373ffffffffffffffffffffffffffffffffffffffff160217905550818160060160156101000a81548160ff0219169083151502179055505b6002831480156102755750600115158160060160149054906101000a900460ff161515145b80156102965750600115158160060160159054906101000a900460ff161515145b156102fb57338160050160006101000a81548173ffffffffffffffffffffffffffffffffffffffff021916908373ffffffffffffffffffffffffffffffffffffffff160217905550818160060160166101000a81548160ff0219169083151502179055505b6003831480156103205750600115158160060160149054906101000a900460ff161515145b80156103415750600115158160060160159054906101000a900460ff161515145b80156103625750600115158160060160169054906101000a900460ff161515145b156103c757338160060160006101000a81548173ffffffffffffffffffffffffffffffffffffffff021916908373ffffffffffffffffffffffffffffffffffffffff160217905550818160060160176101000a81548160ff0219169083151502179055505b50505050565b600081815481106103dd57600080fd5b9060005260206000209060080201600091509050806000015490806001018054610406906118b5565b80601f0160208091040260200160405190810160405280929190818152602001828054610432906118b5565b801561047f5780601f106104545761010080835404028352916020019161047f565b820191906000526020600020905b81548152906001019060200180831161046257829003601f168201915b505050505090806002018054610494906118b5565b80601f01602080910402602001604051908101604052809291908181526020018280546104c0906118b5565b801561050d5780601f106104e25761010080835404028352916020019161050d565b820191906000526020600020905b8154815290600101906020018083116104f057829003601f168201915b5050505050908060030160009054906101000a900473ffffffffffffffffffffffffffffffffffffffff16908060040160009054906101000a900473ffffffffffffffffffffffffffffffffffffffff16908060050160009054906101000a900473ffffffffffffffffffffffffffffffffffffffff16908060060160009054906101000a900473ffffffffffffffffffffffffffffffffffffffff16908060060160149054906101000a900460ff16908060060160159054906101000a900460ff16908060060160169054906101000a900460ff16908060060160179054906101000a900460ff1690806007015490508c565b60008114610644576040517f08c379a000000000000000000000000000000000000000000000000000000000815260040161063b90611958565b60405180910390fd5b600060405180610180016040528060008054905081526020018681526020018581526020013373ffffffffffffffffffffffffffffffffffffffff168152602001600073ffffffffffffffffffffffffffffffffffffffff168152602001600073ffffffffffffffffffffffffffffffffffffffff168152602001600073ffffffffffffffffffffffffffffffffffffffff16815260200160011515815260200160001515815260200160001515815260200160001515815260200184815250905060008190806001815401808255809150506001900390600052602060002090600802016000909190919091506000820151816000015560208201518160010190816107519190611b24565b5060408201518160020190816107679190611b24565b5060608201518160030160006101000a81548173ffffffffffffffffffffffffffffffffffffffff021916908373ffffffffffffffffffffffffffffffffffffffff16021790555060808201518160040160006101000a81548173ffffffffffffffffffffffffffffffffffffffff021916908373ffffffffffffffffffffffffffffffffffffffff16021790555060a08201518160050160006101000a81548173ffffffffffffffffffffffffffffffffffffffff021916908373ffffffffffffffffffffffffffffffffffffffff16021790555060c08201518160060160006101000a81548173ffffffffffffffffffffffffffffffffffffffff021916908373ffffffffffffffffffffffffffffffffffffffff16021790555060e08201518160060160146101000a81548160ff0219169083151502179055506101008201518160060160156101000a81548160ff0219169083151502179055506101208201518160060160166101000a81548160ff0219169083151502179055506101408201518160060160176101000a81548160ff021916908315150217905550610160820151816007015550505050505050565b6000818154811061092f5761092e611857565b5b906000526020600020906008020160050160009054906101000a900473ffffffffffffffffffffffffffffffffffffffff1673ffffffffffffffffffffffffffffffffffffffff163373ffffffffffffffffffffffffffffffffffffffff16146109ce576040517f08c379a00000000000000000000000000000000000000000000000000000000081526004016109c590611c68565b60405180910390fd5b60011515600082815481106109e6576109e5611857565b5b906000526020600020906008020160060160149054906101000a900460ff16151514610a47576040517f08c379a0000000000000000000000000000000000000000000000000000000008152600401610a3e90611cfa565b60405180910390fd5b6001151560008281548110610a5f57610a5e611857565b5b906000526020600020906008020160060160159054906101000a900460ff16151514610ac0576040517f08c379a0000000000000000000000000000000000000000000000000000000008152600401610ab790611d8c565b60405180910390fd5b6001151560008281548110610ad857610ad7611857565b5b906000526020600020906008020160060160169054906101000a900460ff16151514610b39576040517f08c379a0000000000000000000000000000000000000000000000000000000008152600401610b3090611e1e565b60405180910390fd5b6001151560008281548110610b5157610b50611857565b5b906000526020600020906008020160060160179054906101000a900460ff16151514610bb2576040517f08c379a0000000000000000000000000000000000000000000000000000000008152600401610ba990611eb0565b60405180910390fd5b60008181548110610bc657610bc5611857565b5b906000526020600020906008020160040160009054906101000a900473ffffffffffffffffffffffffffffffffffffffff1673ffffffffffffffffffffffffffffffffffffffff166108fc6064606960008581548110610c2957610c28611857565b5b906000526020600020906008020160070154610c459190611eff565b610c4f9190611f70565b9081150290604051600060405180830381858888f19350505050158015610c7a573d6000803e3d6000fd5b5050565b60008181548110610c9257610c91611857565b5b906000526020600020906008020160060160009054906101000a900473ffffffffffffffffffffffffffffffffffffffff1673ffffffffffffffffffffffffffffffffffffffff163373ffffffffffffffffffffffffffffffffffffffff1614610d31576040517f08c379a0000000000000000000000000000000000000000000000000000000008152600401610d2890612013565b60405180910390fd5b6001151560008281548110610d4957610d48611857565b5b906000526020600020906008020160060160149054906101000a900460ff16151514610daa576040517f08c379a0000000000000000000000000000000000000000000000000000000008152600401610da190611cfa565b60405180910390fd5b6001151560008281548110610dc257610dc1611857565b5b906000526020600020906008020160060160159054906101000a900460ff16151514610e23576040517f08c379a0000000000000000000000000000000000000000000000000000000008152600401610e1a90611d8c565b60405180910390fd5b6001151560008281548110610e3b57610e3a611857565b5b906000526020600020906008020160060160169054906101000a900460ff16151514610e9c576040517f08c379a0000000000000000000000000000000000000000000000000000000008152600401610e9390611e1e565b60405180910390fd5b6001151560008281548110610eb457610eb3611857565b5b906000526020600020906008020160060160179054906101000a900460ff16151514610f15576040517f08c379a0000000000000000000000000000000000000000000000000000000008152600401610f0c90611eb0565b60405180910390fd5b60008181548110610f2957610f28611857565b5b906000526020600020906008020160050160009054906101000a900473ffffffffffffffffffffffffffffffffffffffff1673ffffffffffffffffffffffffffffffffffffffff166108fc61271060698060008681548110610f8e57610f8d611857565b5b906000526020600020906008020160070154610faa9190611eff565b610fb49190611eff565b610fbe9190611f70565b9081150290604051600060405180830381858888f19350505050158015610fe9573d6000803e3d6000fd5b5050565b6000818154811061100157611000611857565b5b906000526020600020906008020160040160009054906101000a900473ffffffffffffffffffffffffffffffffffffffff1673ffffffffffffffffffffffffffffffffffffffff163373ffffffffffffffffffffffffffffffffffffffff16146110a0576040517f08c379a0000000000000000000000000000000000000000000000000000000008152600401611097906120a5565b60405180910390fd5b60011515600082815481106110b8576110b7611857565b5b906000526020600020906008020160060160149054906101000a900460ff16151514611119576040517f08c379a000000000000000000000000000000000000000000000000000000000815260040161111090611cfa565b60405180910390fd5b600115156000828154811061113157611130611857565b5b906000526020600020906008020160060160159054906101000a900460ff16151514611192576040517f08c379a000000000000000000000000000000000000000000000000000000000815260040161118990611d8c565b60405180910390fd5b60011515600082815481106111aa576111a9611857565b5b906000526020600020906008020160060160169054906101000a900460ff1615151461120b576040517f08c379a000000000000000000000000000000000000000000000000000000000815260040161120290611e1e565b60405180910390fd5b600115156000828154811061122357611222611857565b5b906000526020600020906008020160060160179054906101000a900460ff16151514611284576040517f08c379a000000000000000000000000000000000000000000000000000000000815260040161127b90611eb0565b60405180910390fd5b6000818154811061129857611297611857565b5b906000526020600020906008020160030160009054906101000a900473ffffffffffffffffffffffffffffffffffffffff1673ffffffffffffffffffffffffffffffffffffffff166108fc600083815481106112f7576112f6611857565b5b9060005260206000209060080201600701549081150290604051600060405180830381858888f19350505050158015611334573d6000803e3d6000fd5b5050565b6000604051905090565b600080fd5b600080fd5b6000819050919050565b61135f8161134c565b811461136a57600080fd5b50565b60008135905061137c81611356565b92915050565b60008115159050919050565b61139781611382565b81146113a257600080fd5b50565b6000813590506113b48161138e565b92915050565b6000806000606084860312156113d3576113d2611342565b5b60006113e18682870161136d565b93505060206113f28682870161136d565b9250506040611403868287016113a5565b9150509250925092565b60006020828403121561142357611422611342565b5b60006114318482850161136d565b91505092915050565b6114438161134c565b82525050565b600081519050919050565b600082825260208201905092915050565b60005b83811015611483578082015181840152602081019050611468565b60008484015250505050565b6000601f19601f8301169050919050565b60006114ab82611449565b6114b58185611454565b93506114c5818560208601611465565b6114ce8161148f565b840191505092915050565b600073ffffffffffffffffffffffffffffffffffffffff82169050919050565b6000611504826114d9565b9050919050565b611514816114f9565b82525050565b61152381611382565b82525050565b60006101808201905061153f600083018f61143a565b8181036020830152611551818e6114a0565b90508181036040830152611565818d6114a0565b9050611574606083018c61150b565b611581608083018b61150b565b61158e60a083018a61150b565b61159b60c083018961150b565b6115a860e083018861151a565b6115b661010083018761151a565b6115c461012083018661151a565b6115d261014083018561151a565b6115e061016083018461143a565b9d9c50505050505050505050505050565b600080fd5b600080fd5b7f4e487b7100000000000000000000000000000000000000000000000000000000600052604160045260246000fd5b6116338261148f565b810181811067ffffffffffffffff82111715611652576116516115fb565b5b80604052505050565b6000611665611338565b9050611671828261162a565b919050565b600067ffffffffffffffff821115611691576116906115fb565b5b61169a8261148f565b9050602081019050919050565b82818337600083830152505050565b60006116c96116c484611676565b61165b565b9050828152602081018484840111156116e5576116e46115f6565b5b6116f08482856116a7565b509392505050565b600082601f83011261170d5761170c6115f1565b5b813561171d8482602086016116b6565b91505092915050565b600080600080608085870312156117405761173f611342565b5b600085013567ffffffffffffffff81111561175e5761175d611347565b5b61176a878288016116f8565b945050602085013567ffffffffffffffff81111561178b5761178a611347565b5b611797878288016116f8565b93505060406117a88782880161136d565b92505060606117b98782880161136d565b91505092959194509250565b7f4f6e6c79206469737472696275746f72732c2072657461696c65727320616e6460008201527f20636f6e73756d6572732063616e2075736520746869732066756e6374696f6e602082015250565b6000611821604083611454565b915061182c826117c5565b604082019050919050565b6000602082019050818103600083015261185081611814565b9050919050565b7f4e487b7100000000000000000000000000000000000000000000000000000000600052603260045260246000fd5b7f4e487b7100000000000000000000000000000000000000000000000000000000600052602260045260246000fd5b600060028204905060018216806118cd57607f821691505b6020821081036118e0576118df611886565b5b50919050565b7f596f7520617265206e6f742061206d616e75666163747572657220616e64206860008201527f656e63652063616e742075736520746869732066756e6374696f6e0000000000602082015250565b6000611942603b83611454565b915061194d826118e6565b604082019050919050565b6000602082019050818103600083015261197181611935565b9050919050565b60008190508160005260206000209050919050565b60006020601f8301049050919050565b600082821b905092915050565b6000600883026119da7fffffffffffffffffffffffffffffffffffffffffffffffffffffffffffffffff8261199d565b6119e4868361199d565b95508019841693508086168417925050509392505050565b6000819050919050565b6000611a21611a1c611a178461134c565b6119fc565b61134c565b9050919050565b6000819050919050565b611a3b83611a06565b611a4f611a4782611a28565b8484546119aa565b825550505050565b600090565b611a64611a57565b611a6f818484611a32565b505050565b5b81811015611a9357611a88600082611a5c565b600181019050611a75565b5050565b601f821115611ad857611aa981611978565b611ab28461198d565b81016020851015611ac1578190505b611ad5611acd8561198d565b830182611a74565b50505b505050565b600082821c905092915050565b6000611afb60001984600802611add565b1980831691505092915050565b6000611b148383611aea565b9150826002028217905092915050565b611b2d82611449565b67ffffffffffffffff811115611b4657611b456115fb565b5b611b5082546118b5565b611b5b828285611a97565b600060209050601f831160018114611b8e5760008415611b7c578287015190505b611b868582611b08565b865550611bee565b601f198416611b9c86611978565b60005b82811015611bc457848901518255600182019150602085019450602081019050611b9f565b86831015611be15784890151611bdd601f891682611aea565b8355505b6001600288020188555050505b505050505050565b7f4f6e6c792072657461696c65722063616e20617070726f76652074686520706160008201527f796d656e74730000000000000000000000000000000000000000000000000000602082015250565b6000611c52602683611454565b9150611c5d82611bf6565b604082019050919050565b60006020820190508181036000830152611c8181611c45565b9050919050565b7f4d616e75666163747572657220686173206e6f7420617070726f76656420746860008201527f652070726f647563740000000000000000000000000000000000000000000000602082015250565b6000611ce4602983611454565b9150611cef82611c88565b604082019050919050565b60006020820190508181036000830152611d1381611cd7565b9050919050565b7f4469737472696275746f7220686173206e6f7420617070726f7665642074686560008201527f2070726f64756374000000000000000000000000000000000000000000000000602082015250565b6000611d76602883611454565b9150611d8182611d1a565b604082019050919050565b60006020820190508181036000830152611da581611d69565b9050919050565b7f52657461696c657220686173206e6f7420617070726f7665642074686520707260008201527f6f64756374000000000000000000000000000000000000000000000000000000602082015250565b6000611e08602583611454565b9150611e1382611dac565b604082019050919050565b60006020820190508181036000830152611e3781611dfb565b9050919050565b7f437573746f6d657220686173206e6f7420617070726f7665642074686520707260008201527f6f64756374000000000000000000000000000000000000000000000000000000602082015250565b6000611e9a602583611454565b9150611ea582611e3e565b604082019050919050565b60006020820190508181036000830152611ec981611e8d565b9050919050565b7f4e487b7100000000000000000000000000000000000000000000000000000000600052601160045260246000fd5b6000611f0a8261134c565b9150611f158361134c565b9250828202611f238161134c565b91508282048414831517611f3a57611f39611ed0565b5b5092915050565b7f4e487b7100000000000000000000000000000000000000000000000000000000600052601260045260246000fd5b6000611f7b8261134c565b9150611f868361134c565b925082611f9657611f95611f41565b5b828204905092915050565b7f4f6e6c7920636f6e73756d65722063616e20617070726f76652074686520706160008201527f796d656e74730000000000000000000000000000000000000000000000000000602082015250565b6000611ffd602683611454565b915061200882611fa1565b604082019050919050565b6000602082019050818103600083015261202c81611ff0565b9050919050565b7f4f6e6c79206469737472696275746f722063616e20617070726f76652074686560008201527f207061796d656e74730000000000000000000000000000000000000000000000602082015250565b600061208f602983611454565b915061209a82612033565b604082019050919050565b600060208201905081810360008301526120be81612082565b905091905056fea2646970667358221220736f6aaeeaff1c19ad4dbd424d0ac4202107926f78846c9e8b21f90bad9f197e64736f6c63430008120033",
  "immutableReferences": {},
  "source": "//SPDX-License-Identifier:GPL-3.0\r\n\r\n/* This smart contract tracks products throughout its supply chain starting from\r\nmanufacturer to distributor to retailer to customer. At each stage, the product is approved. \r\nThe payments are released by consumer when he recieves the product in right \r\ncondition and same was approved at each stage of supply chain.The price at each stage \r\nis for the sake of project is set such that each distributor and retailer add 5% above \r\nmanufacturer's price for product handling. However, in real scenario, this price at \r\neach stage may also be fixed using the smart contract. \r\n\r\nThis way, using this contract consumer can track the complete life cycle of product \r\nand transfer the money only when he is satisfied. \r\n\r\nAlso, for identification of the person using the updateProduct function, ID:0 is assigned \r\nto manufacturer, ID:1 is assigned to distributor, ID:2 is assigned to retailer and ID:3 \r\nis assigned to consumer. In real scenario, this ID can be linked to a verified database.\r\n\r\n*/\r\n\r\npragma solidity ^0.8.0;\r\n\r\ncontract SupplyChain {\r\n    \r\n    \r\n    struct Product {\r\n        uint256 productId;\r\n        string name;\r\n        string description;\r\n        address payable manufacturer;\r\n        address payable distributor;\r\n        address payable retailer;\r\n        address payable consumer;\r\n        bool approveByManufacturer;\r\n        bool approveByDistributor;\r\n        bool approveByRetailer;\r\n        bool approveByCustomer;\r\n        uint256 manufacturerPrice;\r\n    }    \r\n    \r\n    Product[] public products;\r\n    \r\n    \r\n    function createProduct(string memory _name, string memory _description, uint256 _manufacturerPrice,uint _identity) public {\r\n        require(_identity==0,\"You are not a manufacturer and hence cant use this function\");\r\n        Product memory newProduct = Product({\r\n            productId: products.length,\r\n            name: _name,\r\n            description: _description,\r\n            manufacturerPrice: _manufacturerPrice,\r\n            manufacturer: payable(msg.sender),\r\n            distributor: payable(address(0)),\r\n            retailer: payable(address(0)),\r\n            consumer: payable(address(0)),\r\n            approveByManufacturer:true,\r\n            approveByDistributor:false,\r\n            approveByRetailer:false,\r\n            approveByCustomer:false\r\n\r\n        });\r\n        \r\n        products.push(newProduct);\r\n        \r\n    }\r\n    \r\n    \r\n    function updateProduct(uint256 _productId,uint _identity,bool approveProduct) public {\r\n        require(_identity==1 || _identity==2 || _identity==3,\"Only distributors, retailers and consumers can use this function\");\r\n        Product storage product = products[_productId];\r\n        \r\n        if(_identity==1 && product.approveByManufacturer==true) {\r\n            product.distributor = payable(msg.sender);\r\n            product.approveByDistributor=approveProduct;\r\n        }\r\n        if(_identity==2 && product.approveByManufacturer==true && product.approveByDistributor==true) {\r\n            product.retailer=payable(msg.sender);\r\n            product.approveByRetailer=approveProduct;\r\n        } \r\n\r\n        if(_identity==3 && product.approveByManufacturer==true && product.approveByDistributor==true && product.approveByRetailer==true) {\r\n            product.consumer=payable(msg.sender);\r\n            product.approveByCustomer=approveProduct;\r\n        }   \r\n    }\r\n\r\n    function payRetailer(uint _productIndex) public payable {\r\n        require(payable(msg.sender)==products[_productIndex].consumer,\"Only consumer can approve the payments\");\r\n        require(products[_productIndex].approveByManufacturer==true,\"Manufacturer has not approved the product\");\r\n        require(products[_productIndex].approveByDistributor==true,\"Distributor has not approved the product\");\r\n        require(products[_productIndex].approveByRetailer==true,\"Retailer has not approved the product\");\r\n        require(products[_productIndex].approveByCustomer==true,\"Customer has not approved the product\");\r\n        products[_productIndex].retailer.transfer(products[_productIndex].manufacturerPrice*105*105/10000);\r\n\r\n    }\r\n\r\n    function payDistributor(uint _productIndex) public payable {\r\n        require(payable(msg.sender)==products[_productIndex].retailer,\"Only retailer can approve the payments\");\r\n        require(products[_productIndex].approveByManufacturer==true,\"Manufacturer has not approved the product\");\r\n        require(products[_productIndex].approveByDistributor==true,\"Distributor has not approved the product\");\r\n        require(products[_productIndex].approveByRetailer==true,\"Retailer has not approved the product\");\r\n        require(products[_productIndex].approveByCustomer==true,\"Customer has not approved the product\");\r\n        products[_productIndex].distributor.transfer(products[_productIndex].manufacturerPrice*105/100);\r\n\r\n    }\r\n\r\n    function payManufacturer(uint _productIndex) public payable {\r\n        require(payable(msg.sender)==products[_productIndex].distributor,\"Only distributor can approve the payments\");\r\n        require(products[_productIndex].approveByManufacturer==true,\"Manufacturer has not approved the product\");\r\n        require(products[_productIndex].approveByDistributor==true,\"Distributor has not approved the product\");\r\n        require(products[_productIndex].approveByRetailer==true,\"Retailer has not approved the product\");\r\n        require(products[_productIndex].approveByCustomer==true,\"Customer has not approved the product\");\r\n        products[_productIndex].manufacturer.transfer(products[_productIndex].manufacturerPrice);\r\n\r\n    }\r\n\r\n}\r\n",
  "sourcePath": "D:\\2) Web3\\1) Ethereum Smart contracts\\14) Supply chain management\\contracts\\SupplyChain.sol",
  "compiler": {
    "name": "solc",
    "version": "0.8.18+commit.87f61d96.Emscripten.clang"
  },
  "schemaVersion": "3.4.11",
  "updatedAt": "2023-03-16T17:44:37.205Z",
  "networkType": "ethereum",
  "devdoc": {
    "kind": "dev",
    "methods": {},
    "version": 1
  },
  "userdoc": {
    "kind": "user",
    "methods": {},
    "version": 1
  }
}