{
  "contractName": "BloodBank",
  "abi": [
    {
      "inputs": [],
      "stateMutability": "nonpayable",
      "type": "constructor"
    },
    {
      "anonymous": false,
      "inputs": [
        {
          "indexed": false,
          "internalType": "string",
          "name": "message",
          "type": "string"
        }
      ],
      "name": "Successfull",
      "type": "event"
    },
    {
      "inputs": [
        {
          "internalType": "string",
          "name": "_name",
          "type": "string"
        },
        {
          "internalType": "uint256",
          "name": "_age",
          "type": "uint256"
        },
        {
          "internalType": "string",
          "name": "_bloodGroup",
          "type": "string"
        },
        {
          "internalType": "uint256",
          "name": "_contact",
          "type": "uint256"
        },
        {
          "internalType": "string",
          "name": "_homeAddress",
          "type": "string"
        },
        {
          "internalType": "uint256",
          "name": "_aadhar",
          "type": "uint256"
        }
      ],
      "name": "newPatient",
      "outputs": [],
      "stateMutability": "nonpayable",
      "type": "function"
    },
    {
      "inputs": [
        {
          "internalType": "uint256",
          "name": "_aadhar",
          "type": "uint256"
        }
      ],
      "name": "getPatientRecord",
      "outputs": [
        {
          "components": [
            {
              "internalType": "uint256",
              "name": "aadhar",
              "type": "uint256"
            },
            {
              "internalType": "string",
              "name": "name",
              "type": "string"
            },
            {
              "internalType": "uint256",
              "name": "age",
              "type": "uint256"
            },
            {
              "internalType": "string",
              "name": "bloodGroup",
              "type": "string"
            },
            {
              "internalType": "uint256",
              "name": "contact",
              "type": "uint256"
            },
            {
              "internalType": "string",
              "name": "homeAddress",
              "type": "string"
            },
            {
              "components": [
                {
                  "internalType": "enum BloodBank.PatientType",
                  "name": "patientType",
                  "type": "uint8"
                },
                {
                  "internalType": "uint256",
                  "name": "time",
                  "type": "uint256"
                },
                {
                  "internalType": "address",
                  "name": "from",
                  "type": "address"
                },
                {
                  "internalType": "address",
                  "name": "to",
                  "type": "address"
                }
              ],
              "internalType": "struct BloodBank.BloodTransaction[]",
              "name": "bT",
              "type": "tuple[]"
            }
          ],
          "internalType": "struct BloodBank.Patient",
          "name": "",
          "type": "tuple"
        }
      ],
      "stateMutability": "view",
      "type": "function",
      "constant": true
    },
    {
      "inputs": [],
      "name": "getAllRecord",
      "outputs": [
        {
          "components": [
            {
              "internalType": "uint256",
              "name": "aadhar",
              "type": "uint256"
            },
            {
              "internalType": "string",
              "name": "name",
              "type": "string"
            },
            {
              "internalType": "uint256",
              "name": "age",
              "type": "uint256"
            },
            {
              "internalType": "string",
              "name": "bloodGroup",
              "type": "string"
            },
            {
              "internalType": "uint256",
              "name": "contact",
              "type": "uint256"
            },
            {
              "internalType": "string",
              "name": "homeAddress",
              "type": "string"
            },
            {
              "components": [
                {
                  "internalType": "enum BloodBank.PatientType",
                  "name": "patientType",
                  "type": "uint8"
                },
                {
                  "internalType": "uint256",
                  "name": "time",
                  "type": "uint256"
                },
                {
                  "internalType": "address",
                  "name": "from",
                  "type": "address"
                },
                {
                  "internalType": "address",
                  "name": "to",
                  "type": "address"
                }
              ],
              "internalType": "struct BloodBank.BloodTransaction[]",
              "name": "bT",
              "type": "tuple[]"
            }
          ],
          "internalType": "struct BloodBank.Patient[]",
          "name": "",
          "type": "tuple[]"
        }
      ],
      "stateMutability": "view",
      "type": "function",
      "constant": true
    },
    {
      "inputs": [
        {
          "internalType": "uint256",
          "name": "_aadhar",
          "type": "uint256"
        },
        {
          "internalType": "enum BloodBank.PatientType",
          "name": "_type",
          "type": "uint8"
        },
        {
          "internalType": "address",
          "name": "_from",
          "type": "address"
        },
        {
          "internalType": "address",
          "name": "_to",
          "type": "address"
        }
      ],
      "name": "bloodTransaction",
      "outputs": [],
      "stateMutability": "nonpayable",
      "type": "function"
    }
  ],
  "bytecode": "0x608060405234801561001057600080fd5b50336000806101000a81548173ffffffffffffffffffffffffffffffffffffffff021916908373ffffffffffffffffffffffffffffffffffffffff160217905550611a0f806100606000396000f3fe608060405234801561001057600080fd5b506004361061004c5760003560e01c80639954f30a14610051578063b9fff11b1461006d578063d5a9f0031461009d578063f2c4e0c6146100bb575b600080fd5b61006b60048036038101906100669190610e21565b6100d7565b005b61008760048036038101906100829190610f02565b6102f9565b604051610094919061122a565b60405180910390f35b6100a5610672565b6040516100b291906113bf565b60405180910390f35b6100d560048036038101906100d09190611432565b6109f5565b005b60008054906101000a900473ffffffffffffffffffffffffffffffffffffffff1673ffffffffffffffffffffffffffffffffffffffff163373ffffffffffffffffffffffffffffffffffffffff1614610165576040517f08c379a000000000000000000000000000000000000000000000000000000000815260040161015c9061151c565b60405180910390fd5b60006001805490509050600180816001815401808255809150500390600052602060002090505086600182815481106101a1576101a061153c565b5b906000526020600020906007020160010190816101be9190611777565b5085600182815481106101d4576101d361153c565b5b90600052602060002090600702016002018190555084600182815481106101fe576101fd61153c565b5b9060005260206000209060070201600301908161021b9190611777565b5083600182815481106102315761023061153c565b5b906000526020600020906007020160040181905550826001828154811061025b5761025a61153c565b5b906000526020600020906007020160050190816102789190611777565b50816001828154811061028e5761028d61153c565b5b9060005260206000209060070201600001819055508060026000848152602001908152602001600020819055507f3c33ba9853a78dcaeb50be0f15e1be558cc38978243329bbdaee54a8f5ae4fec6040516102e890611895565b60405180910390a150505050505050565b610301610c54565b6000600260008481526020019081526020016000205490506001818154811061032d5761032c61153c565b5b90600052602060002090600702016040518060e0016040529081600082015481526020016001820180546103609061159a565b80601f016020809104026020016040519081016040528092919081815260200182805461038c9061159a565b80156103d95780601f106103ae576101008083540402835291602001916103d9565b820191906000526020600020905b8154815290600101906020018083116103bc57829003601f168201915b50505050508152602001600282015481526020016003820180546103fc9061159a565b80601f01602080910402602001604051908101604052809291908181526020018280546104289061159a565b80156104755780601f1061044a57610100808354040283529160200191610475565b820191906000526020600020905b81548152906001019060200180831161045857829003601f168201915b50505050508152602001600482015481526020016005820180546104989061159a565b80601f01602080910402602001604051908101604052809291908181526020018280546104c49061159a565b80156105115780601f106104e657610100808354040283529160200191610511565b820191906000526020600020905b8154815290600101906020018083116104f457829003601f168201915b5050505050815260200160068201805480602002602001604051908101604052809291908181526020016000905b8282101561066257838290600052602060002090600402016040518060800160405290816000820160009054906101000a900460ff16600181111561058757610586610fe9565b5b600181111561059957610598610fe9565b5b8152602001600182015481526020016002820160009054906101000a900473ffffffffffffffffffffffffffffffffffffffff1673ffffffffffffffffffffffffffffffffffffffff1673ffffffffffffffffffffffffffffffffffffffff1681526020016003820160009054906101000a900473ffffffffffffffffffffffffffffffffffffffff1673ffffffffffffffffffffffffffffffffffffffff1673ffffffffffffffffffffffffffffffffffffffff16815250508152602001906001019061053f565b5050505081525050915050919050565b60606001805480602002602001604051908101604052809291908181526020016000905b828210156109ec57838290600052602060002090600702016040518060e0016040529081600082015481526020016001820180546106d39061159a565b80601f01602080910402602001604051908101604052809291908181526020018280546106ff9061159a565b801561074c5780601f106107215761010080835404028352916020019161074c565b820191906000526020600020905b81548152906001019060200180831161072f57829003601f168201915b505050505081526020016002820154815260200160038201805461076f9061159a565b80601f016020809104026020016040519081016040528092919081815260200182805461079b9061159a565b80156107e85780601f106107bd576101008083540402835291602001916107e8565b820191906000526020600020905b8154815290600101906020018083116107cb57829003601f168201915b505050505081526020016004820154815260200160058201805461080b9061159a565b80601f01602080910402602001604051908101604052809291908181526020018280546108379061159a565b80156108845780601f1061085957610100808354040283529160200191610884565b820191906000526020600020905b81548152906001019060200180831161086757829003601f168201915b5050505050815260200160068201805480602002602001604051908101604052809291908181526020016000905b828210156109d557838290600052602060002090600402016040518060800160405290816000820160009054906101000a900460ff1660018111156108fa576108f9610fe9565b5b600181111561090c5761090b610fe9565b5b8152602001600182015481526020016002820160009054906101000a900473ffffffffffffffffffffffffffffffffffffffff1673ffffffffffffffffffffffffffffffffffffffff1673ffffffffffffffffffffffffffffffffffffffff1681526020016003820160009054906101000a900473ffffffffffffffffffffffffffffffffffffffff1673ffffffffffffffffffffffffffffffffffffffff1673ffffffffffffffffffffffffffffffffffffffff1681525050815260200190600101906108b2565b505050508152505081526020019060010190610696565b50505050905090565b60008054906101000a900473ffffffffffffffffffffffffffffffffffffffff1673ffffffffffffffffffffffffffffffffffffffff163373ffffffffffffffffffffffffffffffffffffffff1614610a83576040517f08c379a0000000000000000000000000000000000000000000000000000000008152600401610a7a90611927565b60405180910390fd5b60006002600086815260200190815260200160002054905060006040518060800160405280866001811115610abb57610aba610fe9565b5b81526020014281526020018573ffffffffffffffffffffffffffffffffffffffff1681526020018473ffffffffffffffffffffffffffffffffffffffff16815250905060018281548110610b1257610b1161153c565b5b906000526020600020906007020160060181908060018154018082558091505060019003906000526020600020906004020160009091909190915060008201518160000160006101000a81548160ff02191690836001811115610b7857610b77610fe9565b5b02179055506020820151816001015560408201518160020160006101000a81548173ffffffffffffffffffffffffffffffffffffffff021916908373ffffffffffffffffffffffffffffffffffffffff16021790555060608201518160030160006101000a81548173ffffffffffffffffffffffffffffffffffffffff021916908373ffffffffffffffffffffffffffffffffffffffff16021790555050507f3c33ba9853a78dcaeb50be0f15e1be558cc38978243329bbdaee54a8f5ae4fec604051610c44906119b9565b60405180910390a1505050505050565b6040518060e00160405280600081526020016060815260200160008152602001606081526020016000815260200160608152602001606081525090565b6000604051905090565b600080fd5b600080fd5b600080fd5b600080fd5b6000601f19601f8301169050919050565b7f4e487b7100000000000000000000000000000000000000000000000000000000600052604160045260246000fd5b610cf882610caf565b810181811067ffffffffffffffff82111715610d1757610d16610cc0565b5b80604052505050565b6000610d2a610c91565b9050610d368282610cef565b919050565b600067ffffffffffffffff821115610d5657610d55610cc0565b5b610d5f82610caf565b9050602081019050919050565b82818337600083830152505050565b6000610d8e610d8984610d3b565b610d20565b905082815260208101848484011115610daa57610da9610caa565b5b610db5848285610d6c565b509392505050565b600082601f830112610dd257610dd1610ca5565b5b8135610de2848260208601610d7b565b91505092915050565b6000819050919050565b610dfe81610deb565b8114610e0957600080fd5b50565b600081359050610e1b81610df5565b92915050565b60008060008060008060c08789031215610e3e57610e3d610c9b565b5b600087013567ffffffffffffffff811115610e5c57610e5b610ca0565b5b610e6889828a01610dbd565b9650506020610e7989828a01610e0c565b955050604087013567ffffffffffffffff811115610e9a57610e99610ca0565b5b610ea689828a01610dbd565b9450506060610eb789828a01610e0c565b935050608087013567ffffffffffffffff811115610ed857610ed7610ca0565b5b610ee489828a01610dbd565b92505060a0610ef589828a01610e0c565b9150509295509295509295565b600060208284031215610f1857610f17610c9b565b5b6000610f2684828501610e0c565b91505092915050565b610f3881610deb565b82525050565b600081519050919050565b600082825260208201905092915050565b60005b83811015610f78578082015181840152602081019050610f5d565b60008484015250505050565b6000610f8f82610f3e565b610f998185610f49565b9350610fa9818560208601610f5a565b610fb281610caf565b840191505092915050565b600081519050919050565b600082825260208201905092915050565b6000819050602082019050919050565b7f4e487b7100000000000000000000000000000000000000000000000000000000600052602160045260246000fd5b6002811061102957611028610fe9565b5b50565b600081905061103a82611018565b919050565b600061104a8261102c565b9050919050565b61105a8161103f565b82525050565b600073ffffffffffffffffffffffffffffffffffffffff82169050919050565b600061108b82611060565b9050919050565b61109b81611080565b82525050565b6080820160008201516110b76000850182611051565b5060208201516110ca6020850182610f2f565b5060408201516110dd6040850182611092565b5060608201516110f06060850182611092565b50505050565b600061110283836110a1565b60808301905092915050565b6000602082019050919050565b600061112682610fbd565b6111308185610fc8565b935061113b83610fd9565b8060005b8381101561116c57815161115388826110f6565b975061115e8361110e565b92505060018101905061113f565b5085935050505092915050565b600060e0830160008301516111916000860182610f2f565b50602083015184820360208601526111a98282610f84565b91505060408301516111be6040860182610f2f565b50606083015184820360608601526111d68282610f84565b91505060808301516111eb6080860182610f2f565b5060a083015184820360a08601526112038282610f84565b91505060c083015184820360c086015261121d828261111b565b9150508091505092915050565b600060208201905081810360008301526112448184611179565b905092915050565b600081519050919050565b600082825260208201905092915050565b6000819050602082019050919050565b600060e0830160008301516112906000860182610f2f565b50602083015184820360208601526112a88282610f84565b91505060408301516112bd6040860182610f2f565b50606083015184820360608601526112d58282610f84565b91505060808301516112ea6080860182610f2f565b5060a083015184820360a08601526113028282610f84565b91505060c083015184820360c086015261131c828261111b565b9150508091505092915050565b60006113358383611278565b905092915050565b6000602082019050919050565b60006113558261124c565b61135f8185611257565b93508360208202850161137185611268565b8060005b858110156113ad578484038952815161138e8582611329565b94506113998361133d565b925060208a01995050600181019050611375565b50829750879550505050505092915050565b600060208201905081810360008301526113d9818461134a565b905092915050565b600281106113ee57600080fd5b50565b600081359050611400816113e1565b92915050565b61140f81611080565b811461141a57600080fd5b50565b60008135905061142c81611406565b92915050565b6000806000806080858703121561144c5761144b610c9b565b5b600061145a87828801610e0c565b945050602061146b878288016113f1565b935050604061147c8782880161141d565b925050606061148d8782880161141d565b91505092959194509250565b600082825260208201905092915050565b7f6f6e6c792061646d696e2063616e207265676973746572206e6577207061746960008201527f656e740000000000000000000000000000000000000000000000000000000000602082015250565b6000611506602383611499565b9150611511826114aa565b604082019050919050565b60006020820190508181036000830152611535816114f9565b9050919050565b7f4e487b7100000000000000000000000000000000000000000000000000000000600052603260045260246000fd5b7f4e487b7100000000000000000000000000000000000000000000000000000000600052602260045260246000fd5b600060028204905060018216806115b257607f821691505b6020821081036115c5576115c461156b565b5b50919050565b60008190508160005260206000209050919050565b60006020601f8301049050919050565b600082821b905092915050565b60006008830261162d7fffffffffffffffffffffffffffffffffffffffffffffffffffffffffffffffff826115f0565b61163786836115f0565b95508019841693508086168417925050509392505050565b6000819050919050565b600061167461166f61166a84610deb565b61164f565b610deb565b9050919050565b6000819050919050565b61168e83611659565b6116a261169a8261167b565b8484546115fd565b825550505050565b600090565b6116b76116aa565b6116c2818484611685565b505050565b5b818110156116e6576116db6000826116af565b6001810190506116c8565b5050565b601f82111561172b576116fc816115cb565b611705846115e0565b81016020851015611714578190505b611728611720856115e0565b8301826116c7565b50505b505050565b600082821c905092915050565b600061174e60001984600802611730565b1980831691505092915050565b6000611767838361173d565b9150826002028217905092915050565b61178082610f3e565b67ffffffffffffffff81111561179957611798610cc0565b5b6117a3825461159a565b6117ae8282856116ea565b600060209050601f8311600181146117e157600084156117cf578287015190505b6117d9858261175b565b865550611841565b601f1984166117ef866115cb565b60005b82811015611817578489015182556001820191506020850194506020810190506117f2565b868310156118345784890151611830601f89168261173d565b8355505b6001600288020188555050505b505050505050565b7f50617469656e74206164646564207375636365737366756c6c79000000000000600082015250565b600061187f601a83611499565b915061188a82611849565b602082019050919050565b600060208201905081810360008301526118ae81611872565b9050919050565b7f6f6e6c7920686f73706974616c2063616e20757064617465207468652070617460008201527f69656e74277320626c6f6f64207472616e73616374696f6e2064617461000000602082015250565b6000611911603d83611499565b915061191c826118b5565b604082019050919050565b6000602082019050818103600083015261194081611904565b9050919050565b7f50617469656e7420626c6f6f64207472616e73616374696f6e2064617461206960008201527f732075706461746564207375636365737366756c6c7900000000000000000000602082015250565b60006119a3603683611499565b91506119ae82611947565b604082019050919050565b600060208201905081810360008301526119d281611996565b905091905056fea2646970667358221220100d6d5f33a61e70035e680430b1d8ad20fccef9f299432bc5c33fdef501a12d64736f6c63430008120033",
  "immutableReferences": {},
  "source": "\r\n// SPDX-License-Identifier: GPL-3.0\r\n\r\n/* This smart contract can be used by a blood bank to store record of donors and receiver patients. The smart \r\ncontract also maintains every blood transaction linked to the patient.\r\n\r\nThe records are maintained as : \r\n\r\nWhen a patient comes to the blood bank. When he visits first time, his details are taken and he is registered.\r\nThis way a list of patients is maintained. At the same time, along with the details of the patient, \r\nthe ledger also stores the list of transactions in which the patient is involved in. So, that whenever a receiver \r\nreceives blood, he can track down who is donating the blood and what is the donor's history.\r\n\r\n*/\r\n\r\npragma solidity ^0.8.0;\r\n\r\ncontract BloodBank {\r\n    \r\n    address owner;\r\n\r\n    constructor() {\r\n        owner = msg.sender;\r\n    }\r\n\r\n   \r\n    enum PatientType {\r\n        Donor,\r\n        Receiver\r\n    }\r\n\r\n   \r\n    struct BloodTransaction {\r\n        PatientType patientType;\r\n        uint256 time;\r\n        address from;\r\n        address to;\r\n    }\r\n\r\n    \r\n    struct Patient {\r\n        uint256 aadhar;\r\n        string name;\r\n        uint256 age;\r\n        string bloodGroup;\r\n        uint256 contact;\r\n        string homeAddress;\r\n        BloodTransaction[] bT;\r\n    }\r\n\r\n    \r\n    Patient[] PatientRecord;\r\n\r\n    \r\n       mapping(uint256 => uint256) PatientRecordIndex;\r\n\r\n    \r\n    event Successfull(string message);\r\n\r\n   \r\n    function newPatient(\r\n        string memory _name,\r\n        uint256 _age,\r\n        string memory _bloodGroup,\r\n        uint256 _contact,\r\n        string memory _homeAddress,\r\n        uint256 _aadhar\r\n    ) external {\r\n        \r\n        require(msg.sender == owner, \"only admin can register new patient\");\r\n\r\n        \r\n        uint256 index = PatientRecord.length;\r\n\r\n        \r\n        PatientRecord.push();\r\n        PatientRecord[index].name = _name;\r\n        PatientRecord[index].age = _age;\r\n        PatientRecord[index].bloodGroup = _bloodGroup;\r\n        PatientRecord[index].contact = _contact;\r\n        PatientRecord[index].homeAddress = _homeAddress;\r\n        PatientRecord[index].aadhar = _aadhar;\r\n\r\n        \r\n        PatientRecordIndex[_aadhar] = index;\r\n\r\n        emit Successfull(\"Patient added successfully\");\r\n    }\r\n\r\n    \r\n    function getPatientRecord(uint256 _aadhar)\r\n        external\r\n        view\r\n        returns (Patient memory)\r\n    {\r\n        uint256 index = PatientRecordIndex[_aadhar];\r\n        return PatientRecord[index];\r\n    }\r\n\r\n    \r\n    function getAllRecord() external view returns (Patient[] memory) {\r\n        return PatientRecord;\r\n    }\r\n\r\n    \r\n    function bloodTransaction(\r\n        uint256 _aadhar,\r\n        PatientType _type,\r\n        address _from,\r\n        address _to\r\n    ) external {\r\n        \r\n        require(\r\n            msg.sender == owner,\r\n            \"only hospital can update the patient's blood transaction data\"\r\n        );\r\n\r\n        \r\n        uint256 index = PatientRecordIndex[_aadhar];\r\n\r\n        BloodTransaction memory txObj = BloodTransaction({\r\n            patientType: _type,\r\n            time: block.timestamp,\r\n            from: _from,\r\n            to: _to\r\n        });\r\n\r\n        PatientRecord[index].bT.push(txObj);\r\n\r\n        \r\n\r\n        emit Successfull(\r\n            \"Patient blood transaction data is updated successfully\"\r\n        );\r\n    }\r\n}",
  "sourcePath": "D:\\2) Web3\\3) My projects\\1) Ethereum Smart contracts\\4) Blood bank\\contracts\\BloodBank.sol",
  "compiler": {
    "name": "solc",
    "version": "0.8.18+commit.87f61d96.Emscripten.clang"
  },
  "schemaVersion": "3.4.11",
  "updatedAt": "2023-03-07T12:43:00.029Z",
  "networkType": "ethereum",
  "devdoc": {
    "kind": "dev",
    "methods": {},
    "version": 1
  },
  "userdoc": {
    "kind": "user",
    "methods": {},
    "version": 1
  }
}