{
  "contractName": "MigrantWorkerJobPortal",
  "abi": [
    {
      "inputs": [],
      "stateMutability": "nonpayable",
      "type": "constructor"
    },
    {
      "inputs": [],
      "name": "admin",
      "outputs": [
        {
          "internalType": "address",
          "name": "",
          "type": "address"
        }
      ],
      "stateMutability": "view",
      "type": "function",
      "constant": true
    },
    {
      "inputs": [
        {
          "internalType": "address",
          "name": "",
          "type": "address"
        },
        {
          "internalType": "uint256",
          "name": "",
          "type": "uint256"
        }
      ],
      "name": "applicantRatings",
      "outputs": [
        {
          "internalType": "uint256",
          "name": "",
          "type": "uint256"
        }
      ],
      "stateMutability": "view",
      "type": "function",
      "constant": true
    },
    {
      "inputs": [
        {
          "internalType": "uint256",
          "name": "",
          "type": "uint256"
        }
      ],
      "name": "applicants",
      "outputs": [
        {
          "internalType": "uint256",
          "name": "id",
          "type": "uint256"
        },
        {
          "internalType": "string",
          "name": "name",
          "type": "string"
        },
        {
          "internalType": "string",
          "name": "laborHistory",
          "type": "string"
        },
        {
          "internalType": "string",
          "name": "skills",
          "type": "string"
        },
        {
          "internalType": "string",
          "name": "availability",
          "type": "string"
        },
        {
          "internalType": "string",
          "name": "personalDetails",
          "type": "string"
        },
        {
          "internalType": "uint256",
          "name": "rating",
          "type": "uint256"
        }
      ],
      "stateMutability": "view",
      "type": "function",
      "constant": true
    },
    {
      "inputs": [
        {
          "internalType": "uint256",
          "name": "",
          "type": "uint256"
        }
      ],
      "name": "jobs",
      "outputs": [
        {
          "internalType": "uint256",
          "name": "id",
          "type": "uint256"
        },
        {
          "internalType": "string",
          "name": "title",
          "type": "string"
        },
        {
          "internalType": "string",
          "name": "description",
          "type": "string"
        },
        {
          "internalType": "uint256",
          "name": "salary",
          "type": "uint256"
        },
        {
          "internalType": "bool",
          "name": "isAvailable",
          "type": "bool"
        }
      ],
      "stateMutability": "view",
      "type": "function",
      "constant": true
    },
    {
      "inputs": [],
      "name": "totalApplicants",
      "outputs": [
        {
          "internalType": "uint256",
          "name": "",
          "type": "uint256"
        }
      ],
      "stateMutability": "view",
      "type": "function",
      "constant": true
    },
    {
      "inputs": [],
      "name": "totalJobs",
      "outputs": [
        {
          "internalType": "uint256",
          "name": "",
          "type": "uint256"
        }
      ],
      "stateMutability": "view",
      "type": "function",
      "constant": true
    },
    {
      "inputs": [
        {
          "internalType": "string",
          "name": "_name",
          "type": "string"
        },
        {
          "internalType": "string",
          "name": "_laborHistory",
          "type": "string"
        },
        {
          "internalType": "string",
          "name": "_skills",
          "type": "string"
        },
        {
          "internalType": "string",
          "name": "_availability",
          "type": "string"
        },
        {
          "internalType": "string",
          "name": "_personalDetails",
          "type": "string"
        }
      ],
      "name": "addApplicant",
      "outputs": [],
      "stateMutability": "nonpayable",
      "type": "function"
    },
    {
      "inputs": [
        {
          "internalType": "uint256",
          "name": "_id",
          "type": "uint256"
        }
      ],
      "name": "getApplicantDetails",
      "outputs": [
        {
          "internalType": "uint256",
          "name": "",
          "type": "uint256"
        },
        {
          "internalType": "string",
          "name": "",
          "type": "string"
        },
        {
          "internalType": "string",
          "name": "",
          "type": "string"
        },
        {
          "internalType": "string",
          "name": "",
          "type": "string"
        },
        {
          "internalType": "string",
          "name": "",
          "type": "string"
        },
        {
          "internalType": "string",
          "name": "",
          "type": "string"
        },
        {
          "internalType": "uint256",
          "name": "",
          "type": "uint256"
        }
      ],
      "stateMutability": "view",
      "type": "function",
      "constant": true
    },
    {
      "inputs": [
        {
          "internalType": "string",
          "name": "_title",
          "type": "string"
        },
        {
          "internalType": "string",
          "name": "_description",
          "type": "string"
        },
        {
          "internalType": "uint256",
          "name": "_salary",
          "type": "uint256"
        }
      ],
      "name": "addJob",
      "outputs": [],
      "stateMutability": "nonpayable",
      "type": "function"
    },
    {
      "inputs": [
        {
          "internalType": "uint256",
          "name": "_id",
          "type": "uint256"
        }
      ],
      "name": "getJobDetails",
      "outputs": [
        {
          "internalType": "uint256",
          "name": "",
          "type": "uint256"
        },
        {
          "internalType": "string",
          "name": "",
          "type": "string"
        },
        {
          "internalType": "string",
          "name": "",
          "type": "string"
        },
        {
          "internalType": "uint256",
          "name": "",
          "type": "uint256"
        },
        {
          "internalType": "bool",
          "name": "",
          "type": "bool"
        }
      ],
      "stateMutability": "view",
      "type": "function",
      "constant": true
    },
    {
      "inputs": [
        {
          "internalType": "uint256",
          "name": "_jobId",
          "type": "uint256"
        },
        {
          "internalType": "uint256",
          "name": "_applicantId",
          "type": "uint256"
        }
      ],
      "name": "applyForJob",
      "outputs": [],
      "stateMutability": "nonpayable",
      "type": "function"
    },
    {
      "inputs": [
        {
          "internalType": "uint256",
          "name": "_applicantId",
          "type": "uint256"
        },
        {
          "internalType": "uint256",
          "name": "_rating",
          "type": "uint256"
        }
      ],
      "name": "rateApplicant",
      "outputs": [],
      "stateMutability": "nonpayable",
      "type": "function"
    },
    {
      "inputs": [
        {
          "internalType": "uint256",
          "name": "_applicantId",
          "type": "uint256"
        }
      ],
      "name": "getApplicantRating",
      "outputs": [
        {
          "internalType": "uint256",
          "name": "",
          "type": "uint256"
        }
      ],
      "stateMutability": "view",
      "type": "function",
      "constant": true
    }
  ],
  "bytecode": "0x608060405234801561001057600080fd5b50336000806101000a81548173ffffffffffffffffffffffffffffffffffffffff021916908373ffffffffffffffffffffffffffffffffffffffff16021790555060006001819055506000600281905550611d84806100706000396000f3fe608060405234801561001057600080fd5b50600436106100cf5760003560e01c806363de53231161008c578063bfc7a66e11610066578063bfc7a66e1461025e578063edee16991461027a578063f851a44014610298578063fa6b104a146102b6576100cf565b806363de5323146101d65780638798a47b1461020c5780638a273e7414610242576100cf565b8063180aedf3146100d45780631ace87b31461010857806325bc89d9146101265780632dd5afd5146101565780634cac35c614610186578063558e0a7b146101ba575b600080fd5b6100ee60048036038101906100e9919061117f565b6102d2565b6040516100ff959493929190611266565b60405180910390f35b610110610425565b60405161011d91906112c7565b60405180910390f35b610140600480360381019061013b9190611340565b61042b565b60405161014d91906112c7565b60405180910390f35b610170600480360381019061016b919061117f565b610450565b60405161017d91906112c7565b60405180910390f35b6101a0600480360381019061019b919061117f565b610470565b6040516101b1959493929190611266565b60405180910390f35b6101d460048036038101906101cf91906114b5565b61061a565b005b6101f060048036038101906101eb919061117f565b610709565b60405161020397969594939291906115bc565b60405180910390f35b6102266004803603810190610221919061117f565b6109f3565b60405161023997969594939291906115bc565b60405180910390f35b61025c6004803603810190610257919061164e565b610d4b565b005b6102786004803603810190610273919061164e565b610ed0565b005b610282610fbc565b60405161028f91906112c7565b60405180910390f35b6102a0610fc2565b6040516102ad919061169d565b60405180910390f35b6102d060048036038101906102cb91906116b8565b610fe6565b005b60046020528060005260406000206000915090508060000154908060010180546102fb90611772565b80601f016020809104026020016040519081016040528092919081815260200182805461032790611772565b80156103745780601f1061034957610100808354040283529160200191610374565b820191906000526020600020905b81548152906001019060200180831161035757829003601f168201915b50505050509080600201805461038990611772565b80601f01602080910402602001604051908101604052809291908181526020018280546103b590611772565b80156104025780601f106103d757610100808354040283529160200191610402565b820191906000526020600020905b8154815290600101906020018083116103e557829003601f168201915b5050505050908060030154908060040160009054906101000a900460ff16905085565b60025481565b6005602052816000526040600020602052806000526040600020600091509150505481565b600060036000838152602001908152602001600020600601549050919050565b60006060806000806000600460008881526020019081526020016000206040518060a0016040529081600082015481526020016001820180546104b290611772565b80601f01602080910402602001604051908101604052809291908181526020018280546104de90611772565b801561052b5780601f106105005761010080835404028352916020019161052b565b820191906000526020600020905b81548152906001019060200180831161050e57829003601f168201915b5050505050815260200160028201805461054490611772565b80601f016020809104026020016040519081016040528092919081815260200182805461057090611772565b80156105bd5780601f10610592576101008083540402835291602001916105bd565b820191906000526020600020905b8154815290600101906020018083116105a057829003601f168201915b50505050508152602001600382015481526020016004820160009054906101000a900460ff161515151581525050905080600001518160200151826040015183606001518460800151955095509550955095505091939590929450565b6001600081548092919061062d906117d2565b91905055506040518060e001604052806001548152602001868152602001858152602001848152602001838152602001828152602001600081525060036000600154815260200190815260200160002060008201518160000155602082015181600101908161069c91906119c6565b5060408201518160020190816106b291906119c6565b5060608201518160030190816106c891906119c6565b5060808201518160040190816106de91906119c6565b5060a08201518160050190816106f491906119c6565b5060c082015181600601559050505050505050565b600360205280600052604060002060009150905080600001549080600101805461073290611772565b80601f016020809104026020016040519081016040528092919081815260200182805461075e90611772565b80156107ab5780601f10610780576101008083540402835291602001916107ab565b820191906000526020600020905b81548152906001019060200180831161078e57829003601f168201915b5050505050908060020180546107c090611772565b80601f01602080910402602001604051908101604052809291908181526020018280546107ec90611772565b80156108395780601f1061080e57610100808354040283529160200191610839565b820191906000526020600020905b81548152906001019060200180831161081c57829003601f168201915b50505050509080600301805461084e90611772565b80601f016020809104026020016040519081016040528092919081815260200182805461087a90611772565b80156108c75780601f1061089c576101008083540402835291602001916108c7565b820191906000526020600020905b8154815290600101906020018083116108aa57829003601f168201915b5050505050908060040180546108dc90611772565b80601f016020809104026020016040519081016040528092919081815260200182805461090890611772565b80156109555780601f1061092a57610100808354040283529160200191610955565b820191906000526020600020905b81548152906001019060200180831161093857829003601f168201915b50505050509080600501805461096a90611772565b80601f016020809104026020016040519081016040528092919081815260200182805461099690611772565b80156109e35780601f106109b8576101008083540402835291602001916109e3565b820191906000526020600020905b8154815290600101906020018083116109c657829003601f168201915b5050505050908060060154905087565b60006060806060806060600080600360008a81526020019081526020016000206040518060e001604052908160008201548152602001600182018054610a3890611772565b80601f0160208091040260200160405190810160405280929190818152602001828054610a6490611772565b8015610ab15780601f10610a8657610100808354040283529160200191610ab1565b820191906000526020600020905b815481529060010190602001808311610a9457829003601f168201915b50505050508152602001600282018054610aca90611772565b80601f0160208091040260200160405190810160405280929190818152602001828054610af690611772565b8015610b435780601f10610b1857610100808354040283529160200191610b43565b820191906000526020600020905b815481529060010190602001808311610b2657829003601f168201915b50505050508152602001600382018054610b5c90611772565b80601f0160208091040260200160405190810160405280929190818152602001828054610b8890611772565b8015610bd55780601f10610baa57610100808354040283529160200191610bd5565b820191906000526020600020905b815481529060010190602001808311610bb857829003601f168201915b50505050508152602001600482018054610bee90611772565b80601f0160208091040260200160405190810160405280929190818152602001828054610c1a90611772565b8015610c675780601f10610c3c57610100808354040283529160200191610c67565b820191906000526020600020905b815481529060010190602001808311610c4a57829003601f168201915b50505050508152602001600582018054610c8090611772565b80601f0160208091040260200160405190810160405280929190818152602001828054610cac90611772565b8015610cf95780601f10610cce57610100808354040283529160200191610cf9565b820191906000526020600020905b815481529060010190602001808311610cdc57829003601f168201915b505050505081526020016006820154815250509050806000015181602001518260400151836060015184608001518560a001518660c00151975097509750975097509750975050919395979092949650565b6000600560003373ffffffffffffffffffffffffffffffffffffffff1673ffffffffffffffffffffffffffffffffffffffff16815260200190815260200160002060008481526020019081526020016000205414610dde576040517f08c379a0000000000000000000000000000000000000000000000000000000008152600401610dd590611b0a565b60405180910390fd5b60018110158015610df0575060058111155b610e2f576040517f08c379a0000000000000000000000000000000000000000000000000000000008152600401610e2690611b9c565b60405180910390fd5b6002600360008481526020019081526020016000206006015482610e539190611bbc565b610e5d9190611c1f565b600360008481526020019081526020016000206006018190555080600560003373ffffffffffffffffffffffffffffffffffffffff1673ffffffffffffffffffffffffffffffffffffffff1681526020019081526020016000206000848152602001908152602001600020819055505050565b6004600083815260200190815260200160002060040160009054906101000a900460ff16610f33576040517f08c379a0000000000000000000000000000000000000000000000000000000008152600401610f2a90611c9c565b60405180910390fd5b60006004600084815260200190815260200160002060040160006101000a81548160ff0219169083151502179055506000600560003373ffffffffffffffffffffffffffffffffffffffff1673ffffffffffffffffffffffffffffffffffffffff1681526020019081526020016000206000838152602001908152602001600020819055505050565b60015481565b60008054906101000a900473ffffffffffffffffffffffffffffffffffffffff1681565b60008054906101000a900473ffffffffffffffffffffffffffffffffffffffff1673ffffffffffffffffffffffffffffffffffffffff163373ffffffffffffffffffffffffffffffffffffffff1614611074576040517f08c379a000000000000000000000000000000000000000000000000000000000815260040161106b90611d2e565b60405180910390fd5b60026000815480929190611087906117d2565b91905055506040518060a001604052806002548152602001848152602001838152602001828152602001600115158152506004600060025481526020019081526020016000206000820151816000015560208201518160010190816110ec91906119c6565b50604082015181600201908161110291906119c6565b506060820151816003015560808201518160040160006101000a81548160ff021916908315150217905550905050505050565b6000604051905090565b600080fd5b600080fd5b6000819050919050565b61115c81611149565b811461116757600080fd5b50565b60008135905061117981611153565b92915050565b6000602082840312156111955761119461113f565b5b60006111a38482850161116a565b91505092915050565b6111b581611149565b82525050565b600081519050919050565b600082825260208201905092915050565b60005b838110156111f55780820151818401526020810190506111da565b60008484015250505050565b6000601f19601f8301169050919050565b600061121d826111bb565b61122781856111c6565b93506112378185602086016111d7565b61124081611201565b840191505092915050565b60008115159050919050565b6112608161124b565b82525050565b600060a08201905061127b60008301886111ac565b818103602083015261128d8187611212565b905081810360408301526112a18186611212565b90506112b060608301856111ac565b6112bd6080830184611257565b9695505050505050565b60006020820190506112dc60008301846111ac565b92915050565b600073ffffffffffffffffffffffffffffffffffffffff82169050919050565b600061130d826112e2565b9050919050565b61131d81611302565b811461132857600080fd5b50565b60008135905061133a81611314565b92915050565b600080604083850312156113575761135661113f565b5b60006113658582860161132b565b92505060206113768582860161116a565b9150509250929050565b600080fd5b600080fd5b7f4e487b7100000000000000000000000000000000000000000000000000000000600052604160045260246000fd5b6113c282611201565b810181811067ffffffffffffffff821117156113e1576113e061138a565b5b80604052505050565b60006113f4611135565b905061140082826113b9565b919050565b600067ffffffffffffffff8211156114205761141f61138a565b5b61142982611201565b9050602081019050919050565b82818337600083830152505050565b600061145861145384611405565b6113ea565b90508281526020810184848401111561147457611473611385565b5b61147f848285611436565b509392505050565b600082601f83011261149c5761149b611380565b5b81356114ac848260208601611445565b91505092915050565b600080600080600060a086880312156114d1576114d061113f565b5b600086013567ffffffffffffffff8111156114ef576114ee611144565b5b6114fb88828901611487565b955050602086013567ffffffffffffffff81111561151c5761151b611144565b5b61152888828901611487565b945050604086013567ffffffffffffffff81111561154957611548611144565b5b61155588828901611487565b935050606086013567ffffffffffffffff81111561157657611575611144565b5b61158288828901611487565b925050608086013567ffffffffffffffff8111156115a3576115a2611144565b5b6115af88828901611487565b9150509295509295909350565b600060e0820190506115d1600083018a6111ac565b81810360208301526115e38189611212565b905081810360408301526115f78188611212565b9050818103606083015261160b8187611212565b9050818103608083015261161f8186611212565b905081810360a08301526116338185611212565b905061164260c08301846111ac565b98975050505050505050565b600080604083850312156116655761166461113f565b5b60006116738582860161116a565b92505060206116848582860161116a565b9150509250929050565b61169781611302565b82525050565b60006020820190506116b2600083018461168e565b92915050565b6000806000606084860312156116d1576116d061113f565b5b600084013567ffffffffffffffff8111156116ef576116ee611144565b5b6116fb86828701611487565b935050602084013567ffffffffffffffff81111561171c5761171b611144565b5b61172886828701611487565b92505060406117398682870161116a565b9150509250925092565b7f4e487b7100000000000000000000000000000000000000000000000000000000600052602260045260246000fd5b6000600282049050600182168061178a57607f821691505b60208210810361179d5761179c611743565b5b50919050565b7f4e487b7100000000000000000000000000000000000000000000000000000000600052601160045260246000fd5b60006117dd82611149565b91507fffffffffffffffffffffffffffffffffffffffffffffffffffffffffffffffff820361180f5761180e6117a3565b5b600182019050919050565b60008190508160005260206000209050919050565b60006020601f8301049050919050565b600082821b905092915050565b60006008830261187c7fffffffffffffffffffffffffffffffffffffffffffffffffffffffffffffffff8261183f565b611886868361183f565b95508019841693508086168417925050509392505050565b6000819050919050565b60006118c36118be6118b984611149565b61189e565b611149565b9050919050565b6000819050919050565b6118dd836118a8565b6118f16118e9826118ca565b84845461184c565b825550505050565b600090565b6119066118f9565b6119118184846118d4565b505050565b5b818110156119355761192a6000826118fe565b600181019050611917565b5050565b601f82111561197a5761194b8161181a565b6119548461182f565b81016020851015611963578190505b61197761196f8561182f565b830182611916565b50505b505050565b600082821c905092915050565b600061199d6000198460080261197f565b1980831691505092915050565b60006119b6838361198c565b9150826002028217905092915050565b6119cf826111bb565b67ffffffffffffffff8111156119e8576119e761138a565b5b6119f28254611772565b6119fd828285611939565b600060209050601f831160018114611a305760008415611a1e578287015190505b611a2885826119aa565b865550611a90565b601f198416611a3e8661181a565b60005b82811015611a6657848901518255600182019150602085019450602081019050611a41565b86831015611a835784890151611a7f601f89168261198c565b8355505b6001600288020188555050505b505050505050565b7f596f75206861766520616c72656164792072617465642074686973206170706c60008201527f6963616e742e0000000000000000000000000000000000000000000000000000602082015250565b6000611af46026836111c6565b9150611aff82611a98565b604082019050919050565b60006020820190508181036000830152611b2381611ae7565b9050919050565b7f496e76616c696420726174696e672e20526174696e67206d757374206265206260008201527f65747765656e203120616e6420352e0000000000000000000000000000000000602082015250565b6000611b86602f836111c6565b9150611b9182611b2a565b604082019050919050565b60006020820190508181036000830152611bb581611b79565b9050919050565b6000611bc782611149565b9150611bd283611149565b9250828201905080821115611bea57611be96117a3565b5b92915050565b7f4e487b7100000000000000000000000000000000000000000000000000000000600052601260045260246000fd5b6000611c2a82611149565b9150611c3583611149565b925082611c4557611c44611bf0565b5b828204905092915050565b7f4a6f62206e6f7420617661696c61626c652e0000000000000000000000000000600082015250565b6000611c866012836111c6565b9150611c9182611c50565b602082019050919050565b60006020820190508181036000830152611cb581611c79565b9050919050565b7f4f6e6c792061646d696e2063616e20706572666f726d2074686973206163746960008201527f6f6e2e0000000000000000000000000000000000000000000000000000000000602082015250565b6000611d186023836111c6565b9150611d2382611cbc565b604082019050919050565b60006020820190508181036000830152611d4781611d0b565b905091905056fea2646970667358221220ef1e70c578ac19358ac1bf3cdc1295870331cee02ec50d04d0014a5fbb63419164736f6c63430008120033",
  "immutableReferences": {},
  "source": "// SPDX-License-Identifier: MIT\r\n\r\n/* This smart contract implements a job portal system which connects unskilled and unorganized\r\n migrant workers with job providers. It can eliminate their exploitation by middlemen, \r\n such as unrecognized agents and contractors. A worker can register with the portal by \r\n creating their profile and uploading labor history, skills, availability, and other \r\n personal details. Then, a job provider can directly connect with the worker.\r\n\r\n */\r\n\r\npragma solidity ^0.8.18;\r\n\r\ncontract MigrantWorkerJobPortal {\r\n    \r\n    address public admin;\r\n    uint256 public totalApplicants;\r\n    uint256 public totalJobs;\r\n    \r\n    constructor() {\r\n        admin = msg.sender;\r\n        totalApplicants = 0;\r\n        totalJobs = 0;\r\n    }\r\n    \r\n    struct Applicant {\r\n        uint256 id;\r\n        string name;\r\n        string laborHistory;\r\n        string skills;\r\n        string availability;\r\n        string personalDetails;\r\n        uint256 rating;\r\n    }\r\n    \r\n    struct Job {\r\n        uint256 id;\r\n        string title;\r\n        string description;\r\n        uint256 salary;\r\n        bool isAvailable;\r\n    }\r\n    \r\n    mapping(uint256 => Applicant) public applicants;\r\n    mapping(uint256 => Job) public jobs;\r\n    mapping(address => mapping(uint256 => uint256)) public applicantRatings;\r\n    \r\n    modifier onlyAdmin() {\r\n        require(msg.sender == admin, \"Only admin can perform this action.\");\r\n        _;\r\n    }\r\n    \r\n    function addApplicant(string memory _name, string memory _laborHistory, string memory _skills, string memory _availability, string memory _personalDetails) public {\r\n        totalApplicants++;\r\n        applicants[totalApplicants] = Applicant(totalApplicants, _name, _laborHistory, _skills, _availability, _personalDetails, 0);\r\n    }\r\n    \r\n    function getApplicantDetails(uint256 _id) public view returns (uint256, string memory, string memory, string memory, string memory, string memory, uint256) {\r\n        Applicant memory applicant = applicants[_id];\r\n        return (applicant.id, applicant.name, applicant.laborHistory, applicant.skills, applicant.availability, applicant.personalDetails, applicant.rating);\r\n    }\r\n    \r\n    function addJob(string memory _title, string memory _description, uint256 _salary) public onlyAdmin {\r\n        totalJobs++;\r\n        jobs[totalJobs] = Job(totalJobs, _title, _description, _salary, true);\r\n    }\r\n    \r\n    function getJobDetails(uint256 _id) public view returns (uint256, string memory, string memory, uint256, bool) {\r\n        Job memory job = jobs[_id];\r\n        return (job.id, job.title, job.description, job.salary, job.isAvailable);\r\n    }\r\n    \r\n    function applyForJob(uint256 _jobId, uint256 _applicantId) public {\r\n        require(jobs[_jobId].isAvailable, \"Job not available.\");\r\n        jobs[_jobId].isAvailable = false;\r\n        applicantRatings[msg.sender][_applicantId] = 0;\r\n    }\r\n    \r\n    function rateApplicant(uint256 _applicantId, uint256 _rating) public {\r\n        require(applicantRatings[msg.sender][_applicantId] == 0, \"You have already rated this applicant.\");\r\n        require(_rating >= 1 && _rating <= 5, \"Invalid rating. Rating must be between 1 and 5.\");\r\n        applicants[_applicantId].rating = (_rating + applicants[_applicantId].rating) / 2;\r\n        applicantRatings[msg.sender][_applicantId] = _rating;\r\n    }\r\n    \r\n    function getApplicantRating(uint256 _applicantId) public view returns (uint256) {\r\n        return applicants[_applicantId].rating;\r\n    }\r\n    \r\n}\r\n",
  "sourcePath": "D:\\2) Web3\\1) Ethereum Smart contracts\\20) Job Portal for unorganised sector workers\\contracts\\JobPortal.sol",
  "compiler": {
    "name": "solc",
    "version": "0.8.18+commit.87f61d96.Emscripten.clang"
  },
  "schemaVersion": "3.4.11",
  "updatedAt": "2023-03-21T18:14:15.263Z",
  "networkType": "ethereum",
  "devdoc": {
    "kind": "dev",
    "methods": {},
    "version": 1
  },
  "userdoc": {
    "kind": "user",
    "methods": {},
    "version": 1
  }
}