{
  "contractName": "ReputationSystem",
  "abi": [
    {
      "inputs": [
        {
          "internalType": "uint256",
          "name": "",
          "type": "uint256"
        },
        {
          "internalType": "uint256",
          "name": "",
          "type": "uint256"
        }
      ],
      "name": "projectContributions",
      "outputs": [
        {
          "internalType": "address",
          "name": "",
          "type": "address"
        }
      ],
      "stateMutability": "view",
      "type": "function",
      "constant": true
    },
    {
      "inputs": [
        {
          "internalType": "address",
          "name": "",
          "type": "address"
        }
      ],
      "name": "userPoints",
      "outputs": [
        {
          "internalType": "uint256",
          "name": "",
          "type": "uint256"
        }
      ],
      "stateMutability": "view",
      "type": "function",
      "constant": true
    },
    {
      "inputs": [
        {
          "internalType": "uint256",
          "name": "projectId",
          "type": "uint256"
        }
      ],
      "name": "contribute",
      "outputs": [],
      "stateMutability": "nonpayable",
      "type": "function"
    },
    {
      "inputs": [
        {
          "internalType": "uint256",
          "name": "projectId",
          "type": "uint256"
        }
      ],
      "name": "getContributors",
      "outputs": [
        {
          "internalType": "address[]",
          "name": "",
          "type": "address[]"
        }
      ],
      "stateMutability": "view",
      "type": "function",
      "constant": true
    }
  ],
  "bytecode": "0x608060405234801561001057600080fd5b506105e4806100206000396000f3fe608060405234801561001057600080fd5b506004361061004c5760003560e01c80633c1ab00f146100515780638f9b6b4114610081578063c1cbbca7146100b1578063f50ddbc7146100cd575b600080fd5b61006b6004803603810190610066919061030b565b6100fd565b6040516100789190610428565b60405180910390f35b61009b6004803603810190610096919061044a565b61019e565b6040516100a89190610499565b60405180910390f35b6100cb60048036038101906100c6919061030b565b6101ec565b005b6100e760048036038101906100e291906104e0565b6102b8565b6040516100f4919061051c565b60405180910390f35b60606001600083815260200190815260200160002080548060200260200160405190810160405280929190818152602001828054801561019257602002820191906000526020600020905b8160009054906101000a900473ffffffffffffffffffffffffffffffffffffffff1673ffffffffffffffffffffffffffffffffffffffff1681526020019060010190808311610148575b50505050509050919050565b600160205281600052604060002081815481106101ba57600080fd5b906000526020600020016000915091509054906101000a900473ffffffffffffffffffffffffffffffffffffffff1681565b60016000828152602001908152602001600020339080600181540180825580915050600190039060005260206000200160009091909190916101000a81548173ffffffffffffffffffffffffffffffffffffffff021916908373ffffffffffffffffffffffffffffffffffffffff160217905550600260003373ffffffffffffffffffffffffffffffffffffffff1673ffffffffffffffffffffffffffffffffffffffff16815260200190815260200160002060008154809291906102b090610566565b919050555050565b60026020528060005260406000206000915090505481565b600080fd5b6000819050919050565b6102e8816102d5565b81146102f357600080fd5b50565b600081359050610305816102df565b92915050565b600060208284031215610321576103206102d0565b5b600061032f848285016102f6565b91505092915050565b600081519050919050565b600082825260208201905092915050565b6000819050602082019050919050565b600073ffffffffffffffffffffffffffffffffffffffff82169050919050565b600061038f82610364565b9050919050565b61039f81610384565b82525050565b60006103b18383610396565b60208301905092915050565b6000602082019050919050565b60006103d582610338565b6103df8185610343565b93506103ea83610354565b8060005b8381101561041b57815161040288826103a5565b975061040d836103bd565b9250506001810190506103ee565b5085935050505092915050565b6000602082019050818103600083015261044281846103ca565b905092915050565b60008060408385031215610461576104606102d0565b5b600061046f858286016102f6565b9250506020610480858286016102f6565b9150509250929050565b61049381610384565b82525050565b60006020820190506104ae600083018461048a565b92915050565b6104bd81610384565b81146104c857600080fd5b50565b6000813590506104da816104b4565b92915050565b6000602082840312156104f6576104f56102d0565b5b6000610504848285016104cb565b91505092915050565b610516816102d5565b82525050565b6000602082019050610531600083018461050d565b92915050565b7f4e487b7100000000000000000000000000000000000000000000000000000000600052601160045260246000fd5b6000610571826102d5565b91507fffffffffffffffffffffffffffffffffffffffffffffffffffffffffffffffff82036105a3576105a2610537565b5b60018201905091905056fea2646970667358221220aedbf42eadd44706d5dec3ef67c83ab007bdb4fb0566f739d5880c675f9e334564736f6c63430008120033",
  "immutableReferences": {},
  "source": "//SPDX-License-Identifier:GPL-3.0\r\n\r\n/*This smart contract creates a simple reputation system based on contributions done by a contributor to various projects.\r\nFor the sake of the project, the weight of each project has been kept as one(1). However in real scenario, the weightage may be \r\ndifferent for different projects.\r\n\r\n*/\r\n\r\npragma solidity ^0.8.18;\r\n\r\ncontract ReputationSystem {\r\n\r\n    address[] contributors;\r\n    \r\n    mapping (uint256 => address[]) public projectContributions;\r\n    mapping (address => uint256) public userPoints;\r\n\r\n    function contribute(uint256 projectId) public {\r\n        projectContributions[projectId].push(msg.sender);\r\n        userPoints[msg.sender] ++;\r\n    }\r\n\r\n    function getContributors(uint256 projectId) public view returns (address[] memory) {\r\n        return projectContributions[projectId];\r\n    }\r\n\r\n}\r\n",
  "sourcePath": "D:\\2) Web3\\1) Ethereum Smart contracts\\15) Reputation points based on project contribution\\contracts\\Reputation.sol",
  "compiler": {
    "name": "solc",
    "version": "0.8.18+commit.87f61d96.Emscripten.clang"
  },
  "schemaVersion": "3.4.11",
  "updatedAt": "2023-03-17T18:24:38.618Z",
  "networkType": "ethereum",
  "devdoc": {
    "kind": "dev",
    "methods": {},
    "version": 1
  },
  "userdoc": {
    "kind": "user",
    "methods": {},
    "version": 1
  }
}