{
  "contractName": "WithdrawFunds",
  "abi": [
    {
      "inputs": [],
      "stateMutability": "payable",
      "type": "constructor",
      "payable": true
    },
    {
      "inputs": [
        {
          "internalType": "address",
          "name": "",
          "type": "address"
        }
      ],
      "name": "authorisedList",
      "outputs": [
        {
          "internalType": "bool",
          "name": "",
          "type": "bool"
        }
      ],
      "stateMutability": "view",
      "type": "function",
      "constant": true
    },
    {
      "inputs": [],
      "name": "owner",
      "outputs": [
        {
          "internalType": "address",
          "name": "",
          "type": "address"
        }
      ],
      "stateMutability": "view",
      "type": "function",
      "constant": true
    },
    {
      "inputs": [
        {
          "internalType": "address",
          "name": "_address",
          "type": "address"
        }
      ],
      "name": "authorize",
      "outputs": [],
      "stateMutability": "nonpayable",
      "type": "function"
    },
    {
      "inputs": [
        {
          "internalType": "uint256",
          "name": "_amount",
          "type": "uint256"
        }
      ],
      "name": "withdraw",
      "outputs": [],
      "stateMutability": "nonpayable",
      "type": "function"
    },
    {
      "inputs": [
        {
          "internalType": "address",
          "name": "_address",
          "type": "address"
        }
      ],
      "name": "checkBalance",
      "outputs": [
        {
          "internalType": "uint256",
          "name": "",
          "type": "uint256"
        }
      ],
      "stateMutability": "view",
      "type": "function",
      "constant": true
    }
  ],
  "bytecode": "0x6080604052336000806101000a81548173ffffffffffffffffffffffffffffffffffffffff021916908373ffffffffffffffffffffffffffffffffffffffff1602179055506106ac806100536000396000f3fe608060405234801561001057600080fd5b50600436106100575760003560e01c80632e1a7d4d1461005c5780635f515226146100785780638da5cb5b146100a8578063b6a5d7de146100c6578063f3a2e894146100e2575b600080fd5b610076600480360381019061007191906103b9565b610112565b005b610092600480360381019061008d9190610444565b610231565b60405161009f9190610480565b60405180910390f35b6100b0610252565b6040516100bd91906104aa565b60405180910390f35b6100e060048036038101906100db9190610444565b610276565b005b6100fc60048036038101906100f79190610444565b61035e565b60405161010991906104e0565b60405180910390f35b804711610154576040517f08c379a000000000000000000000000000000000000000000000000000000000815260040161014b90610558565b60405180910390fd5b60011515600160003373ffffffffffffffffffffffffffffffffffffffff1673ffffffffffffffffffffffffffffffffffffffff16815260200190815260200160002060009054906101000a900460ff161515146101e7576040517f08c379a00000000000000000000000000000000000000000000000000000000081526004016101de906105ea565b60405180910390fd5b3373ffffffffffffffffffffffffffffffffffffffff166108fc829081150290604051600060405180830381858888f1935050505015801561022d573d6000803e3d6000fd5b5050565b60008173ffffffffffffffffffffffffffffffffffffffff16319050919050565b60008054906101000a900473ffffffffffffffffffffffffffffffffffffffff1681565b60008054906101000a900473ffffffffffffffffffffffffffffffffffffffff1673ffffffffffffffffffffffffffffffffffffffff163373ffffffffffffffffffffffffffffffffffffffff1614610304576040517f08c379a00000000000000000000000000000000000000000000000000000000081526004016102fb90610656565b60405180910390fd5b60018060008373ffffffffffffffffffffffffffffffffffffffff1673ffffffffffffffffffffffffffffffffffffffff16815260200190815260200160002060006101000a81548160ff02191690831515021790555050565b60016020528060005260406000206000915054906101000a900460ff1681565b600080fd5b6000819050919050565b61039681610383565b81146103a157600080fd5b50565b6000813590506103b38161038d565b92915050565b6000602082840312156103cf576103ce61037e565b5b60006103dd848285016103a4565b91505092915050565b600073ffffffffffffffffffffffffffffffffffffffff82169050919050565b6000610411826103e6565b9050919050565b61042181610406565b811461042c57600080fd5b50565b60008135905061043e81610418565b92915050565b60006020828403121561045a5761045961037e565b5b60006104688482850161042f565b91505092915050565b61047a81610383565b82525050565b60006020820190506104956000830184610471565b92915050565b6104a481610406565b82525050565b60006020820190506104bf600083018461049b565b92915050565b60008115159050919050565b6104da816104c5565b82525050565b60006020820190506104f560008301846104d1565b92915050565b600082825260208201905092915050565b7f496e73756666696369656e742062616c616e6365000000000000000000000000600082015250565b60006105426014836104fb565b915061054d8261050c565b602082019050919050565b6000602082019050818103600083015261057181610535565b9050919050565b7f596f7520617265206e6f7420617574686f72697a656420746f2077697468647260008201527f6177000000000000000000000000000000000000000000000000000000000000602082015250565b60006105d46022836104fb565b91506105df82610578565b604082019050919050565b60006020820190508181036000830152610603816105c7565b9050919050565b7f20596f7520617265206e6f7420746865206f776e657200000000000000000000600082015250565b60006106406016836104fb565b915061064b8261060a565b602082019050919050565b6000602082019050818103600083015261066f81610633565b905091905056fea2646970667358221220fc1d830156b29e9518286799661f6e99e4562048a0b4a5d585acb60e0712e28f64736f6c63430008120033",
  "immutableReferences": {},
  "source": "//SPDX-License-Identifier:GPL-3.0\r\n\r\npragma solidity ^0.8.0;\r\n\r\n/*This is a very basic smart contract which allows users to withdraw funds from the smart contract. The person \r\nwithdrawing the fund should be authorized by the owner of the contract before attempting to withdraw funds. \r\nThe smart contract throws error if the smart contract doesnot have sufficient fund. \r\n*/\r\n\r\ncontract WithdrawFunds {\r\n    address public owner;\r\n    mapping (address=>bool) public authorisedList;\r\n    \r\n\r\n    constructor() payable {\r\n        owner=msg.sender;\r\n    }\r\n\r\n    modifier onlyOwner {\r\n        require(msg.sender==owner, \" You are not the owner\");\r\n        _;\r\n    }\r\n\r\n    function authorize(address _address) public onlyOwner {\r\n        authorisedList[_address]=true;        \r\n    }\r\n\r\n    function withdraw(uint256 _amount) public {\r\n        require(address(this).balance>_amount,\"Insufficient balance\");\r\n        require(authorisedList[msg.sender]==true,\"You are not authorized to withdraw\");\r\n        payable(msg.sender).transfer(_amount);\r\n\r\n    }\r\n\r\n    function checkBalance(address _address) public view returns(uint256) {\r\n        return(_address.balance);\r\n    }\r\n}",
  "sourcePath": "D:\\2) Web3\\3) My projects\\1) Ethereum Smart contracts\\6) Withdraw funds from a smart contract\\contracts\\WithdrawFunds.sol",
  "compiler": {
    "name": "solc",
    "version": "0.8.18+commit.87f61d96.Emscripten.clang"
  },
  "schemaVersion": "3.4.11",
  "updatedAt": "2023-03-09T20:06:00.588Z",
  "networkType": "ethereum",
  "devdoc": {
    "kind": "dev",
    "methods": {},
    "version": 1
  },
  "userdoc": {
    "kind": "user",
    "methods": {},
    "version": 1
  }
}