{
  "contractName": "DAO",
  "abi": [
    {
      "inputs": [
        {
          "internalType": "uint256",
          "name": "_deadline",
          "type": "uint256"
        },
        {
          "internalType": "uint256",
          "name": "_totalVoters",
          "type": "uint256"
        }
      ],
      "stateMutability": "nonpayable",
      "type": "constructor"
    },
    {
      "anonymous": false,
      "inputs": [
        {
          "indexed": false,
          "internalType": "uint256",
          "name": "proposalId",
          "type": "uint256"
        },
        {
          "indexed": false,
          "internalType": "string",
          "name": "description",
          "type": "string"
        }
      ],
      "name": "ProposalAdded",
      "type": "event"
    },
    {
      "anonymous": false,
      "inputs": [
        {
          "indexed": false,
          "internalType": "uint256",
          "name": "proposalId",
          "type": "uint256"
        }
      ],
      "name": "ProposalExecuted",
      "type": "event"
    },
    {
      "anonymous": false,
      "inputs": [
        {
          "indexed": false,
          "internalType": "uint256",
          "name": "proposalId",
          "type": "uint256"
        },
        {
          "indexed": false,
          "internalType": "address",
          "name": "voter",
          "type": "address"
        }
      ],
      "name": "Voted",
      "type": "event"
    },
    {
      "inputs": [],
      "name": "deadline",
      "outputs": [
        {
          "internalType": "uint256",
          "name": "",
          "type": "uint256"
        }
      ],
      "stateMutability": "view",
      "type": "function",
      "constant": true
    },
    {
      "inputs": [],
      "name": "owner",
      "outputs": [
        {
          "internalType": "address",
          "name": "",
          "type": "address"
        }
      ],
      "stateMutability": "view",
      "type": "function",
      "constant": true
    },
    {
      "inputs": [
        {
          "internalType": "uint256",
          "name": "",
          "type": "uint256"
        }
      ],
      "name": "proposals",
      "outputs": [
        {
          "internalType": "string",
          "name": "description",
          "type": "string"
        },
        {
          "internalType": "uint256",
          "name": "voteCount",
          "type": "uint256"
        },
        {
          "internalType": "bool",
          "name": "executed",
          "type": "bool"
        },
        {
          "internalType": "uint256",
          "name": "id",
          "type": "uint256"
        }
      ],
      "stateMutability": "view",
      "type": "function",
      "constant": true
    },
    {
      "inputs": [],
      "name": "quorum",
      "outputs": [
        {
          "internalType": "uint256",
          "name": "",
          "type": "uint256"
        }
      ],
      "stateMutability": "view",
      "type": "function",
      "constant": true
    },
    {
      "inputs": [],
      "name": "totalVoters",
      "outputs": [
        {
          "internalType": "uint256",
          "name": "",
          "type": "uint256"
        }
      ],
      "stateMutability": "view",
      "type": "function",
      "constant": true
    },
    {
      "inputs": [
        {
          "internalType": "uint256",
          "name": "",
          "type": "uint256"
        },
        {
          "internalType": "address",
          "name": "",
          "type": "address"
        }
      ],
      "name": "voters",
      "outputs": [
        {
          "internalType": "bool",
          "name": "voted",
          "type": "bool"
        },
        {
          "internalType": "bool",
          "name": "exists",
          "type": "bool"
        }
      ],
      "stateMutability": "view",
      "type": "function",
      "constant": true
    },
    {
      "inputs": [
        {
          "internalType": "string",
          "name": "_description",
          "type": "string"
        }
      ],
      "name": "addProposal",
      "outputs": [],
      "stateMutability": "nonpayable",
      "type": "function"
    },
    {
      "inputs": [
        {
          "internalType": "uint256",
          "name": "_proposalId",
          "type": "uint256"
        }
      ],
      "name": "vote",
      "outputs": [],
      "stateMutability": "nonpayable",
      "type": "function"
    },
    {
      "inputs": [
        {
          "internalType": "uint256",
          "name": "_proposalId",
          "type": "uint256"
        }
      ],
      "name": "executeProposal",
      "outputs": [],
      "stateMutability": "nonpayable",
      "type": "function"
    },
    {
      "inputs": [],
      "name": "extendDeadline",
      "outputs": [],
      "stateMutability": "nonpayable",
      "type": "function"
    }
  ],
  "bytecode": "0x60806040523480156200001157600080fd5b5060405162001573380380620015738339818101604052810190620000379190620000f0565b336000806101000a81548173ffffffffffffffffffffffffffffffffffffffff021916908373ffffffffffffffffffffffffffffffffffffffff1602179055508160018190555080600281905550600160028262000096919062000195565b620000a29190620001cd565b600381905550505062000208565b600080fd5b6000819050919050565b620000ca81620000b5565b8114620000d657600080fd5b50565b600081519050620000ea81620000bf565b92915050565b600080604083850312156200010a5762000109620000b0565b5b60006200011a85828601620000d9565b92505060206200012d85828601620000d9565b9150509250929050565b7f4e487b7100000000000000000000000000000000000000000000000000000000600052601260045260246000fd5b7f4e487b7100000000000000000000000000000000000000000000000000000000600052601160045260246000fd5b6000620001a282620000b5565b9150620001af83620000b5565b925082620001c257620001c162000137565b5b828204905092915050565b6000620001da82620000b5565b9150620001e783620000b5565b925082820190508082111562000202576200020162000166565b5b92915050565b61135b80620002186000396000f3fe608060405234801561001057600080fd5b506004361061009e5760003560e01c80632fdae3c5116100665780632fdae3c51461014a5780635f5300ff1461016657806369ef5e0a146101845780638da5cb5b1461018e5780639e319063146101ac5761009e565b80630121b93f146100a3578063013cf08b146100bf5780630d61b519146100f25780631703a0181461010e57806329dcb0cf1461012c575b600080fd5b6100bd60048036038101906100b891906108ef565b6101dd565b005b6100d960048036038101906100d491906108ef565b610341565b6040516100e994939291906109d6565b60405180910390f35b61010c600480360381019061010791906108ef565b610416565b005b6101166105c3565b6040516101239190610a22565b60405180910390f35b6101346105c9565b6040516101419190610a22565b60405180910390f35b610164600480360381019061015f9190610b72565b6105cf565b005b61016e610740565b60405161017b9190610a22565b60405180910390f35b61018c610746565b005b610196610836565b6040516101a39190610bfc565b60405180910390f35b6101c660048036038101906101c19190610c43565b61085a565b6040516101d4929190610c83565b60405180910390f35b6000600482815481106101f3576101f2610cac565b5b9060005260206000209060040201905060006005600084815260200190815260200160002060003373ffffffffffffffffffffffffffffffffffffffff1673ffffffffffffffffffffffffffffffffffffffff1681526020019081526020016000209050600015158160000160019054906101000a900460ff161515146102af576040517f08c379a00000000000000000000000000000000000000000000000000000000081526004016102a690610d27565b60405180910390fd5b60018160000160006101000a81548160ff02191690831515021790555060018160000160016101000a81548160ff0219169083151502179055508160010160008154809291906102fe90610d76565b91905055507f030b0f8dcd86a031eddb071f91882edeac8173663ba775713b677b42b51be44b8333604051610334929190610dbe565b60405180910390a1505050565b6004818154811061035157600080fd5b906000526020600020906004020160009150905080600001805461037490610e16565b80601f01602080910402602001604051908101604052809291908181526020018280546103a090610e16565b80156103ed5780601f106103c2576101008083540402835291602001916103ed565b820191906000526020600020905b8154815290600101906020018083116103d057829003601f168201915b5050505050908060010154908060020160009054906101000a900460ff16908060030154905084565b60008054906101000a900473ffffffffffffffffffffffffffffffffffffffff1673ffffffffffffffffffffffffffffffffffffffff163373ffffffffffffffffffffffffffffffffffffffff16146104a4576040517f08c379a000000000000000000000000000000000000000000000000000000000815260040161049b90610eb9565b60405180910390fd5b6000600482815481106104ba576104b9610cac565b5b90600052602060002090600402019050600015158160020160009054906101000a900460ff16151514610522576040517f08c379a000000000000000000000000000000000000000000000000000000000815260040161051990610f4b565b60405180910390fd5b6003548160010154101561056b576040517f08c379a000000000000000000000000000000000000000000000000000000000815260040161056290610fb7565b60405180910390fd5b60018160020160006101000a81548160ff0219169083151502179055507f712ae1383f79ac853f8d882153778e0260ef8f03b504e2866e0593e04d2b291f826040516105b79190610a22565b60405180910390a15050565b60035481565b60015481565b60008054906101000a900473ffffffffffffffffffffffffffffffffffffffff1673ffffffffffffffffffffffffffffffffffffffff163373ffffffffffffffffffffffffffffffffffffffff161461065d576040517f08c379a000000000000000000000000000000000000000000000000000000000815260040161065490610eb9565b60405180910390fd5b60006004805490509050600460405180608001604052808481526020016000815260200160001515815260200183815250908060018154018082558091505060019003906000526020600020906004020160009091909190915060008201518160000190816106cc9190611183565b506020820151816001015560408201518160020160006101000a81548160ff0219169083151502179055506060820151816003015550507ff970aa486598017b8116c2beb18c50d4584ecbc3c688817f59b26796725f31bf8183604051610734929190611255565b60405180910390a15050565b60025481565b60008054906101000a900473ffffffffffffffffffffffffffffffffffffffff1673ffffffffffffffffffffffffffffffffffffffff163373ffffffffffffffffffffffffffffffffffffffff16146107d4576040517f08c379a00000000000000000000000000000000000000000000000000000000081526004016107cb90610eb9565b60405180910390fd5b6001544211610818576040517f08c379a000000000000000000000000000000000000000000000000000000000815260040161080f906112d1565b60405180910390fd5b62093a806001600082825461082d91906112f1565b92505081905550565b60008054906101000a900473ffffffffffffffffffffffffffffffffffffffff1681565b6005602052816000526040600020602052806000526040600020600091509150508060000160009054906101000a900460ff16908060000160019054906101000a900460ff16905082565b6000604051905090565b600080fd5b600080fd5b6000819050919050565b6108cc816108b9565b81146108d757600080fd5b50565b6000813590506108e9816108c3565b92915050565b600060208284031215610905576109046108af565b5b6000610913848285016108da565b91505092915050565b600081519050919050565b600082825260208201905092915050565b60005b8381101561095657808201518184015260208101905061093b565b60008484015250505050565b6000601f19601f8301169050919050565b600061097e8261091c565b6109888185610927565b9350610998818560208601610938565b6109a181610962565b840191505092915050565b6109b5816108b9565b82525050565b60008115159050919050565b6109d0816109bb565b82525050565b600060808201905081810360008301526109f08187610973565b90506109ff60208301866109ac565b610a0c60408301856109c7565b610a1960608301846109ac565b95945050505050565b6000602082019050610a3760008301846109ac565b92915050565b600080fd5b600080fd5b7f4e487b7100000000000000000000000000000000000000000000000000000000600052604160045260246000fd5b610a7f82610962565b810181811067ffffffffffffffff82111715610a9e57610a9d610a47565b5b80604052505050565b6000610ab16108a5565b9050610abd8282610a76565b919050565b600067ffffffffffffffff821115610add57610adc610a47565b5b610ae682610962565b9050602081019050919050565b82818337600083830152505050565b6000610b15610b1084610ac2565b610aa7565b905082815260208101848484011115610b3157610b30610a42565b5b610b3c848285610af3565b509392505050565b600082601f830112610b5957610b58610a3d565b5b8135610b69848260208601610b02565b91505092915050565b600060208284031215610b8857610b876108af565b5b600082013567ffffffffffffffff811115610ba657610ba56108b4565b5b610bb284828501610b44565b91505092915050565b600073ffffffffffffffffffffffffffffffffffffffff82169050919050565b6000610be682610bbb565b9050919050565b610bf681610bdb565b82525050565b6000602082019050610c116000830184610bed565b92915050565b610c2081610bdb565b8114610c2b57600080fd5b50565b600081359050610c3d81610c17565b92915050565b60008060408385031215610c5a57610c596108af565b5b6000610c68858286016108da565b9250506020610c7985828601610c2e565b9150509250929050565b6000604082019050610c9860008301856109c7565b610ca560208301846109c7565b9392505050565b7f4e487b7100000000000000000000000000000000000000000000000000000000600052603260045260246000fd5b7f596f75206861766520616c726561647920766f74656400000000000000000000600082015250565b6000610d11601683610927565b9150610d1c82610cdb565b602082019050919050565b60006020820190508181036000830152610d4081610d04565b9050919050565b7f4e487b7100000000000000000000000000000000000000000000000000000000600052601160045260246000fd5b6000610d81826108b9565b91507fffffffffffffffffffffffffffffffffffffffffffffffffffffffffffffffff8203610db357610db2610d47565b5b600182019050919050565b6000604082019050610dd360008301856109ac565b610de06020830184610bed565b9392505050565b7f4e487b7100000000000000000000000000000000000000000000000000000000600052602260045260246000fd5b60006002820490506001821680610e2e57607f821691505b602082108103610e4157610e40610de7565b5b50919050565b7f4f6e6c7920746865206f776e65722063616e2063616c6c20746869732066756e60008201527f6374696f6e000000000000000000000000000000000000000000000000000000602082015250565b6000610ea3602583610927565b9150610eae82610e47565b604082019050919050565b60006020820190508181036000830152610ed281610e96565b9050919050565b7f546869732070726f706f73616c2068617320616c7265616479206265656e206560008201527f7865637574656400000000000000000000000000000000000000000000000000602082015250565b6000610f35602783610927565b9150610f4082610ed9565b604082019050919050565b60006020820190508181036000830152610f6481610f28565b9050919050565b7f5468652071756f72756d20686173206e6f74206265656e206d65742079657400600082015250565b6000610fa1601f83610927565b9150610fac82610f6b565b602082019050919050565b60006020820190508181036000830152610fd081610f94565b9050919050565b60008190508160005260206000209050919050565b60006020601f8301049050919050565b600082821b905092915050565b6000600883026110397fffffffffffffffffffffffffffffffffffffffffffffffffffffffffffffffff82610ffc565b6110438683610ffc565b95508019841693508086168417925050509392505050565b6000819050919050565b600061108061107b611076846108b9565b61105b565b6108b9565b9050919050565b6000819050919050565b61109a83611065565b6110ae6110a682611087565b848454611009565b825550505050565b600090565b6110c36110b6565b6110ce818484611091565b505050565b5b818110156110f2576110e76000826110bb565b6001810190506110d4565b5050565b601f8211156111375761110881610fd7565b61111184610fec565b81016020851015611120578190505b61113461112c85610fec565b8301826110d3565b50505b505050565b600082821c905092915050565b600061115a6000198460080261113c565b1980831691505092915050565b60006111738383611149565b9150826002028217905092915050565b61118c8261091c565b67ffffffffffffffff8111156111a5576111a4610a47565b5b6111af8254610e16565b6111ba8282856110f6565b600060209050601f8311600181146111ed57600084156111db578287015190505b6111e58582611167565b86555061124d565b601f1984166111fb86610fd7565b60005b82811015611223578489015182556001820191506020850194506020810190506111fe565b86831015611240578489015161123c601f891682611149565b8355505b6001600288020188555050505b505050505050565b600060408201905061126a60008301856109ac565b818103602083015261127c8184610973565b90509392505050565b7f54686520646561646c696e6520686173206e6f74207061737365642079657400600082015250565b60006112bb601f83610927565b91506112c682611285565b602082019050919050565b600060208201905081810360008301526112ea816112ae565b9050919050565b60006112fc826108b9565b9150611307836108b9565b925082820190508082111561131f5761131e610d47565b5b9291505056fea264697066735822122099fb3e9ed15ddd8426fc4d420b9289b49b42711ff0e673b6f36b783efe3506be64736f6c63430008120033",
  "immutableReferences": {},
  "source": "//SPDX-License-Identifier:GPL-3.0\r\n\r\n\r\n/* This smart contract mimics decision making in a Decentralised Autonomous Organization. The owner of the\r\ncontract creates proposals with a predefined deadline to respond and a minimum quorum of votes before \r\nexecuting that proposal. All members of DAO can vote on proposals till the deadline is open. \r\nThe proposal is said to be accepted if it receives the quorum votes before the deadline is reached. \r\nIn case the quorum of votes is not received, the deadline is extended by 7 days.\r\n*/\r\n\r\n\r\npragma solidity ^0.8.0;\r\n\r\ncontract DAO {\r\n\r\n  struct Proposal {\r\n        string description;\r\n        uint256 voteCount;\r\n        bool executed;\r\n        uint256 id;\r\n    }\r\n\r\n    struct Voter {\r\n        bool voted;\r\n        bool exists;\r\n    }\r\n\r\n     address public owner;\r\n    uint256 public deadline;\r\n    uint256 public totalVoters;\r\n    uint256 public quorum;\r\n    Proposal[] public proposals;\r\n    mapping(uint256 => mapping(address => Voter)) public voters;\r\n\r\n\r\n    event ProposalAdded(uint256 proposalId, string description);\r\n    event Voted(uint256 proposalId, address voter);\r\n    event ProposalExecuted(uint256 proposalId);\r\n\r\n\r\n    constructor(uint256 _deadline, uint256 _totalVoters) {\r\n        owner = msg.sender;\r\n        deadline = _deadline;\r\n        totalVoters=_totalVoters;\r\n        quorum=_totalVoters/2+1;      \r\n    }\r\n\r\n\r\n    modifier onlyOwner() {\r\n        require(msg.sender == owner, \"Only the owner can call this function\");\r\n        _;\r\n    }\r\n\r\n\r\n    function addProposal(string memory _description) public onlyOwner {\r\n        uint256 proposalId = proposals.length;\r\n        proposals.push(Proposal({\r\n            description: _description,\r\n            voteCount: 0,\r\n            executed: false,\r\n            id: proposalId\r\n        }));\r\n        emit ProposalAdded(proposalId, _description);\r\n    }\r\n\r\n\r\n    function vote(uint256 _proposalId) public {\r\n        Proposal storage proposal = proposals[_proposalId];\r\n        Voter storage voter = voters[_proposalId][msg.sender];\r\n        require(voter.exists == false, \"You have already voted\");\r\n        voter.voted = true;\r\n        voter.exists = true;\r\n        proposal.voteCount++;\r\n        emit Voted(_proposalId, msg.sender);\r\n    }\r\n\r\n\r\n    function executeProposal(uint256 _proposalId) public onlyOwner {\r\n        Proposal storage proposal = proposals[_proposalId];\r\n        require(proposal.executed == false, \"This proposal has already been executed\");\r\n        require(proposal.voteCount >= quorum, \"The quorum has not been met yet\");\r\n        proposal.executed = true;\r\n        emit ProposalExecuted(_proposalId);\r\n    }\r\n\r\n    \r\n    function extendDeadline() public onlyOwner {\r\n        require(block.timestamp > deadline, \"The deadline has not passed yet\");\r\n        deadline += 7 days;\r\n    }\r\n}\r\n\r\n\r\n",
  "sourcePath": "D:\\2) Web3\\3) My projects\\1) Ethereum Smart contracts\\5) Decision making in a DAO\\contracts\\DAO.sol",
  "compiler": {
    "name": "solc",
    "version": "0.8.18+commit.87f61d96.Emscripten.clang"
  },
  "schemaVersion": "3.4.11",
  "updatedAt": "2023-03-09T17:35:48.298Z",
  "networkType": "ethereum",
  "devdoc": {
    "kind": "dev",
    "methods": {},
    "version": 1
  },
  "userdoc": {
    "kind": "user",
    "methods": {},
    "version": 1
  }
}