{
  "contractName": "MyNFT",
  "abi": [
    {
      "anonymous": false,
      "inputs": [
        {
          "indexed": true,
          "internalType": "address",
          "name": "_owner",
          "type": "address"
        },
        {
          "indexed": true,
          "internalType": "address",
          "name": "_approved",
          "type": "address"
        },
        {
          "indexed": true,
          "internalType": "uint256",
          "name": "_tokenId",
          "type": "uint256"
        }
      ],
      "name": "Approval",
      "type": "event"
    },
    {
      "anonymous": false,
      "inputs": [
        {
          "indexed": true,
          "internalType": "address",
          "name": "_from",
          "type": "address"
        },
        {
          "indexed": true,
          "internalType": "address",
          "name": "_to",
          "type": "address"
        },
        {
          "indexed": true,
          "internalType": "uint256",
          "name": "_tokenId",
          "type": "uint256"
        }
      ],
      "name": "Transfer",
      "type": "event"
    },
    {
      "inputs": [
        {
          "internalType": "address",
          "name": "_owner",
          "type": "address"
        }
      ],
      "name": "balanceOf",
      "outputs": [
        {
          "internalType": "uint256",
          "name": "",
          "type": "uint256"
        }
      ],
      "stateMutability": "view",
      "type": "function",
      "constant": true
    },
    {
      "inputs": [
        {
          "internalType": "uint256",
          "name": "_tokenId",
          "type": "uint256"
        }
      ],
      "name": "ownerOf",
      "outputs": [
        {
          "internalType": "address",
          "name": "",
          "type": "address"
        }
      ],
      "stateMutability": "view",
      "type": "function",
      "constant": true
    },
    {
      "inputs": [
        {
          "internalType": "address",
          "name": "_approved",
          "type": "address"
        },
        {
          "internalType": "uint256",
          "name": "_tokenId",
          "type": "uint256"
        }
      ],
      "name": "approve",
      "outputs": [],
      "stateMutability": "nonpayable",
      "type": "function"
    },
    {
      "inputs": [
        {
          "internalType": "address",
          "name": "_to",
          "type": "address"
        },
        {
          "internalType": "uint256",
          "name": "_tokenId",
          "type": "uint256"
        }
      ],
      "name": "transfer",
      "outputs": [],
      "stateMutability": "nonpayable",
      "type": "function"
    },
    {
      "inputs": [
        {
          "internalType": "address",
          "name": "_from",
          "type": "address"
        },
        {
          "internalType": "address",
          "name": "_to",
          "type": "address"
        },
        {
          "internalType": "uint256",
          "name": "_tokenId",
          "type": "uint256"
        }
      ],
      "name": "transferFrom",
      "outputs": [],
      "stateMutability": "nonpayable",
      "type": "function"
    },
    {
      "inputs": [],
      "name": "totalSupply",
      "outputs": [
        {
          "internalType": "uint256",
          "name": "",
          "type": "uint256"
        }
      ],
      "stateMutability": "view",
      "type": "function",
      "constant": true
    },
    {
      "inputs": [
        {
          "internalType": "address",
          "name": "_to",
          "type": "address"
        },
        {
          "internalType": "uint256",
          "name": "_tokenId",
          "type": "uint256"
        }
      ],
      "name": "mint",
      "outputs": [],
      "stateMutability": "nonpayable",
      "type": "function"
    },
    {
      "inputs": [],
      "name": "isApprovedForAll",
      "outputs": [
        {
          "internalType": "bool",
          "name": "",
          "type": "bool"
        }
      ],
      "stateMutability": "pure",
      "type": "function",
      "constant": true
    },
    {
      "inputs": [
        {
          "internalType": "uint256",
          "name": "_tokenId",
          "type": "uint256"
        }
      ],
      "name": "getApproved",
      "outputs": [
        {
          "internalType": "address",
          "name": "",
          "type": "address"
        }
      ],
      "stateMutability": "view",
      "type": "function",
      "constant": true
    }
  ],
  "bytecode": "0x6080604052600060035534801561001557600080fd5b50610d0c806100256000396000f3fe608060405234801561001057600080fd5b50600436106100935760003560e01c806340c10f191161006657806340c10f191461011e5780636352211e1461013a57806370a082311461016a578063a2b963581461019a578063a9059cbb146101b857610093565b8063081812fc14610098578063095ea7b3146100c857806318160ddd146100e457806323b872dd14610102575b600080fd5b6100b260048036038101906100ad9190610a61565b6101d4565b6040516100bf9190610acf565b60405180910390f35b6100e260048036038101906100dd9190610b16565b610211565b005b6100ec61034f565b6040516100f99190610b65565b60405180910390f35b61011c60048036038101906101179190610b80565b610359565b005b61013860048036038101906101339190610b16565b6104e7565b005b610154600480360381019061014f9190610a61565b6106e1565b6040516101619190610acf565b60405180910390f35b610184600480360381019061017f9190610bd3565b61071d565b6040516101919190610b65565b60405180910390f35b6101a2610766565b6040516101af9190610c1b565b60405180910390f35b6101d260048036038101906101cd9190610b16565b61076b565b005b60006002600083815260200190815260200160002060009054906101000a900473ffffffffffffffffffffffffffffffffffffffff169050919050565b600061021c826106e1565b90508073ffffffffffffffffffffffffffffffffffffffff168373ffffffffffffffffffffffffffffffffffffffff160361025657600080fd5b8073ffffffffffffffffffffffffffffffffffffffff163373ffffffffffffffffffffffffffffffffffffffff1614806102945750610293610766565b5b61029d57600080fd5b826002600084815260200190815260200160002060006101000a81548173ffffffffffffffffffffffffffffffffffffffff021916908373ffffffffffffffffffffffffffffffffffffffff160217905550818373ffffffffffffffffffffffffffffffffffffffff168273ffffffffffffffffffffffffffffffffffffffff167f8c5be1e5ebec7d5bd14f71427d1e84f3dd0314c0f7b2291e5b200ac8c7c3b92560405160405180910390a4505050565b6000600354905090565b600073ffffffffffffffffffffffffffffffffffffffff168273ffffffffffffffffffffffffffffffffffffffff160361039257600080fd5b3073ffffffffffffffffffffffffffffffffffffffff168273ffffffffffffffffffffffffffffffffffffffff16036103ca57600080fd5b6103d3816101d4565b73ffffffffffffffffffffffffffffffffffffffff163373ffffffffffffffffffffffffffffffffffffffff16148061043f5750610410816106e1565b73ffffffffffffffffffffffffffffffffffffffff163373ffffffffffffffffffffffffffffffffffffffff16145b61044857600080fd5b610451816106e1565b73ffffffffffffffffffffffffffffffffffffffff163373ffffffffffffffffffffffffffffffffffffffff16148061048e575061048d610766565b5b61049757600080fd5b8273ffffffffffffffffffffffffffffffffffffffff166104b7826106e1565b73ffffffffffffffffffffffffffffffffffffffff16146104d757600080fd5b6104e2838383610878565b505050565b600073ffffffffffffffffffffffffffffffffffffffff168273ffffffffffffffffffffffffffffffffffffffff160361052057600080fd5b3073ffffffffffffffffffffffffffffffffffffffff168273ffffffffffffffffffffffffffffffffffffffff160361055857600080fd5b600073ffffffffffffffffffffffffffffffffffffffff1660008083815260200190815260200160002060009054906101000a900473ffffffffffffffffffffffffffffffffffffffff1673ffffffffffffffffffffffffffffffffffffffff16146105c357600080fd5b8160008083815260200190815260200160002060006101000a81548173ffffffffffffffffffffffffffffffffffffffff021916908373ffffffffffffffffffffffffffffffffffffffff160217905550600160008373ffffffffffffffffffffffffffffffffffffffff1673ffffffffffffffffffffffffffffffffffffffff168152602001908152602001600020600081548092919061066490610c65565b91905055506003600081548092919061067c90610c65565b9190505550808273ffffffffffffffffffffffffffffffffffffffff16600073ffffffffffffffffffffffffffffffffffffffff167fddf252ad1be2c89b69c2b068fc378daa952ba7f163c4a11628f55a4df523b3ef60405160405180910390a45050565b600080600083815260200190815260200160002060009054906101000a900473ffffffffffffffffffffffffffffffffffffffff169050919050565b6000600160008373ffffffffffffffffffffffffffffffffffffffff1673ffffffffffffffffffffffffffffffffffffffff168152602001908152602001600020549050919050565b600090565b600073ffffffffffffffffffffffffffffffffffffffff168273ffffffffffffffffffffffffffffffffffffffff16036107a457600080fd5b3073ffffffffffffffffffffffffffffffffffffffff168273ffffffffffffffffffffffffffffffffffffffff16036107dc57600080fd5b6107e5816106e1565b73ffffffffffffffffffffffffffffffffffffffff163373ffffffffffffffffffffffffffffffffffffffff1614806108515750610822816101d4565b73ffffffffffffffffffffffffffffffffffffffff163373ffffffffffffffffffffffffffffffffffffffff16145b80610860575061085f610766565b5b61086957600080fd5b610874338383610878565b5050565b8160008083815260200190815260200160002060006101000a81548173ffffffffffffffffffffffffffffffffffffffff021916908373ffffffffffffffffffffffffffffffffffffffff160217905550600160008473ffffffffffffffffffffffffffffffffffffffff1673ffffffffffffffffffffffffffffffffffffffff168152602001908152602001600020600081548092919061091990610cad565b9190505550600160008373ffffffffffffffffffffffffffffffffffffffff1673ffffffffffffffffffffffffffffffffffffffff168152602001908152602001600020600081548092919061096e90610c65565b919050555060006002600083815260200190815260200160002060006101000a81548173ffffffffffffffffffffffffffffffffffffffff021916908373ffffffffffffffffffffffffffffffffffffffff160217905550808273ffffffffffffffffffffffffffffffffffffffff168473ffffffffffffffffffffffffffffffffffffffff167fddf252ad1be2c89b69c2b068fc378daa952ba7f163c4a11628f55a4df523b3ef60405160405180910390a4505050565b600080fd5b6000819050919050565b610a3e81610a2b565b8114610a4957600080fd5b50565b600081359050610a5b81610a35565b92915050565b600060208284031215610a7757610a76610a26565b5b6000610a8584828501610a4c565b91505092915050565b600073ffffffffffffffffffffffffffffffffffffffff82169050919050565b6000610ab982610a8e565b9050919050565b610ac981610aae565b82525050565b6000602082019050610ae46000830184610ac0565b92915050565b610af381610aae565b8114610afe57600080fd5b50565b600081359050610b1081610aea565b92915050565b60008060408385031215610b2d57610b2c610a26565b5b6000610b3b85828601610b01565b9250506020610b4c85828601610a4c565b9150509250929050565b610b5f81610a2b565b82525050565b6000602082019050610b7a6000830184610b56565b92915050565b600080600060608486031215610b9957610b98610a26565b5b6000610ba786828701610b01565b9350506020610bb886828701610b01565b9250506040610bc986828701610a4c565b9150509250925092565b600060208284031215610be957610be8610a26565b5b6000610bf784828501610b01565b91505092915050565b60008115159050919050565b610c1581610c00565b82525050565b6000602082019050610c306000830184610c0c565b92915050565b7f4e487b7100000000000000000000000000000000000000000000000000000000600052601160045260246000fd5b6000610c7082610a2b565b91507fffffffffffffffffffffffffffffffffffffffffffffffffffffffffffffffff8203610ca257610ca1610c36565b5b600182019050919050565b6000610cb882610a2b565b915060008203610ccb57610cca610c36565b5b60018203905091905056fea2646970667358221220cd68fbe2512ca0b9537cc07465be043ef378591910cd94af4adb1dc76b75b51264736f6c63430008120033",
  "immutableReferences": {},
  "source": "//SPDX-License-Identifier:GPL-3.0\r\n\r\npragma solidity ^0.8.0;\r\n\r\n/* This smart contract creates ERC-721 complied NFT. \r\n\r\nERC 721 standard : \r\n\r\nThe ERC721 standard is a set of rules or guidelines that define a common interface for \r\nnon-fungible tokens (NFTs) on the Ethereum blockchain.\r\n\r\nThere are a total of 13 functions and 2 events that are considered mandatory in the ERC721 standard. These functions and events are:\r\n\r\n- balanceOf: Returns the number of tokens owned by a specific address.\r\n- ownerOf: Returns the address of the owner of a specific token.\r\n- safeTransferFrom: Transfers ownership of a token from one address to another address. This function should revert if the transfer fails.\r\n- safeTransferFrom: Transfers ownership of a token from one address to another address. This function should return a boolean indicating whether the transfer succeeded.\r\n- transferFrom: Transfers ownership of a token from one address to another address.\r\n- approve: Approves another address to transfer the given token ID.\r\n- setApprovalForAll: Enables or disables approval for a third party (\"operator\") to manage all of the caller's tokens.\r\n- getApproved: Returns the address currently approved for the given token ID.\r\n- isApprovedForAll: Returns true if the given operator is approved to manage all of the tokens of the given owner.\r\n- name: Returns the name of the token.\r\n- symbol: Returns the symbol of the token.\r\n- totalSupply: Returns the total number of tokens in existence.\r\n- tokenOfOwnerByIndex: Returns the token ID of the nth token owned by a specific address.\r\n\r\nThe two events that are mandatory are:\r\n\r\n- Transfer: Emits when ownership of a token changes.\r\n- Approval: Emits when the approval of a token is transferred or set.\r\n\r\n\r\nFor the sake of the project here, the isApprovedForAll() function is used as a stub function and \r\nalways a returns a false boolean.\r\n\r\n\r\n*/\r\n\r\npragma solidity ^0.8.0;\r\n\r\ncontract MyNFT {\r\n    \r\n    event Transfer(address indexed _from, address indexed _to, uint256 indexed _tokenId);\r\n    event Approval(address indexed _owner, address indexed _approved, uint256 indexed _tokenId);\r\n\r\n    \r\n    mapping(uint256 => address) private _tokenOwner;\r\n    mapping(address => uint256) private _ownershipTokenCount;\r\n    mapping(uint256 => address) private _tokenApprovals;\r\n\r\n    uint256 private _totalSupply = 0;\r\n\r\n   \r\n    function balanceOf(address _owner) public view returns (uint256) {\r\n        return _ownershipTokenCount[_owner];\r\n    }\r\n\r\n    function ownerOf(uint256 _tokenId) public view returns (address) {\r\n        return _tokenOwner[_tokenId];\r\n    }\r\n\r\n    function approve(address _approved, uint256 _tokenId) public {\r\n        address owner = ownerOf(_tokenId);\r\n        require(_approved != owner);\r\n        require(msg.sender == owner || isApprovedForAll());\r\n        _tokenApprovals[_tokenId] = _approved;\r\n        emit Approval(owner, _approved, _tokenId);\r\n    }\r\n\r\n    function transfer(address _to, uint256 _tokenId) public {\r\n        require(_to != address(0));\r\n        require(_to != address(this));\r\n        require(msg.sender == ownerOf(_tokenId) || msg.sender == getApproved(_tokenId) || isApprovedForAll());\r\n        _transfer(msg.sender, _to, _tokenId);\r\n    }\r\n\r\n    function transferFrom(address _from, address _to, uint256 _tokenId) public {\r\n        require(_to != address(0));\r\n        require(_to != address(this));\r\n        require(msg.sender == getApproved(_tokenId) || msg.sender == ownerOf(_tokenId));\r\n        require(msg.sender == ownerOf(_tokenId) || isApprovedForAll());\r\n        require(ownerOf(_tokenId) == _from);\r\n        _transfer(_from, _to, _tokenId);\r\n    }\r\n\r\n    function totalSupply() public view returns (uint256) {\r\n        return _totalSupply;\r\n    }\r\n\r\n    function mint(address _to, uint256 _tokenId) public {\r\n        require(_to != address(0));\r\n        require(_to != address(this));\r\n        require(_tokenOwner[_tokenId] == address(0));\r\n        _tokenOwner[_tokenId] = _to;\r\n        _ownershipTokenCount[_to]++;\r\n        _totalSupply++;\r\n        emit Transfer(address(0), _to, _tokenId);\r\n    }\r\n\r\n    \r\n    function _transfer(address _from, address _to, uint256 _tokenId) private {\r\n        _tokenOwner[_tokenId] = _to;\r\n        _ownershipTokenCount[_from]--;\r\n        _ownershipTokenCount[_to]++;\r\n        _tokenApprovals[_tokenId] = address(0);\r\n        emit Transfer(_from, _to, _tokenId);\r\n    }\r\n\r\n    function isApprovedForAll() public pure returns (bool) {\r\n        return false;\r\n    }\r\n\r\n    function getApproved(uint256 _tokenId) public view returns (address) {\r\n        return _tokenApprovals[_tokenId];\r\n    }\r\n}\r\n\r\n",
  "sourcePath": "D:\\2) Web3\\1) Ethereum Smart contracts\\09) Create and transfer NFT\\contracts\\MyNFT.sol",
  "compiler": {
    "name": "solc",
    "version": "0.8.18+commit.87f61d96.Emscripten.clang"
  },
  "schemaVersion": "3.4.11",
  "updatedAt": "2023-03-18T05:34:07.782Z",
  "networkType": "ethereum",
  "devdoc": {
    "kind": "dev",
    "methods": {},
    "version": 1
  },
  "userdoc": {
    "kind": "user",
    "methods": {},
    "version": 1
  }
}