{
  "contractName": "Lottery",
  "abi": [
    {
      "inputs": [],
      "stateMutability": "nonpayable",
      "type": "constructor"
    },
    {
      "anonymous": false,
      "inputs": [
        {
          "indexed": false,
          "internalType": "string",
          "name": "name",
          "type": "string"
        }
      ],
      "name": "Winner",
      "type": "event"
    },
    {
      "inputs": [],
      "name": "owner",
      "outputs": [
        {
          "internalType": "address",
          "name": "",
          "type": "address"
        }
      ],
      "stateMutability": "view",
      "type": "function",
      "constant": true
    },
    {
      "inputs": [
        {
          "internalType": "uint256",
          "name": "",
          "type": "uint256"
        }
      ],
      "name": "participantList",
      "outputs": [
        {
          "internalType": "address payable",
          "name": "_address",
          "type": "address"
        },
        {
          "internalType": "bool",
          "name": "enteredLottery",
          "type": "bool"
        },
        {
          "internalType": "string",
          "name": "name",
          "type": "string"
        }
      ],
      "stateMutability": "view",
      "type": "function",
      "constant": true
    },
    {
      "inputs": [
        {
          "internalType": "address",
          "name": "",
          "type": "address"
        },
        {
          "internalType": "string",
          "name": "",
          "type": "string"
        }
      ],
      "name": "participantsEntered",
      "outputs": [
        {
          "internalType": "bool",
          "name": "",
          "type": "bool"
        }
      ],
      "stateMutability": "view",
      "type": "function",
      "constant": true
    },
    {
      "inputs": [
        {
          "internalType": "string",
          "name": "_name",
          "type": "string"
        }
      ],
      "name": "participate",
      "outputs": [],
      "stateMutability": "payable",
      "type": "function",
      "payable": true
    },
    {
      "inputs": [],
      "name": "lotteryWinner",
      "outputs": [
        {
          "internalType": "string",
          "name": "",
          "type": "string"
        }
      ],
      "stateMutability": "payable",
      "type": "function",
      "payable": true
    }
  ],
  "bytecode": "0x608060405234801561001057600080fd5b5033600260006101000a81548173ffffffffffffffffffffffffffffffffffffffff021916908373ffffffffffffffffffffffffffffffffffffffff1602179055506112c9806100616000396000f3fe60806040526004361061004a5760003560e01c80630e6fdaa11461004f578063169f9fe31461008e5780631d27769f146100cb5780633e351a45146100e75780638da5cb5b14610105575b600080fd5b34801561005b57600080fd5b50610076600480360381019061007191906107d7565b610130565b604051610085939291906108f0565b60405180910390f35b34801561009a57600080fd5b506100b560048036038101906100b09190610aa1565b61021f565b6040516100c29190610afd565b60405180910390f35b6100e560048036038101906100e09190610b18565b610264565b005b6100ef6104f4565b6040516100fc9190610b61565b60405180910390f35b34801561011157600080fd5b5061011a610767565b6040516101279190610b92565b60405180910390f35b6000818154811061014057600080fd5b90600052602060002090600202016000915090508060000160009054906101000a900473ffffffffffffffffffffffffffffffffffffffff16908060000160149054906101000a900460ff169080600101805461019c90610bdc565b80601f01602080910402602001604051908101604052809291908181526020018280546101c890610bdc565b80156102155780601f106101ea57610100808354040283529160200191610215565b820191906000526020600020905b8154815290600101906020018083116101f857829003601f168201915b5050505050905083565b6001602052816000526040600020818051602081018201805184825260208301602085012081835280955050505050506000915091509054906101000a900460ff1681565b6103e83410156102a9576040517f08c379a00000000000000000000000000000000000000000000000000000000081526004016102a090610c7f565b60405180910390fd5b6014600080549050106102f1576040517f08c379a00000000000000000000000000000000000000000000000000000000081526004016102e890610d11565b60405180910390fd5b60001515600160003373ffffffffffffffffffffffffffffffffffffffff1673ffffffffffffffffffffffffffffffffffffffff168152602001908152602001600020826040516103429190610d6d565b908152602001604051809103902060009054906101000a900460ff161515146103a0576040517f08c379a000000000000000000000000000000000000000000000000000000000815260040161039790610dd0565b60405180910390fd5b600060405180606001604052803373ffffffffffffffffffffffffffffffffffffffff16815260200160011515815260200183815250908060018154018082558091505060019003906000526020600020906002020160009091909190915060008201518160000160006101000a81548173ffffffffffffffffffffffffffffffffffffffff021916908373ffffffffffffffffffffffffffffffffffffffff16021790555060208201518160000160146101000a81548160ff021916908315150217905550604082015181600101908161047b9190610f9c565b50505060018060003373ffffffffffffffffffffffffffffffffffffffff1673ffffffffffffffffffffffffffffffffffffffff168152602001908152602001600020826040516104cc9190610d6d565b908152602001604051809103902060006101000a81548160ff02191690831515021790555050565b6060600260009054906101000a900473ffffffffffffffffffffffffffffffffffffffff1673ffffffffffffffffffffffffffffffffffffffff163373ffffffffffffffffffffffffffffffffffffffff1614610586576040517f08c379a000000000000000000000000000000000000000000000000000000000815260040161057d906110e0565b60405180910390fd5b6000808054905044426000805490506040516020016105a793929190611121565b6040516020818303038152906040528051906020012060001c6105ca919061118d565b9050600081815481106105e0576105df6111be565b5b906000526020600020906002020160000160009054906101000a900473ffffffffffffffffffffffffffffffffffffffff1673ffffffffffffffffffffffffffffffffffffffff166108fc479081150290604051600060405180830381858888f19350505050158015610657573d6000803e3d6000fd5b507f1e1f22c88be4eb57512afdedf796b878457b4d104150bb48d3614b166a0415b86000828154811061068d5761068c6111be565b5b90600052602060002090600202016001016040516106ab9190611271565b60405180910390a1600081815481106106c7576106c66111be565b5b906000526020600020906002020160010180546106e390610bdc565b80601f016020809104026020016040519081016040528092919081815260200182805461070f90610bdc565b801561075c5780601f106107315761010080835404028352916020019161075c565b820191906000526020600020905b81548152906001019060200180831161073f57829003601f168201915b505050505091505090565b600260009054906101000a900473ffffffffffffffffffffffffffffffffffffffff1681565b6000604051905090565b600080fd5b600080fd5b6000819050919050565b6107b4816107a1565b81146107bf57600080fd5b50565b6000813590506107d1816107ab565b92915050565b6000602082840312156107ed576107ec610797565b5b60006107fb848285016107c2565b91505092915050565b600073ffffffffffffffffffffffffffffffffffffffff82169050919050565b600061082f82610804565b9050919050565b61083f81610824565b82525050565b60008115159050919050565b61085a81610845565b82525050565b600081519050919050565b600082825260208201905092915050565b60005b8381101561089a57808201518184015260208101905061087f565b60008484015250505050565b6000601f19601f8301169050919050565b60006108c282610860565b6108cc818561086b565b93506108dc81856020860161087c565b6108e5816108a6565b840191505092915050565b60006060820190506109056000830186610836565b6109126020830185610851565b818103604083015261092481846108b7565b9050949350505050565b600061093982610804565b9050919050565b6109498161092e565b811461095457600080fd5b50565b60008135905061096681610940565b92915050565b600080fd5b600080fd5b7f4e487b7100000000000000000000000000000000000000000000000000000000600052604160045260246000fd5b6109ae826108a6565b810181811067ffffffffffffffff821117156109cd576109cc610976565b5b80604052505050565b60006109e061078d565b90506109ec82826109a5565b919050565b600067ffffffffffffffff821115610a0c57610a0b610976565b5b610a15826108a6565b9050602081019050919050565b82818337600083830152505050565b6000610a44610a3f846109f1565b6109d6565b905082815260208101848484011115610a6057610a5f610971565b5b610a6b848285610a22565b509392505050565b600082601f830112610a8857610a8761096c565b5b8135610a98848260208601610a31565b91505092915050565b60008060408385031215610ab857610ab7610797565b5b6000610ac685828601610957565b925050602083013567ffffffffffffffff811115610ae757610ae661079c565b5b610af385828601610a73565b9150509250929050565b6000602082019050610b126000830184610851565b92915050565b600060208284031215610b2e57610b2d610797565b5b600082013567ffffffffffffffff811115610b4c57610b4b61079c565b5b610b5884828501610a73565b91505092915050565b60006020820190508181036000830152610b7b81846108b7565b905092915050565b610b8c8161092e565b82525050565b6000602082019050610ba76000830184610b83565b92915050565b7f4e487b7100000000000000000000000000000000000000000000000000000000600052602260045260246000fd5b60006002820490506001821680610bf457607f821691505b602082108103610c0757610c06610bad565b5b50919050565b7f596f752068617665206e6f74207472616e73666572726564207265717569726560008201527f6420616d6f756e7420746f20656e746572000000000000000000000000000000602082015250565b6000610c6960318361086b565b9150610c7482610c0d565b604082019050919050565b60006020820190508181036000830152610c9881610c5c565b9050919050565b7f32302070656f706c65206861766520616c726561647920656e7465726564206c60008201527f6f74746572790000000000000000000000000000000000000000000000000000602082015250565b6000610cfb60268361086b565b9150610d0682610c9f565b604082019050919050565b60006020820190508181036000830152610d2a81610cee565b9050919050565b600081905092915050565b6000610d4782610860565b610d518185610d31565b9350610d6181856020860161087c565b80840191505092915050565b6000610d798284610d3c565b915081905092915050565b7f596f75206861766520616c726561647920656e7465726564206c6f7474657279600082015250565b6000610dba60208361086b565b9150610dc582610d84565b602082019050919050565b60006020820190508181036000830152610de981610dad565b9050919050565b60008190508160005260206000209050919050565b60006020601f8301049050919050565b600082821b905092915050565b600060088302610e527fffffffffffffffffffffffffffffffffffffffffffffffffffffffffffffffff82610e15565b610e5c8683610e15565b95508019841693508086168417925050509392505050565b6000819050919050565b6000610e99610e94610e8f846107a1565b610e74565b6107a1565b9050919050565b6000819050919050565b610eb383610e7e565b610ec7610ebf82610ea0565b848454610e22565b825550505050565b600090565b610edc610ecf565b610ee7818484610eaa565b505050565b5b81811015610f0b57610f00600082610ed4565b600181019050610eed565b5050565b601f821115610f5057610f2181610df0565b610f2a84610e05565b81016020851015610f39578190505b610f4d610f4585610e05565b830182610eec565b50505b505050565b600082821c905092915050565b6000610f7360001984600802610f55565b1980831691505092915050565b6000610f8c8383610f62565b9150826002028217905092915050565b610fa582610860565b67ffffffffffffffff811115610fbe57610fbd610976565b5b610fc88254610bdc565b610fd3828285610f0f565b600060209050601f8311600181146110065760008415610ff4578287015190505b610ffe8582610f80565b865550611066565b601f19841661101486610df0565b60005b8281101561103c57848901518255600182019150602085019450602081019050611017565b868310156110595784890151611055601f891682610f62565b8355505b6001600288020188555050505b505050505050565b7f4f6e6c79206f776e65722063616e2063616c6c20746869732066756e6374696f60008201527f6e00000000000000000000000000000000000000000000000000000000000000602082015250565b60006110ca60218361086b565b91506110d58261106e565b604082019050919050565b600060208201905081810360008301526110f9816110bd565b9050919050565b6000819050919050565b61111b611116826107a1565b611100565b82525050565b600061112d828661110a565b60208201915061113d828561110a565b60208201915061114d828461110a565b602082019150819050949350505050565b7f4e487b7100000000000000000000000000000000000000000000000000000000600052601260045260246000fd5b6000611198826107a1565b91506111a3836107a1565b9250826111b3576111b261115e565b5b828206905092915050565b7f4e487b7100000000000000000000000000000000000000000000000000000000600052603260045260246000fd5b600081546111fa81610bdc565b611204818661086b565b9450600182166000811461121f576001811461123557611268565b60ff198316865281151560200286019350611268565b61123e85610df0565b60005b8381101561126057815481890152600182019150602081019050611241565b808801955050505b50505092915050565b6000602082019050818103600083015261128b81846111ed565b90509291505056fea2646970667358221220cfc90ff5252cec193037f4aec4a34d827199cb8ca271f4993ca02eb07623a94a64736f6c63430008120033",
  "immutableReferences": {},
  "source": "//SPDX-License-Identifier:GPL-3.0\r\n\r\npragma solidity ^0.8.0;\r\n\r\n/* This smart contract mimics a simple lottery system. Anyone can enter the lottery by transferring 1000 wei.\r\nThe lottery is for maximum 20 people. In an ideal scenario, the lottery owner runs the lotteryWinner function\r\nwhen the lottery entry time is closed but here fore the sake of project, this functionality check has not \r\nbeen kept and the lottery owner can run the lotteryWinner function whenever he wants.\r\nWith the declaration of the winner, all the collected wei are then transferred to the winner. \r\n*/\r\n\r\ncontract Lottery {\r\n\r\n    struct participant {\r\n        address payable _address;\r\n        bool enteredLottery;\r\n        string name;\r\n    }\r\n    \r\n    participant[] public participantList;\r\n    mapping(address=>mapping(string=>bool)) public participantsEntered;\r\n    address public owner;\r\n   \r\n    constructor() {\r\n        owner=msg.sender;\r\n    }\r\n\r\n    modifier onlyOwner() {\r\n        require(msg.sender==owner,\"Only owner can call this function\");\r\n        _;\r\n    }\r\n\r\n    event Winner(string name);\r\n\r\n    function participate(string memory _name) public payable {\r\n        require(msg.value>=1000,\"You have not transferred required amount to enter\");\r\n        require(participantList.length<20,\"20 people have already entered lottery\");\r\n        require(participantsEntered[msg.sender][_name]==false,\"You have already entered lottery\");\r\n        participantList.push(participant({_address:payable(msg.sender), name:_name,enteredLottery:true}));\r\n        participantsEntered[msg.sender][_name]=true;        \r\n    }\r\n\r\n    function lotteryWinner() public payable onlyOwner returns(string memory) {\r\n        uint random_no=uint(keccak256(abi.encodePacked(block.prevrandao, block.timestamp, participantList.length)))%participantList.length;\r\n        participantList[random_no]._address.transfer(address(this).balance);\r\n        emit Winner(participantList[random_no].name);\r\n        return participantList[random_no].name;\r\n    }\r\n\r\n    \r\n\r\n    \r\n}",
  "sourcePath": "D:\\2) Web3\\3) My projects\\1) Ethereum Smart contracts\\10) Lottery\\contracts\\Lottery.sol",
  "compiler": {
    "name": "solc",
    "version": "0.8.18+commit.87f61d96.Emscripten.clang"
  },
  "schemaVersion": "3.4.11",
  "updatedAt": "2023-03-12T15:20:11.499Z",
  "networkType": "ethereum",
  "devdoc": {
    "kind": "dev",
    "methods": {},
    "version": 1
  },
  "userdoc": {
    "kind": "user",
    "methods": {},
    "version": 1
  }
}