{
  "contractName": "ICO",
  "abi": [
    {
      "inputs": [],
      "stateMutability": "nonpayable",
      "type": "constructor"
    },
    {
      "anonymous": false,
      "inputs": [
        {
          "indexed": true,
          "internalType": "address",
          "name": "tokenHolder",
          "type": "address"
        },
        {
          "indexed": true,
          "internalType": "address",
          "name": "thirdParty",
          "type": "address"
        },
        {
          "indexed": false,
          "internalType": "uint256",
          "name": "tokenAmount",
          "type": "uint256"
        }
      ],
      "name": "Approval",
      "type": "event"
    },
    {
      "anonymous": false,
      "inputs": [
        {
          "indexed": true,
          "internalType": "address",
          "name": "sender",
          "type": "address"
        },
        {
          "indexed": true,
          "internalType": "address",
          "name": "reciever",
          "type": "address"
        },
        {
          "indexed": false,
          "internalType": "uint256",
          "name": "tokenAmount",
          "type": "uint256"
        }
      ],
      "name": "Transfer",
      "type": "event"
    },
    {
      "inputs": [],
      "name": "decimal",
      "outputs": [
        {
          "internalType": "uint256",
          "name": "",
          "type": "uint256"
        }
      ],
      "stateMutability": "view",
      "type": "function",
      "constant": true
    },
    {
      "inputs": [
        {
          "internalType": "address",
          "name": "",
          "type": "address"
        }
      ],
      "name": "etherSent",
      "outputs": [
        {
          "internalType": "uint256",
          "name": "",
          "type": "uint256"
        }
      ],
      "stateMutability": "view",
      "type": "function",
      "constant": true
    },
    {
      "inputs": [],
      "name": "fundraiser",
      "outputs": [
        {
          "internalType": "address payable",
          "name": "",
          "type": "address"
        }
      ],
      "stateMutability": "view",
      "type": "function",
      "constant": true
    },
    {
      "inputs": [
        {
          "internalType": "address",
          "name": "",
          "type": "address"
        }
      ],
      "name": "tokenBalance",
      "outputs": [
        {
          "internalType": "uint256",
          "name": "",
          "type": "uint256"
        }
      ],
      "stateMutability": "view",
      "type": "function",
      "constant": true
    },
    {
      "inputs": [],
      "name": "tokenName",
      "outputs": [
        {
          "internalType": "string",
          "name": "",
          "type": "string"
        }
      ],
      "stateMutability": "view",
      "type": "function",
      "constant": true
    },
    {
      "inputs": [],
      "name": "tokenSymbol",
      "outputs": [
        {
          "internalType": "string",
          "name": "",
          "type": "string"
        }
      ],
      "stateMutability": "view",
      "type": "function",
      "constant": true
    },
    {
      "inputs": [],
      "name": "totalICO",
      "outputs": [
        {
          "internalType": "uint256",
          "name": "",
          "type": "uint256"
        }
      ],
      "stateMutability": "view",
      "type": "function",
      "constant": true
    },
    {
      "inputs": [],
      "name": "totalSupply",
      "outputs": [
        {
          "internalType": "uint256",
          "name": "",
          "type": "uint256"
        }
      ],
      "stateMutability": "view",
      "type": "function",
      "constant": true
    },
    {
      "inputs": [
        {
          "internalType": "address",
          "name": "tokenHolder",
          "type": "address"
        }
      ],
      "name": "balanceOf",
      "outputs": [
        {
          "internalType": "uint256",
          "name": "",
          "type": "uint256"
        }
      ],
      "stateMutability": "view",
      "type": "function",
      "constant": true
    },
    {
      "inputs": [
        {
          "internalType": "address",
          "name": "reciever",
          "type": "address"
        },
        {
          "internalType": "uint256",
          "name": "tokenAmount",
          "type": "uint256"
        }
      ],
      "name": "transfer",
      "outputs": [],
      "stateMutability": "nonpayable",
      "type": "function"
    },
    {
      "inputs": [
        {
          "internalType": "address",
          "name": "thirdParty",
          "type": "address"
        },
        {
          "internalType": "uint256",
          "name": "tokenAmount",
          "type": "uint256"
        }
      ],
      "name": "approve",
      "outputs": [],
      "stateMutability": "nonpayable",
      "type": "function"
    },
    {
      "inputs": [
        {
          "internalType": "address",
          "name": "sender",
          "type": "address"
        },
        {
          "internalType": "address",
          "name": "reciever",
          "type": "address"
        },
        {
          "internalType": "uint256",
          "name": "tokenAmount",
          "type": "uint256"
        }
      ],
      "name": "transferFrom",
      "outputs": [],
      "stateMutability": "nonpayable",
      "type": "function"
    },
    {
      "inputs": [
        {
          "internalType": "address",
          "name": "_tokenHolder",
          "type": "address"
        },
        {
          "internalType": "address",
          "name": "_thirdParty",
          "type": "address"
        }
      ],
      "name": "allowanceLimit",
      "outputs": [
        {
          "internalType": "uint256",
          "name": "",
          "type": "uint256"
        }
      ],
      "stateMutability": "view",
      "type": "function",
      "constant": true
    },
    {
      "inputs": [],
      "name": "recieveEthers",
      "outputs": [],
      "stateMutability": "payable",
      "type": "function",
      "payable": true
    },
    {
      "inputs": [],
      "name": "transferToFundaraiser",
      "outputs": [],
      "stateMutability": "payable",
      "type": "function",
      "payable": true
    }
  ],
  "bytecode": "0x60806040523480156200001157600080fd5b5033600760006101000a81548173ffffffffffffffffffffffffffffffffffffffff021916908373ffffffffffffffffffffffffffffffffffffffff1602179055506040518060400160405280601381526020017f52657374617572616e7420627573696e6573730000000000000000000000000081525060039081620000999190620003d9565b506040518060400160405280600381526020017f525354000000000000000000000000000000000000000000000000000000000081525060049081620000e09190620003d9565b50600060058190555061c350600681905550600654600080600760009054906101000a900473ffffffffffffffffffffffffffffffffffffffff1673ffffffffffffffffffffffffffffffffffffffff1673ffffffffffffffffffffffffffffffffffffffff16815260200190815260200160002081905550620004c0565b600081519050919050565b7f4e487b7100000000000000000000000000000000000000000000000000000000600052604160045260246000fd5b7f4e487b7100000000000000000000000000000000000000000000000000000000600052602260045260246000fd5b60006002820490506001821680620001e157607f821691505b602082108103620001f757620001f662000199565b5b50919050565b60008190508160005260206000209050919050565b60006020601f8301049050919050565b600082821b905092915050565b600060088302620002617fffffffffffffffffffffffffffffffffffffffffffffffffffffffffffffffff8262000222565b6200026d868362000222565b95508019841693508086168417925050509392505050565b6000819050919050565b6000819050919050565b6000620002ba620002b4620002ae8462000285565b6200028f565b62000285565b9050919050565b6000819050919050565b620002d68362000299565b620002ee620002e582620002c1565b8484546200022f565b825550505050565b600090565b62000305620002f6565b62000312818484620002cb565b505050565b5b818110156200033a576200032e600082620002fb565b60018101905062000318565b5050565b601f82111562000389576200035381620001fd565b6200035e8462000212565b810160208510156200036e578190505b620003866200037d8562000212565b83018262000317565b50505b505050565b600082821c905092915050565b6000620003ae600019846008026200038e565b1980831691505092915050565b6000620003c983836200039b565b9150826002028217905092915050565b620003e4826200015f565b67ffffffffffffffff8111156200040057620003ff6200016a565b5b6200040c8254620001c8565b620004198282856200033e565b600060209050601f8311600181146200045157600084156200043c578287015190505b620004488582620003bb565b865550620004b8565b601f1984166200046186620001fd565b60005b828110156200048b5784890151825560018201915060208501945060208101905062000464565b86831015620004ab5784890151620004a7601f8916826200039b565b8355505b6001600288020188555050505b505050505050565b61192780620004d06000396000f3fe6080604052600436106100e85760003560e01c80637658d5ef1161008a578063a9059cbb11610059578063a9059cbb146102f8578063aa35ad1e14610321578063eedc966a1461032b578063f1179adb14610368576100e8565b80637658d5ef1461024c57806376809ce3146102775780637b61c320146102a257806389585d10146102cd576100e8565b806323b872dd116100c657806323b872dd1461017e5780634fe53277146101a75780636c02a931146101e457806370a082311461020f576100e8565b8063095ea7b3146100ed57806318160ddd146101165780631e92173014610141575b600080fd5b3480156100f957600080fd5b50610114600480360381019061010f9190611132565b610372565b005b34801561012257600080fd5b5061012b6105c2565b6040516101389190611181565b60405180910390f35b34801561014d57600080fd5b506101686004803603810190610163919061119c565b6105cc565b6040516101759190611181565b60405180910390f35b34801561018a57600080fd5b506101a560048036038101906101a091906111c9565b6105e4565b005b3480156101b357600080fd5b506101ce60048036038101906101c9919061121c565b610a75565b6040516101db9190611181565b60405180910390f35b3480156101f057600080fd5b506101f9610afc565b60405161020691906112ec565b60405180910390f35b34801561021b57600080fd5b506102366004803603810190610231919061119c565b610b8a565b6040516102439190611181565b60405180910390f35b34801561025857600080fd5b50610261610bd2565b60405161026e9190611181565b60405180910390f35b34801561028357600080fd5b5061028c610bd8565b6040516102999190611181565b60405180910390f35b3480156102ae57600080fd5b506102b7610bde565b6040516102c491906112ec565b60405180910390f35b3480156102d957600080fd5b506102e2610c6c565b6040516102ef919061132f565b60405180910390f35b34801561030457600080fd5b5061031f600480360381019061031a9190611132565b610c92565b005b610329610fd0565b005b34801561033757600080fd5b50610352600480360381019061034d919061119c565b61103b565b60405161035f9190611181565b60405180910390f35b610370611053565b005b3373ffffffffffffffffffffffffffffffffffffffff16600760009054906101000a900473ffffffffffffffffffffffffffffffffffffffff1673ffffffffffffffffffffffffffffffffffffffff1614610402576040517f08c379a00000000000000000000000000000000000000000000000000000000081526004016103f9906113bc565b60405180910390fd5b806000803373ffffffffffffffffffffffffffffffffffffffff1673ffffffffffffffffffffffffffffffffffffffff168152602001908152602001600020541015610483576040517f08c379a000000000000000000000000000000000000000000000000000000000815260040161047a90611428565b60405180910390fd5b600081116104c6576040517f08c379a00000000000000000000000000000000000000000000000000000000081526004016104bd906114ba565b60405180910390fd5b80600160003373ffffffffffffffffffffffffffffffffffffffff1673ffffffffffffffffffffffffffffffffffffffff16815260200190815260200160002060008473ffffffffffffffffffffffffffffffffffffffff1673ffffffffffffffffffffffffffffffffffffffff16815260200190815260200160002060008282546105529190611509565b925050819055508173ffffffffffffffffffffffffffffffffffffffff163373ffffffffffffffffffffffffffffffffffffffff167f8c5be1e5ebec7d5bd14f71427d1e84f3dd0314c0f7b2291e5b200ac8c7c3b925836040516105b69190611181565b60405180910390a35050565b6000600654905090565b60026020528060005260406000206000915090505481565b8273ffffffffffffffffffffffffffffffffffffffff16600760009054906101000a900473ffffffffffffffffffffffffffffffffffffffff1673ffffffffffffffffffffffffffffffffffffffff1614610674576040517f08c379a000000000000000000000000000000000000000000000000000000000815260040161066b906115af565b60405180910390fd5b600081116106b7576040517f08c379a00000000000000000000000000000000000000000000000000000000081526004016106ae90611641565b60405180910390fd5b806000808573ffffffffffffffffffffffffffffffffffffffff1673ffffffffffffffffffffffffffffffffffffffff168152602001908152602001600020541015610738576040517f08c379a000000000000000000000000000000000000000000000000000000000815260040161072f90611428565b60405180910390fd5b80600160008573ffffffffffffffffffffffffffffffffffffffff1673ffffffffffffffffffffffffffffffffffffffff16815260200190815260200160002060003373ffffffffffffffffffffffffffffffffffffffff1673ffffffffffffffffffffffffffffffffffffffff1681526020019081526020016000205410156107f7576040517f08c379a00000000000000000000000000000000000000000000000000000000081526004016107ee906116ad565b60405180910390fd5b80600260008473ffffffffffffffffffffffffffffffffffffffff1673ffffffffffffffffffffffffffffffffffffffff1681526020019081526020016000205414610878576040517f08c379a000000000000000000000000000000000000000000000000000000000815260040161086f9061173f565b60405180910390fd5b806000808573ffffffffffffffffffffffffffffffffffffffff1673ffffffffffffffffffffffffffffffffffffffff16815260200190815260200160002060008282546108c6919061175f565b92505081905550806000808473ffffffffffffffffffffffffffffffffffffffff1673ffffffffffffffffffffffffffffffffffffffff168152602001908152602001600020600082825461091b9190611509565b9250508190555080600160008573ffffffffffffffffffffffffffffffffffffffff1673ffffffffffffffffffffffffffffffffffffffff16815260200190815260200160002060003373ffffffffffffffffffffffffffffffffffffffff1673ffffffffffffffffffffffffffffffffffffffff16815260200190815260200160002060008282546109ae919061175f565b9250508190555080600260008473ffffffffffffffffffffffffffffffffffffffff1673ffffffffffffffffffffffffffffffffffffffff1681526020019081526020016000206000828254610a04919061175f565b925050819055508173ffffffffffffffffffffffffffffffffffffffff168373ffffffffffffffffffffffffffffffffffffffff167fddf252ad1be2c89b69c2b068fc378daa952ba7f163c4a11628f55a4df523b3ef83604051610a689190611181565b60405180910390a3505050565b6000600160008473ffffffffffffffffffffffffffffffffffffffff1673ffffffffffffffffffffffffffffffffffffffff16815260200190815260200160002060008373ffffffffffffffffffffffffffffffffffffffff1673ffffffffffffffffffffffffffffffffffffffff16815260200190815260200160002054905092915050565b60038054610b09906117c2565b80601f0160208091040260200160405190810160405280929190818152602001828054610b35906117c2565b8015610b825780601f10610b5757610100808354040283529160200191610b82565b820191906000526020600020905b815481529060010190602001808311610b6557829003601f168201915b505050505081565b60008060008373ffffffffffffffffffffffffffffffffffffffff1673ffffffffffffffffffffffffffffffffffffffff168152602001908152602001600020549050919050565b60065481565b60055481565b60048054610beb906117c2565b80601f0160208091040260200160405190810160405280929190818152602001828054610c17906117c2565b8015610c645780601f10610c3957610100808354040283529160200191610c64565b820191906000526020600020905b815481529060010190602001808311610c4757829003601f168201915b505050505081565b600760009054906101000a900473ffffffffffffffffffffffffffffffffffffffff1681565b3373ffffffffffffffffffffffffffffffffffffffff16600760009054906101000a900473ffffffffffffffffffffffffffffffffffffffff1673ffffffffffffffffffffffffffffffffffffffff1614610d22576040517f08c379a0000000000000000000000000000000000000000000000000000000008152600401610d1990611865565b60405180910390fd5b806000803373ffffffffffffffffffffffffffffffffffffffff1673ffffffffffffffffffffffffffffffffffffffff168152602001908152602001600020541015610da3576040517f08c379a0000000000000000000000000000000000000000000000000000000008152600401610d9a906118d1565b60405180910390fd5b60008111610de6576040517f08c379a0000000000000000000000000000000000000000000000000000000008152600401610ddd90611641565b60405180910390fd5b80600260008473ffffffffffffffffffffffffffffffffffffffff1673ffffffffffffffffffffffffffffffffffffffff1681526020019081526020016000205414610e67576040517f08c379a0000000000000000000000000000000000000000000000000000000008152600401610e5e9061173f565b60405180910390fd5b806000803373ffffffffffffffffffffffffffffffffffffffff1673ffffffffffffffffffffffffffffffffffffffff1681526020019081526020016000206000828254610eb5919061175f565b92505081905550806000808473ffffffffffffffffffffffffffffffffffffffff1673ffffffffffffffffffffffffffffffffffffffff1681526020019081526020016000206000828254610f0a9190611509565b9250508190555080600260008473ffffffffffffffffffffffffffffffffffffffff1673ffffffffffffffffffffffffffffffffffffffff1681526020019081526020016000206000828254610f60919061175f565b925050819055508173ffffffffffffffffffffffffffffffffffffffff163373ffffffffffffffffffffffffffffffffffffffff167fddf252ad1be2c89b69c2b068fc378daa952ba7f163c4a11628f55a4df523b3ef83604051610fc49190611181565b60405180910390a35050565b600760009054906101000a900473ffffffffffffffffffffffffffffffffffffffff1673ffffffffffffffffffffffffffffffffffffffff166108fc479081150290604051600060405180830381858888f19350505050158015611038573d6000803e3d6000fd5b50565b60006020528060005260406000206000915090505481565b34600260003373ffffffffffffffffffffffffffffffffffffffff1673ffffffffffffffffffffffffffffffffffffffff16815260200190815260200160002081905550565b600080fd5b600073ffffffffffffffffffffffffffffffffffffffff82169050919050565b60006110c98261109e565b9050919050565b6110d9816110be565b81146110e457600080fd5b50565b6000813590506110f6816110d0565b92915050565b6000819050919050565b61110f816110fc565b811461111a57600080fd5b50565b60008135905061112c81611106565b92915050565b6000806040838503121561114957611148611099565b5b6000611157858286016110e7565b92505060206111688582860161111d565b9150509250929050565b61117b816110fc565b82525050565b60006020820190506111966000830184611172565b92915050565b6000602082840312156111b2576111b1611099565b5b60006111c0848285016110e7565b91505092915050565b6000806000606084860312156111e2576111e1611099565b5b60006111f0868287016110e7565b9350506020611201868287016110e7565b92505060406112128682870161111d565b9150509250925092565b6000806040838503121561123357611232611099565b5b6000611241858286016110e7565b9250506020611252858286016110e7565b9150509250929050565b600081519050919050565b600082825260208201905092915050565b60005b8381101561129657808201518184015260208101905061127b565b60008484015250505050565b6000601f19601f8301169050919050565b60006112be8261125c565b6112c88185611267565b93506112d8818560208601611278565b6112e1816112a2565b840191505092915050565b6000602082019050818103600083015261130681846112b3565b905092915050565b60006113198261109e565b9050919050565b6113298161130e565b82525050565b60006020820190506113446000830184611320565b92915050565b7f596f7520617265206e6f7420617574686f726973656420746f20617070726f7660008201527f6500000000000000000000000000000000000000000000000000000000000000602082015250565b60006113a6602183611267565b91506113b18261134a565b604082019050919050565b600060208201905081810360008301526113d581611399565b9050919050565b7f496e73756666696369656e742062616c616e6365000000000000000000000000600082015250565b6000611412601483611267565b915061141d826113dc565b602082019050919050565b6000602082019050818103600083015261144181611405565b9050919050565b7f4b696e646c792067657420617070726f76616c20666f7220746f6b656e73206d60008201527f6f7265207468616e207a65726f00000000000000000000000000000000000000602082015250565b60006114a4602d83611267565b91506114af82611448565b604082019050919050565b600060208201905081810360008301526114d381611497565b9050919050565b7f4e487b7100000000000000000000000000000000000000000000000000000000600052601160045260246000fd5b6000611514826110fc565b915061151f836110fc565b9250828201905080821115611537576115366114da565b5b92915050565b7f546f6b656e732063616e6e6f74206265207472616e736665727265642066726f60008201527f6d20746869732073656e64657200000000000000000000000000000000000000602082015250565b6000611599602d83611267565b91506115a48261153d565b604082019050919050565b600060208201905081810360008301526115c88161158c565b9050919050565b7f4b696e646c79207472616e7366657220746f6b656e73206d6f7265207468616e60008201527f207a65726f000000000000000000000000000000000000000000000000000000602082015250565b600061162b602583611267565b9150611636826115cf565b604082019050919050565b6000602082019050818103600083015261165a8161161e565b9050919050565b7f496e73756666696369656e7420616c6c6f77616e636500000000000000000000600082015250565b6000611697601683611267565b91506116a282611661565b602082019050919050565b600060208201905081810360008301526116c68161168a565b9050919050565b7f5573657220686173206e6f742073656e742064657369676e617465642065746860008201527f65727320746f2062757920746f6b656e73000000000000000000000000000000602082015250565b6000611729603183611267565b9150611734826116cd565b604082019050919050565b600060208201905081810360008301526117588161171c565b9050919050565b600061176a826110fc565b9150611775836110fc565b925082820390508181111561178d5761178c6114da565b5b92915050565b7f4e487b7100000000000000000000000000000000000000000000000000000000600052602260045260246000fd5b600060028204905060018216806117da57607f821691505b6020821081036117ed576117ec611793565b5b50919050565b7f596f7520617265206e6f7420617574686f726973656420746f207472616e736660008201527f657220746f6b656e730000000000000000000000000000000000000000000000602082015250565b600061184f602983611267565b915061185a826117f3565b604082019050919050565b6000602082019050818103600083015261187e81611842565b9050919050565b7f496e73756666696369656e7420746f6b656e7300000000000000000000000000600082015250565b60006118bb601383611267565b91506118c682611885565b602082019050919050565b600060208201905081810360008301526118ea816118ae565b905091905056fea264697066735822122032a579ebecedf560c2af6a82f6f3fab4d77ab2363edc26f05d1632d58dd3807564736f6c63430008120033",
  "immutableReferences": {},
  "source": "// SPDX-License-Identifier: GPL-3.0\r\npragma solidity ^0.8.0;\r\n/*\r\n\r\nThis solidity smart contract is to raise fund using Initial Coin Offerings process. The\r\nfund raiser creates ERC20 tokens with a name and a symbol.The amount of tokens set for offerings\r\nis set by the fund raiser. The fund raiser sets the number of ethers which the token buyer must \r\ntransfer to the contract to recieve one unit of token.\r\n\r\nThe contract then transfers all the collected ethers to the account of the fund raiser. \r\n\r\nHere we have initialised the name, symbol, decimal and the total supply of tokens\r\nAlthough a separate mint function can be created to create new tokens based on creators wish \r\nwhenever he/ she wants to mint new tokens. Same way the tokens can also be burnt as per need. \r\n\r\nERC20 standard : \r\n\r\nThe ERC-20 standard mandates use of minimum 6 functions - function to return total supply \r\nof tokens, function to return the token balance of addresses, function to transfer token \r\nfrom one address to other, function to approve the allowance limit in case third party \r\ntransfers tokens on token holders behalf, function for third party transfer from \r\ntoken holder's address to a recipient address and lastly a function to return the allowance \r\nlimit set by the token holder for the third partyh address which will transfer the tokens \r\non token holders behalf.\r\nThe ERC-20 standard also mandates minimum 2 events to be created - event to be logged \r\nwhenever token is transferred from one address to the other and event to be logged whenever \r\nan allowance limit is approved by a token holder for the transfer of token by a third party\r\non token holder's behalf. \r\n\r\nTo ensure that all the 6 functions and the two events are present in the token contract,\r\nwe first create an interface contract having the mandated 6 functions and 2 event. Then we \r\nhave inherited this interface contract into our token contract.\r\n\r\n*/ \r\n\r\ninterface IERC_20 {\r\n    function totalSupply() external view returns(uint); \r\n    function balanceOf(address tokenHolder) external view returns (uint);\r\n    function transfer(address reciever, uint tokenAmount) external;\r\n    function approve(address thirdParty, uint tokenAmount) external;\r\n    function transferFrom(address sender, address reciever, uint tokenAmount) external;\r\n    function allowanceLimit(address tokenHolder, address thirdParty) external view returns (uint allowance);\r\n    event Transfer(address indexed sender, address indexed reciever, uint tokenAmount);\r\n    event Approval(address indexed tokenHolder, address indexed thirdParty, uint tokenAmount);\r\n}\r\n\r\ncontract ICO is IERC_20 { \r\n    \r\n    mapping(address=>uint) public tokenBalance;\r\n    mapping (address=>mapping(address=>uint)) allowance; \r\n    mapping(address=>uint) public etherSent;\r\n    \r\n    string public tokenName;\r\n    string public tokenSymbol;\r\n    uint public decimal; \r\n    // decimal is used to present the token balance to the user in easy to understand format\r\n\r\n    uint public totalICO; \r\n    address payable public fundraiser; \r\n    \r\n\r\n   \r\n\r\n    constructor() {\r\n        fundraiser=payable(msg.sender);\r\n        tokenName=\"Restaurant business\";\r\n        tokenSymbol=\"RST\";\r\n        decimal=0;\r\n        totalICO=50000;\r\n        tokenBalance[fundraiser]=totalICO;\r\n    }\r\n\r\n    function totalSupply() external view override returns(uint) {\r\n        return totalICO;\r\n    } \r\n    function balanceOf(address tokenHolder) external view override returns (uint) {\r\n        return tokenBalance[tokenHolder];\r\n    }\r\n    function transfer(address reciever, uint tokenAmount) external override {\r\n        require(fundraiser==payable(msg.sender),\"You are not authorised to transfer tokens\");\r\n        require(tokenBalance[msg.sender]>=tokenAmount,\"Insufficient tokens\");\r\n        require(tokenAmount>0,\"Kindly transfer tokens more than zero\");\r\n        require(etherSent[reciever]==tokenAmount,\"User has not sent designated ethers to buy tokens\");\r\n        tokenBalance[msg.sender]-=tokenAmount;\r\n        tokenBalance[reciever]+=tokenAmount;\r\n        etherSent[reciever]-=tokenAmount;\r\n        emit Transfer(msg.sender, reciever, tokenAmount);\r\n    }\r\n    function approve(address thirdParty, uint tokenAmount) external override {\r\n        require(fundraiser==payable(msg.sender),\"You are not authorised to approve\");\r\n        require(tokenBalance[msg.sender]>=tokenAmount,\"Insufficient balance\");\r\n        require(tokenAmount>0,\"Kindly get approval for tokens more than zero\");\r\n        allowance[msg.sender][thirdParty]+=tokenAmount;\r\n        emit Approval(msg.sender, thirdParty, tokenAmount);\r\n    }\r\n    function transferFrom(address sender, address reciever, uint tokenAmount) external override {\r\n        require(fundraiser==payable(sender),\"Tokens cannot be transferred from this sender\");\r\n        require(tokenAmount>0,\"Kindly transfer tokens more than zero\");\r\n        require(tokenBalance[sender]>=tokenAmount,\"Insufficient balance\");\r\n        require(allowance[sender][msg.sender]>=tokenAmount,\"Insufficient allowance\");\r\n        require(etherSent[reciever]==tokenAmount,\"User has not sent designated ethers to buy tokens\");\r\n        tokenBalance[sender]-=tokenAmount;\r\n        tokenBalance[reciever]+=tokenAmount;\r\n        allowance[sender][msg.sender]-=tokenAmount;\r\n        etherSent[reciever]-=tokenAmount;\r\n        emit Transfer(sender, reciever, tokenAmount);\r\n    }\r\n    function allowanceLimit(address _tokenHolder, address _thirdParty) external view override returns (uint) {\r\n        return(allowance[_tokenHolder][_thirdParty]);\r\n    }  \r\n    function recieveEthers() external payable { //function to recieve ethers from token buyers\r\n        etherSent[msg.sender]=msg.value;\r\n    }\r\n    function transferToFundaraiser() external payable {\r\n        fundraiser.transfer(address(this).balance);\r\n    }\r\n}   ",
  "sourcePath": "D:\\2) Web3\\3) My projects\\1) Ethereum Smart contracts\\8) Raise funds through ICO\\contracts\\ICO.sol",
  "compiler": {
    "name": "solc",
    "version": "0.8.18+commit.87f61d96.Emscripten.clang"
  },
  "schemaVersion": "3.4.11",
  "updatedAt": "2023-03-10T06:50:37.233Z",
  "networkType": "ethereum",
  "devdoc": {
    "kind": "dev",
    "methods": {},
    "version": 1
  },
  "userdoc": {
    "kind": "user",
    "methods": {},
    "version": 1
  }
}