{
  "contractName": "WalletMultiSign",
  "abi": [
    {
      "inputs": [
        {
          "internalType": "address[]",
          "name": "_owners",
          "type": "address[]"
        },
        {
          "internalType": "uint256",
          "name": "_required",
          "type": "uint256"
        }
      ],
      "stateMutability": "nonpayable",
      "type": "constructor"
    },
    {
      "inputs": [
        {
          "internalType": "uint256",
          "name": "",
          "type": "uint256"
        },
        {
          "internalType": "address",
          "name": "",
          "type": "address"
        }
      ],
      "name": "approvedTransaction",
      "outputs": [
        {
          "internalType": "bool",
          "name": "",
          "type": "bool"
        }
      ],
      "stateMutability": "view",
      "type": "function",
      "constant": true
    },
    {
      "inputs": [
        {
          "internalType": "uint256",
          "name": "",
          "type": "uint256"
        }
      ],
      "name": "owners",
      "outputs": [
        {
          "internalType": "address",
          "name": "",
          "type": "address"
        }
      ],
      "stateMutability": "view",
      "type": "function",
      "constant": true
    },
    {
      "inputs": [],
      "name": "requiredApprovals",
      "outputs": [
        {
          "internalType": "uint256",
          "name": "",
          "type": "uint256"
        }
      ],
      "stateMutability": "view",
      "type": "function",
      "constant": true
    },
    {
      "inputs": [
        {
          "internalType": "uint256",
          "name": "",
          "type": "uint256"
        }
      ],
      "name": "transactions",
      "outputs": [
        {
          "internalType": "address",
          "name": "to",
          "type": "address"
        },
        {
          "internalType": "uint256",
          "name": "sentValue",
          "type": "uint256"
        },
        {
          "internalType": "bytes",
          "name": "data",
          "type": "bytes"
        },
        {
          "internalType": "bool",
          "name": "executed",
          "type": "bool"
        }
      ],
      "stateMutability": "view",
      "type": "function",
      "constant": true
    },
    {
      "inputs": [
        {
          "internalType": "address",
          "name": "",
          "type": "address"
        }
      ],
      "name": "validOwner",
      "outputs": [
        {
          "internalType": "bool",
          "name": "",
          "type": "bool"
        }
      ],
      "stateMutability": "view",
      "type": "function",
      "constant": true
    },
    {
      "stateMutability": "payable",
      "type": "receive",
      "payable": true
    },
    {
      "inputs": [
        {
          "internalType": "address",
          "name": "_to",
          "type": "address"
        },
        {
          "internalType": "uint256",
          "name": "_sentValue",
          "type": "uint256"
        },
        {
          "internalType": "bytes",
          "name": "_data",
          "type": "bytes"
        }
      ],
      "name": "submitTx",
      "outputs": [],
      "stateMutability": "nonpayable",
      "type": "function"
    },
    {
      "inputs": [
        {
          "internalType": "uint256",
          "name": "_txID",
          "type": "uint256"
        }
      ],
      "name": "approveTx",
      "outputs": [],
      "stateMutability": "nonpayable",
      "type": "function"
    },
    {
      "inputs": [
        {
          "internalType": "uint256",
          "name": "_txID",
          "type": "uint256"
        }
      ],
      "name": "execute",
      "outputs": [],
      "stateMutability": "nonpayable",
      "type": "function"
    },
    {
      "inputs": [
        {
          "internalType": "uint256",
          "name": "_txID",
          "type": "uint256"
        }
      ],
      "name": "revokeApproval",
      "outputs": [],
      "stateMutability": "view",
      "type": "function",
      "constant": true
    }
  ],
  "bytecode": "0x60806040523480156200001157600080fd5b506040516200220538038062002205833981810160405281019062000037919062000564565b60008251116200007e576040517f08c379a000000000000000000000000000000000000000000000000000000000815260040162000075906200062b565b60405180910390fd5b60008111801562000090575081518111155b620000d2576040517f08c379a0000000000000000000000000000000000000000000000000000000008152600401620000c9906200069d565b60405180910390fd5b60005b82518110156200032b57600073ffffffffffffffffffffffffffffffffffffffff168382815181106200010d576200010c620006bf565b5b602002602001015173ffffffffffffffffffffffffffffffffffffffff16036200016e576040517f08c379a000000000000000000000000000000000000000000000000000000000815260040162000165906200073e565b60405180910390fd5b60001515600160008584815181106200018c576200018b620006bf565b5b602002602001015173ffffffffffffffffffffffffffffffffffffffff1673ffffffffffffffffffffffffffffffffffffffff16815260200190815260200160002060009054906101000a900460ff1615151462000221576040517f08c379a00000000000000000000000000000000000000000000000000000000081526004016200021890620007b0565b60405180910390fd5b60018060008584815181106200023c576200023b620006bf565b5b602002602001015173ffffffffffffffffffffffffffffffffffffffff1673ffffffffffffffffffffffffffffffffffffffff16815260200190815260200160002060006101000a81548160ff0219169083151502179055506000838281518110620002ad57620002ac620006bf565b5b60200260200101519080600181540180825580915050600190039060005260206000200160009091909190916101000a81548173ffffffffffffffffffffffffffffffffffffffff021916908373ffffffffffffffffffffffffffffffffffffffff1602179055508080620003229062000801565b915050620000d5565b508060028190555050506200084e565b6000604051905090565b600080fd5b600080fd5b600080fd5b6000601f19601f8301169050919050565b7f4e487b7100000000000000000000000000000000000000000000000000000000600052604160045260246000fd5b6200039f8262000354565b810181811067ffffffffffffffff82111715620003c157620003c062000365565b5b80604052505050565b6000620003d66200033b565b9050620003e4828262000394565b919050565b600067ffffffffffffffff82111562000407576200040662000365565b5b602082029050602081019050919050565b600080fd5b600073ffffffffffffffffffffffffffffffffffffffff82169050919050565b60006200044a826200041d565b9050919050565b6200045c816200043d565b81146200046857600080fd5b50565b6000815190506200047c8162000451565b92915050565b6000620004996200049384620003e9565b620003ca565b90508083825260208201905060208402830185811115620004bf57620004be62000418565b5b835b81811015620004ec5780620004d788826200046b565b845260208401935050602081019050620004c1565b5050509392505050565b600082601f8301126200050e576200050d6200034f565b5b81516200052084826020860162000482565b91505092915050565b6000819050919050565b6200053e8162000529565b81146200054a57600080fd5b50565b6000815190506200055e8162000533565b92915050565b600080604083850312156200057e576200057d62000345565b5b600083015167ffffffffffffffff8111156200059f576200059e6200034a565b5b620005ad85828601620004f6565b9250506020620005c0858286016200054d565b9150509250929050565b600082825260208201905092915050565b7f41746c65617374206f6e65206f776e6572000000000000000000000000000000600082015250565b600062000613601183620005ca565b91506200062082620005db565b602082019050919050565b60006020820190508181036000830152620006468162000604565b9050919050565b7f496e76616c696420726571756972656420617070726f76616c73000000000000600082015250565b600062000685601a83620005ca565b915062000692826200064d565b602082019050919050565b60006020820190508181036000830152620006b88162000676565b9050919050565b7f4e487b7100000000000000000000000000000000000000000000000000000000600052603260045260246000fd5b7f496e76616c696420616464726573730000000000000000000000000000000000600082015250565b600062000726600f83620005ca565b91506200073382620006ee565b602082019050919050565b60006020820190508181036000830152620007598162000717565b9050919050565b7f4f776e657220697320616c726561647920726567697374657265640000000000600082015250565b600062000798601b83620005ca565b9150620007a58262000760565b602082019050919050565b60006020820190508181036000830152620007cb8162000789565b9050919050565b7f4e487b7100000000000000000000000000000000000000000000000000000000600052601160045260246000fd5b60006200080e8262000529565b91507fffffffffffffffffffffffffffffffffffffffffffffffffffffffffffffffff8203620008435762000842620007d2565b5b600182019050919050565b6119a7806200085e6000396000f3fe60806040526004361061008a5760003560e01c8063b1e130fc11610059578063b1e130fc14610167578063bb84c5a914610190578063d6bc4f32146101b9578063ef4762f4146101f6578063fe0d94c11461023357610091565b8063025e7c27146100965780631087393a146100d357806399c1aadc146100fc5780639ace38c21461012757610091565b3661009157005b600080fd5b3480156100a257600080fd5b506100bd60048036038101906100b89190610edd565b61025c565b6040516100ca9190610f4b565b60405180910390f35b3480156100df57600080fd5b506100fa60048036038101906100f59190610edd565b61029b565b005b34801561010857600080fd5b5061011161050b565b60405161011e9190610f75565b60405180910390f35b34801561013357600080fd5b5061014e60048036038101906101499190610edd565b610511565b60405161015e949392919061103b565b60405180910390f35b34801561017357600080fd5b5061018e60048036038101906101899190610edd565b610606565b005b34801561019c57600080fd5b506101b760048036038101906101b29190611118565b61086e565b005b3480156101c557600080fd5b506101e060048036038101906101db919061118c565b610a39565b6040516101ed91906111cc565b60405180910390f35b34801561020257600080fd5b5061021d600480360381019061021891906111e7565b610a68565b60405161022a91906111cc565b60405180910390f35b34801561023f57600080fd5b5061025a60048036038101906102559190610edd565b610a88565b005b6000818154811061026c57600080fd5b906000526020600020016000915054906101000a900473ffffffffffffffffffffffffffffffffffffffff1681565b60011515600160003373ffffffffffffffffffffffffffffffffffffffff1673ffffffffffffffffffffffffffffffffffffffff16815260200190815260200160002060009054906101000a900460ff1615151461032e576040517f08c379a000000000000000000000000000000000000000000000000000000000815260040161032590611271565b60405180910390fd5b60008110158015610343575060038054905081105b610382576040517f08c379a0000000000000000000000000000000000000000000000000000000008152600401610379906112dd565b60405180910390fd5b600015156004600083815260200190815260200160002060003373ffffffffffffffffffffffffffffffffffffffff1673ffffffffffffffffffffffffffffffffffffffff16815260200190815260200160002060009054906101000a900460ff16151514610426576040517f08c379a000000000000000000000000000000000000000000000000000000000815260040161041d90611349565b60405180910390fd5b600015156003828154811061043e5761043d611369565b5b906000526020600020906004020160030160009054906101000a900460ff1615151461049f576040517f08c379a0000000000000000000000000000000000000000000000000000000008152600401610496906113e4565b60405180910390fd5b60016004600083815260200190815260200160002060003373ffffffffffffffffffffffffffffffffffffffff1673ffffffffffffffffffffffffffffffffffffffff16815260200190815260200160002060006101000a81548160ff02191690831515021790555050565b60025481565b6003818154811061052157600080fd5b90600052602060002090600402016000915090508060000160009054906101000a900473ffffffffffffffffffffffffffffffffffffffff169080600101549080600201805461057090611433565b80601f016020809104026020016040519081016040528092919081815260200182805461059c90611433565b80156105e95780601f106105be576101008083540402835291602001916105e9565b820191906000526020600020905b8154815290600101906020018083116105cc57829003601f168201915b5050505050908060030160009054906101000a900460ff16905084565b60011515600160003373ffffffffffffffffffffffffffffffffffffffff1673ffffffffffffffffffffffffffffffffffffffff16815260200190815260200160002060009054906101000a900460ff16151514610699576040517f08c379a000000000000000000000000000000000000000000000000000000000815260040161069090611271565b60405180910390fd5b600081101580156106ae575060038054905081105b6106ed576040517f08c379a00000000000000000000000000000000000000000000000000000000081526004016106e4906112dd565b60405180910390fd5b600015156003828154811061070557610704611369565b5b906000526020600020906004020160030160009054906101000a900460ff16151514610766576040517f08c379a000000000000000000000000000000000000000000000000000000000815260040161075d906113e4565b60405180910390fd5b600115156004600083815260200190815260200160002060003373ffffffffffffffffffffffffffffffffffffffff1673ffffffffffffffffffffffffffffffffffffffff16815260200190815260200160002060009054906101000a900460ff1615151461080a576040517f08c379a0000000000000000000000000000000000000000000000000000000008152600401610801906114b0565b60405180910390fd5b600015156004600083815260200190815260200160002060003373ffffffffffffffffffffffffffffffffffffffff1673ffffffffffffffffffffffffffffffffffffffff16815260200190815260200160002060009054906101000a9050505050565b60011515600160003373ffffffffffffffffffffffffffffffffffffffff1673ffffffffffffffffffffffffffffffffffffffff16815260200190815260200160002060009054906101000a900460ff16151514610901576040517f08c379a00000000000000000000000000000000000000000000000000000000081526004016108f890611271565b60405180910390fd5b600360405180608001604052808673ffffffffffffffffffffffffffffffffffffffff16815260200185815260200184848080601f016020809104026020016040519081016040528093929190818152602001838380828437600081840152601f19601f82011690508083019250505050505050815260200160001515815250908060018154018082558091505060019003906000526020600020906004020160009091909190915060008201518160000160006101000a81548173ffffffffffffffffffffffffffffffffffffffff021916908373ffffffffffffffffffffffffffffffffffffffff160217905550602082015181600101556040820151816002019081610a1091906116ab565b5060608201518160030160006101000a81548160ff021916908315150217905550505050505050565b60046020528160005260406000206020528060005260406000206000915091509054906101000a900460ff1681565b60016020528060005260406000206000915054906101000a900460ff1681565b60011515600160003373ffffffffffffffffffffffffffffffffffffffff1673ffffffffffffffffffffffffffffffffffffffff16815260200190815260200160002060009054906101000a900460ff16151514610b1b576040517f08c379a0000000000000000000000000000000000000000000000000000000008152600401610b1290611271565b60405180910390fd5b60008110158015610b30575060038054905081105b610b6f576040517f08c379a0000000000000000000000000000000000000000000000000000000008152600401610b66906112dd565b60405180910390fd5b6000151560038281548110610b8757610b86611369565b5b906000526020600020906004020160030160009054906101000a900460ff16151514610be8576040517f08c379a0000000000000000000000000000000000000000000000000000000008152600401610bdf906113e4565b60405180910390fd5b600254610bf482610dba565b1015610c35576040517f08c379a0000000000000000000000000000000000000000000000000000000008152600401610c2c906117c9565b60405180910390fd5b600160038281548110610c4b57610c4a611369565b5b906000526020600020906004020160030160006101000a81548160ff021916908315150217905550600060038281548110610c8957610c88611369565b5b906000526020600020906004020160000160009054906101000a900473ffffffffffffffffffffffffffffffffffffffff1673ffffffffffffffffffffffffffffffffffffffff1660038381548110610ce557610ce4611369565b5b90600052602060002090600402016001015460038481548110610d0b57610d0a611369565b5b9060005260206000209060040201600201604051610d299190611877565b60006040518083038185875af1925050503d8060008114610d66576040519150601f19603f3d011682016040523d82523d6000602084013e610d6b565b606091505b505090506001151581151514610db6576040517f08c379a0000000000000000000000000000000000000000000000000000000008152600401610dad906118da565b60405180910390fd5b5050565b600080600090505b600080549050811015610e975760011515600460008581526020019081526020016000206000808481548110610dfb57610dfa611369565b5b9060005260206000200160009054906101000a900473ffffffffffffffffffffffffffffffffffffffff1673ffffffffffffffffffffffffffffffffffffffff1673ffffffffffffffffffffffffffffffffffffffff16815260200190815260200160002060009054906101000a900460ff16151503610e84578180610e8090611929565b9250505b8080610e8f90611929565b915050610dc2565b50919050565b600080fd5b600080fd5b6000819050919050565b610eba81610ea7565b8114610ec557600080fd5b50565b600081359050610ed781610eb1565b92915050565b600060208284031215610ef357610ef2610e9d565b5b6000610f0184828501610ec8565b91505092915050565b600073ffffffffffffffffffffffffffffffffffffffff82169050919050565b6000610f3582610f0a565b9050919050565b610f4581610f2a565b82525050565b6000602082019050610f606000830184610f3c565b92915050565b610f6f81610ea7565b82525050565b6000602082019050610f8a6000830184610f66565b92915050565b600081519050919050565b600082825260208201905092915050565b60005b83811015610fca578082015181840152602081019050610faf565b60008484015250505050565b6000601f19601f8301169050919050565b6000610ff282610f90565b610ffc8185610f9b565b935061100c818560208601610fac565b61101581610fd6565b840191505092915050565b60008115159050919050565b61103581611020565b82525050565b60006080820190506110506000830187610f3c565b61105d6020830186610f66565b818103604083015261106f8185610fe7565b905061107e606083018461102c565b95945050505050565b61109081610f2a565b811461109b57600080fd5b50565b6000813590506110ad81611087565b92915050565b600080fd5b600080fd5b600080fd5b60008083601f8401126110d8576110d76110b3565b5b8235905067ffffffffffffffff8111156110f5576110f46110b8565b5b602083019150836001820283011115611111576111106110bd565b5b9250929050565b6000806000806060858703121561113257611131610e9d565b5b60006111408782880161109e565b945050602061115187828801610ec8565b935050604085013567ffffffffffffffff81111561117257611171610ea2565b5b61117e878288016110c2565b925092505092959194509250565b600080604083850312156111a3576111a2610e9d565b5b60006111b185828601610ec8565b92505060206111c28582860161109e565b9150509250929050565b60006020820190506111e1600083018461102c565b92915050565b6000602082840312156111fd576111fc610e9d565b5b600061120b8482850161109e565b91505092915050565b600082825260208201905092915050565b7f4e6f7420612076616c6964206f776e6572000000000000000000000000000000600082015250565b600061125b601183611214565b915061126682611225565b602082019050919050565b6000602082019050818103600083015261128a8161124e565b9050919050565b7f496e76616c6964207472616e73616374696f6e20494400000000000000000000600082015250565b60006112c7601683611214565b91506112d282611291565b602082019050919050565b600060208201905081810360008301526112f6816112ba565b9050919050565b7f5472616e73616374696f6e20616c726561647920617070726f76656400000000600082015250565b6000611333601c83611214565b915061133e826112fd565b602082019050919050565b6000602082019050818103600083015261136281611326565b9050919050565b7f4e487b7100000000000000000000000000000000000000000000000000000000600052603260045260246000fd5b7f5472616e73616374696f6e20616c726561647920657865637574656400000000600082015250565b60006113ce601c83611214565b91506113d982611398565b602082019050919050565b600060208201905081810360008301526113fd816113c1565b9050919050565b7f4e487b7100000000000000000000000000000000000000000000000000000000600052602260045260246000fd5b6000600282049050600182168061144b57607f821691505b60208210810361145e5761145d611404565b5b50919050565b7f5472616e73616374696f6e206973206e6f7420617070726f7665640000000000600082015250565b600061149a601b83611214565b91506114a582611464565b602082019050919050565b600060208201905081810360008301526114c98161148d565b9050919050565b7f4e487b7100000000000000000000000000000000000000000000000000000000600052604160045260246000fd5b60008190508160005260206000209050919050565b60006020601f8301049050919050565b600082821b905092915050565b6000600883026115617fffffffffffffffffffffffffffffffffffffffffffffffffffffffffffffffff82611524565b61156b8683611524565b95508019841693508086168417925050509392505050565b6000819050919050565b60006115a86115a361159e84610ea7565b611583565b610ea7565b9050919050565b6000819050919050565b6115c28361158d565b6115d66115ce826115af565b848454611531565b825550505050565b600090565b6115eb6115de565b6115f68184846115b9565b505050565b5b8181101561161a5761160f6000826115e3565b6001810190506115fc565b5050565b601f82111561165f57611630816114ff565b61163984611514565b81016020851015611648578190505b61165c61165485611514565b8301826115fb565b50505b505050565b600082821c905092915050565b600061168260001984600802611664565b1980831691505092915050565b600061169b8383611671565b9150826002028217905092915050565b6116b482610f90565b67ffffffffffffffff8111156116cd576116cc6114d0565b5b6116d78254611433565b6116e282828561161e565b600060209050601f8311600181146117155760008415611703578287015190505b61170d858261168f565b865550611775565b601f198416611723866114ff565b60005b8281101561174b57848901518255600182019150602085019450602081019050611726565b868310156117685784890151611764601f891682611671565b8355505b6001600288020188555050505b505050505050565b7f417070726f76616c73206e6f742073756666696369656e740000000000000000600082015250565b60006117b3601883611214565b91506117be8261177d565b602082019050919050565b600060208201905081810360008301526117e2816117a6565b9050919050565b600081905092915050565b6000815461180181611433565b61180b81866117e9565b94506001821660008114611826576001811461183b5761186e565b60ff198316865281151582028601935061186e565b611844856114ff565b60005b8381101561186657815481890152600182019150602081019050611847565b838801955050505b50505092915050565b600061188382846117f4565b915081905092915050565b7f5478206661696c65640000000000000000000000000000000000000000000000600082015250565b60006118c4600983611214565b91506118cf8261188e565b602082019050919050565b600060208201905081810360008301526118f3816118b7565b9050919050565b7f4e487b7100000000000000000000000000000000000000000000000000000000600052601160045260246000fd5b600061193482610ea7565b91507fffffffffffffffffffffffffffffffffffffffffffffffffffffffffffffffff8203611966576119656118fa565b5b60018201905091905056fea26469706673582212204afdbc330b73dd91796288038f53d4f52eaf08851a3443ef562023ff78e55b0b64736f6c63430008120033",
  "immutableReferences": {},
  "source": "//SPDX-License-Identifier:GPL-3.0\r\n\r\n/* This smart contract is for a simple multi signature wallet. It means \r\nthat the wallet has multiple owners and any transaction from this wallet \r\nwill need approval from majority of owners. The smart contract takes owners' addresses \r\nand the required no. of approvals at the time of compilation of the contract. \r\nAny owner can approve or revoke his approval from a transaction. The transaction \r\ncan be executed by any of the owners only when it is approved by the required no. of owners. \r\n\r\n*/\r\n\r\npragma solidity ^0.8.18;\r\n\r\ncontract WalletMultiSign {\r\n    address[] public owners;\r\n    mapping(address=>bool) public validOwner;\r\n    uint public requiredApprovals;\r\n    \r\n    struct Transaction {\r\n        address to;\r\n        uint sentValue;\r\n        bytes data;\r\n        bool executed;\r\n    }\r\n\r\n    Transaction[] public transactions;\r\n    mapping(uint=>mapping(address=>bool)) public approvedTransaction;\r\n\r\n    constructor(address[] memory _owners,uint _required) {\r\n        require(_owners.length>0,\"Atleast one owner\");\r\n        require(_required>0 && _required<=_owners.length,\"Invalid required approvals\");\r\n\r\n        for(uint i=0;i<_owners.length;i++) {\r\n            require(_owners[i]!=address(0),\"Invalid address\"); \r\n            require(validOwner[_owners[i]]==false,\"Owner is already registered\");\r\n            validOwner[_owners[i]]=true;\r\n            owners.push(_owners[i]);\r\n        }   \r\n\r\n       requiredApprovals=_required; \r\n\r\n    }\r\n\r\n    receive() external payable {\r\n\r\n    }\r\n\r\n    function submitTx(address _to, uint _sentValue,bytes calldata _data) external {\r\n        require(validOwner[msg.sender]==true,\"Not a valid owner\");\r\n        transactions.push(Transaction({\r\n            to:_to,\r\n            sentValue:_sentValue,\r\n            data:_data,\r\n            executed:false\r\n        }));\r\n    }\r\n\r\n    function approveTx(uint _txID) external {\r\n        require(validOwner[msg.sender]==true,\"Not a valid owner\");\r\n        require(_txID>=0 && _txID<transactions.length,\"Invalid transaction ID\");\r\n        require(approvedTransaction[_txID][msg.sender]==false,\"Transaction already approved\");\r\n        require(transactions[_txID].executed==false,\"Transaction already executed\");\r\n\r\n        approvedTransaction[_txID][msg.sender]=true;\r\n\r\n    }\r\n\r\n    function approvalCount(uint _txID) private view returns(uint count) {\r\n        for(uint i=0;i<owners.length;i++) {\r\n            if(approvedTransaction[_txID][owners[i]]==true) {\r\n                count++;\r\n            }\r\n        }\r\n    }\r\n\r\n    function execute(uint _txID) external {\r\n        require(validOwner[msg.sender]==true,\"Not a valid owner\");\r\n        require(_txID>=0 && _txID<transactions.length,\"Invalid transaction ID\");\r\n        require(transactions[_txID].executed==false,\"Transaction already executed\");\r\n        require(approvalCount(_txID)>=requiredApprovals,\"Approvals not sufficient\");\r\n        transactions[_txID].executed=true;\r\n        (bool success,) =transactions[_txID].to.call{value:transactions[_txID].sentValue}(transactions[_txID].data);\r\n        require(success==true,\"Tx failed\");\r\n\r\n    }\r\n\r\n    function revokeApproval(uint _txID) view external {\r\n        require(validOwner[msg.sender]==true,\"Not a valid owner\");\r\n        require(_txID>=0 && _txID<transactions.length,\"Invalid transaction ID\");\r\n        require(transactions[_txID].executed==false,\"Transaction already executed\");\r\n        require(approvedTransaction[_txID][msg.sender]==true,\"Transaction is not approved\");\r\n        approvedTransaction[_txID][msg.sender]==false; \r\n    }\r\n\r\n\r\n}\r\n\r\n\r\n\r\n",
  "sourcePath": "D:\\2) Web3\\1) Ethereum Smart contracts\\16) Multi signature wallet\\contracts\\WalletMultisign.sol",
  "compiler": {
    "name": "solc",
    "version": "0.8.18+commit.87f61d96.Emscripten.clang"
  },
  "schemaVersion": "3.4.11",
  "updatedAt": "2023-03-18T17:38:31.365Z",
  "networkType": "ethereum",
  "devdoc": {
    "kind": "dev",
    "methods": {},
    "version": 1
  },
  "userdoc": {
    "kind": "user",
    "methods": {},
    "version": 1
  }
}