{
  "contractName": "DEX",
  "abi": [
    {
      "inputs": [
        {
          "internalType": "address",
          "name": "TokenAddress",
          "type": "address"
        },
        {
          "internalType": "uint256",
          "name": "_rate",
          "type": "uint256"
        }
      ],
      "stateMutability": "nonpayable",
      "type": "constructor"
    },
    {
      "anonymous": false,
      "inputs": [
        {
          "indexed": false,
          "internalType": "uint256",
          "name": "amount",
          "type": "uint256"
        }
      ],
      "name": "Bought",
      "type": "event"
    },
    {
      "inputs": [],
      "name": "ContractOwner",
      "outputs": [
        {
          "internalType": "address",
          "name": "",
          "type": "address"
        }
      ],
      "stateMutability": "view",
      "type": "function"
    },
    {
      "inputs": [],
      "name": "Rate",
      "outputs": [
        {
          "internalType": "uint256",
          "name": "",
          "type": "uint256"
        }
      ],
      "stateMutability": "view",
      "type": "function"
    },
    {
      "inputs": [],
      "name": "token",
      "outputs": [
        {
          "internalType": "contract IERC20",
          "name": "",
          "type": "address"
        }
      ],
      "stateMutability": "view",
      "type": "function"
    },
    {
      "inputs": [],
      "name": "EtherToToken",
      "outputs": [],
      "stateMutability": "payable",
      "type": "function"
    },
    {
      "inputs": [
        {
          "internalType": "uint256",
          "name": "UserSendEther",
          "type": "uint256"
        }
      ],
      "name": "GetAmountsOut",
      "outputs": [
        {
          "internalType": "uint256",
          "name": "",
          "type": "uint256"
        }
      ],
      "stateMutability": "view",
      "type": "function"
    },
    {
      "inputs": [
        {
          "internalType": "uint256",
          "name": "NewRate",
          "type": "uint256"
        }
      ],
      "name": "SetRate",
      "outputs": [],
      "stateMutability": "nonpayable",
      "type": "function"
    },
    {
      "inputs": [
        {
          "internalType": "address",
          "name": "ToAddress",
          "type": "address"
        },
        {
          "internalType": "uint256",
          "name": "Amount",
          "type": "uint256"
        }
      ],
      "name": "TransferToken",
      "outputs": [],
      "stateMutability": "nonpayable",
      "type": "function"
    },
    {
      "inputs": [
        {
          "internalType": "address payable",
          "name": "_receiver",
          "type": "address"
        },
        {
          "internalType": "uint256",
          "name": "_Amount",
          "type": "uint256"
        }
      ],
      "name": "TransferETH",
      "outputs": [],
      "stateMutability": "nonpayable",
      "type": "function"
    }
  ],
  "bytecode": "0x6080604052670de0b6b3a76400006000553480156200001d57600080fd5b5060405162000e6438038062000e64833981810160405281019062000043919062000179565b81600260006101000a81548173ffffffffffffffffffffffffffffffffffffffff021916908373ffffffffffffffffffffffffffffffffffffffff16021790555033600160006101000a81548173ffffffffffffffffffffffffffffffffffffffff021916908373ffffffffffffffffffffffffffffffffffffffff160217905550806000819055505050620001c0565b600080fd5b600073ffffffffffffffffffffffffffffffffffffffff82169050919050565b60006200010682620000d9565b9050919050565b6200011881620000f9565b81146200012457600080fd5b50565b60008151905062000138816200010d565b92915050565b6000819050919050565b62000153816200013e565b81146200015f57600080fd5b50565b600081519050620001738162000148565b92915050565b60008060408385031215620001935762000192620000d4565b5b6000620001a38582860162000127565b9250506020620001b68582860162000162565b9150509250929050565b610c9480620001d06000396000f3fe60806040526004361061007b5760003560e01c80639dd3045b1161004e5780639dd3045b14610109578063cf2224cc14610132578063fc0c546a1461016f578063fd69c2151461019a5761007b565b80631b8e94a1146100805780632640b401146100ab5780632a79d70c146100d45780635a63fbc9146100de575b600080fd5b34801561008c57600080fd5b506100956101c3565b6040516100a2919061072f565b60405180910390f35b3480156100b757600080fd5b506100d260048036038101906100cd919061077b565b6101c9565b005b6100dc610263565b005b3480156100ea57600080fd5b506100f3610490565b60405161010091906107e9565b60405180910390f35b34801561011557600080fd5b50610130600480360381019061012b9190610830565b6104b6565b005b34801561013e57600080fd5b506101596004803603810190610154919061077b565b6105eb565b604051610166919061072f565b60405180910390f35b34801561017b57600080fd5b50610184610615565b60405161019191906108cf565b60405180910390f35b3480156101a657600080fd5b506101c160048036038101906101bc9190610928565b61063b565b005b60005481565b600160009054906101000a900473ffffffffffffffffffffffffffffffffffffffff1673ffffffffffffffffffffffffffffffffffffffff163373ffffffffffffffffffffffffffffffffffffffff1614610259576040517f08c379a0000000000000000000000000000000000000000000000000000000008152600401610250906109c5565b60405180910390fd5b8060008190555050565b60003490506000670de0b6b3a7640000600054836102819190610a14565b61028b9190610a85565b90506000600260009054906101000a900473ffffffffffffffffffffffffffffffffffffffff1673ffffffffffffffffffffffffffffffffffffffff166370a08231306040518263ffffffff1660e01b81526004016102ea91906107e9565b602060405180830381865afa158015610307573d6000803e3d6000fd5b505050506040513d601f19601f8201168201806040525081019061032b9190610acb565b905060008311610370576040517f08c379a000000000000000000000000000000000000000000000000000000000815260040161036790610b44565b60405180910390fd5b808211156103b3576040517f08c379a00000000000000000000000000000000000000000000000000000000081526004016103aa90610bb0565b60405180910390fd5b600260009054906101000a900473ffffffffffffffffffffffffffffffffffffffff1673ffffffffffffffffffffffffffffffffffffffff1663a9059cbb33846040518363ffffffff1660e01b8152600401610410929190610bd0565b6020604051808303816000875af115801561042f573d6000803e3d6000fd5b505050506040513d601f19601f820116820180604052508101906104539190610c31565b507f4e08ba899977cf7d4c2964bce71c6b9a7ef76ee5166a4c1249a1e08016e33ef182604051610483919061072f565b60405180910390a1505050565b600160009054906101000a900473ffffffffffffffffffffffffffffffffffffffff1681565b600160009054906101000a900473ffffffffffffffffffffffffffffffffffffffff1673ffffffffffffffffffffffffffffffffffffffff163373ffffffffffffffffffffffffffffffffffffffff1614610546576040517f08c379a000000000000000000000000000000000000000000000000000000000815260040161053d906109c5565b60405180910390fd5b600260009054906101000a900473ffffffffffffffffffffffffffffffffffffffff1673ffffffffffffffffffffffffffffffffffffffff1663a9059cbb83836040518363ffffffff1660e01b81526004016105a3929190610bd0565b6020604051808303816000875af11580156105c2573d6000803e3d6000fd5b505050506040513d601f19601f820116820180604052508101906105e69190610c31565b505050565b6000670de0b6b3a7640000600054836106049190610a14565b61060e9190610a85565b9050919050565b600260009054906101000a900473ffffffffffffffffffffffffffffffffffffffff1681565b600160009054906101000a900473ffffffffffffffffffffffffffffffffffffffff1673ffffffffffffffffffffffffffffffffffffffff163373ffffffffffffffffffffffffffffffffffffffff16146106cb576040517f08c379a00000000000000000000000000000000000000000000000000000000081526004016106c2906109c5565b60405180910390fd5b8173ffffffffffffffffffffffffffffffffffffffff166108fc829081150290604051600060405180830381858888f19350505050158015610711573d6000803e3d6000fd5b505050565b6000819050919050565b61072981610716565b82525050565b60006020820190506107446000830184610720565b92915050565b600080fd5b61075881610716565b811461076357600080fd5b50565b6000813590506107758161074f565b92915050565b6000602082840312156107915761079061074a565b5b600061079f84828501610766565b91505092915050565b600073ffffffffffffffffffffffffffffffffffffffff82169050919050565b60006107d3826107a8565b9050919050565b6107e3816107c8565b82525050565b60006020820190506107fe60008301846107da565b92915050565b61080d816107c8565b811461081857600080fd5b50565b60008135905061082a81610804565b92915050565b600080604083850312156108475761084661074a565b5b60006108558582860161081b565b925050602061086685828601610766565b9150509250929050565b6000819050919050565b600061089561089061088b846107a8565b610870565b6107a8565b9050919050565b60006108a78261087a565b9050919050565b60006108b98261089c565b9050919050565b6108c9816108ae565b82525050565b60006020820190506108e460008301846108c0565b92915050565b60006108f5826107a8565b9050919050565b610905816108ea565b811461091057600080fd5b50565b600081359050610922816108fc565b92915050565b6000806040838503121561093f5761093e61074a565b5b600061094d85828601610913565b925050602061095e85828601610766565b9150509250929050565b600082825260208201905092915050565b7f73656e646572206973206e6f7420746865206f776e6572000000000000000000600082015250565b60006109af601783610968565b91506109ba82610979565b602082019050919050565b600060208201905081810360008301526109de816109a2565b9050919050565b7f4e487b7100000000000000000000000000000000000000000000000000000000600052601160045260246000fd5b6000610a1f82610716565b9150610a2a83610716565b9250828202610a3881610716565b91508282048414831517610a4f57610a4e6109e5565b5b5092915050565b7f4e487b7100000000000000000000000000000000000000000000000000000000600052601260045260246000fd5b6000610a9082610716565b9150610a9b83610716565b925082610aab57610aaa610a56565b5b828204905092915050565b600081519050610ac58161074f565b92915050565b600060208284031215610ae157610ae061074a565b5b6000610aef84828501610ab6565b91505092915050565b7f596f75206e65656420746f2073656e6420736f6d652065746865720000000000600082015250565b6000610b2e601b83610968565b9150610b3982610af8565b602082019050919050565b60006020820190508181036000830152610b5d81610b21565b9050919050565b7f4e6f7420656e6f75676820746f6b656e7320696e207468652072657365727665600082015250565b6000610b9a602083610968565b9150610ba582610b64565b602082019050919050565b60006020820190508181036000830152610bc981610b8d565b9050919050565b6000604082019050610be560008301856107da565b610bf26020830184610720565b9392505050565b60008115159050919050565b610c0e81610bf9565b8114610c1957600080fd5b50565b600081519050610c2b81610c05565b92915050565b600060208284031215610c4757610c4661074a565b5b6000610c5584828501610c1c565b9150509291505056fea2646970667358221220a995a0fbc22e2c8b379e908b8d311331381f8f3946a04dd1eca10bfe816d3e4d64736f6c63430008120033",
  "immutableReferences": {},
  "source": "// SPDX-License-Identifier: MIT\r\npragma solidity ^0.8.0;\r\n\r\nimport \"../node_modules/@openzeppelin/contracts/utils/math/SafeMath.sol\";\r\n\r\ninterface IERC20 {\r\n\r\n    function totalSupply() external view returns (uint256);\r\n    function balanceOf(address account) external view returns (uint256);\r\n    function allowance(address owner, address spender) external view returns (uint256);\r\n\r\n    function transfer(address recipient, uint256 amount) external returns (bool);\r\n    function approve(address spender, uint256 amount) external returns (bool);\r\n    function transferFrom(address sender, address recipient, uint256 amount) external returns (bool);\r\n\r\n\r\n    event Transfer(address indexed from, address indexed to, uint256 value);\r\n    event Approval(address indexed owner, address indexed spender, uint256 value);\r\n}\r\n\r\n\r\n\r\n\r\ncontract DEX {\r\n\r\n    using SafeMath for uint;\r\n\r\n    event Bought(uint amount);\r\n    //event Sold(uint amount);\r\n\r\n    uint public Rate=1e18;\r\n\r\n\r\n    address public  ContractOwner;\r\n    IERC20 public token;\r\n\r\n    constructor(address TokenAddress,uint _rate) { \r\n           token = IERC20(TokenAddress);\r\n           ContractOwner=msg.sender;\r\n           Rate=_rate;\r\n    }\r\n\r\n\r\n     modifier onlyOwner() {\r\n        require(msg.sender == ContractOwner, \"sender is not the owner\");\r\n        _;\r\n    }\r\n\r\n\r\n    function EtherToToken() payable public {\r\n        uint UserSendEther = msg.value;\r\n        uint UserGetToken=UserSendEther * Rate/1e18;\r\n        uint dexBalance = token.balanceOf(address(this));\r\n        require(UserSendEther > 0, \"You need to send some ether\");\r\n        require(UserGetToken <= dexBalance, \"Not enough tokens in the reserve\");\r\n        token.transfer(msg.sender, UserGetToken);\r\n        emit Bought(UserGetToken);\r\n    }\r\n\r\n\r\n        function GetAmountsOut(uint UserSendEther)  view public returns (uint){\r\n            return  UserSendEther * Rate/1e18;\r\n        }\r\n\r\n        function SetRate(uint NewRate)    public onlyOwner {\r\n             Rate= NewRate;\r\n        }\r\n\r\n       function TransferToken(address ToAddress,uint Amount)    public onlyOwner {\r\n              token.transfer(ToAddress, Amount);\r\n        }\r\n\r\n\r\n       function TransferETH( address payable _receiver,uint256 _Amount) public onlyOwner  {\r\n        (_receiver).transfer(_Amount);\r\n       }\r\n\r\n\r\n/*\r\n    function sell(uint256 amount) public {\r\n        require(amount > 0, \"You need to sell at least some tokens\");\r\n        uint256 allowance = token.allowance(msg.sender, address(this));\r\n        require(allowance >= amount, \"Check the token allowance\");\r\n        token.transferFrom(msg.sender, address(this), amount);\r\n        payable(msg.sender).transfer(amount);\r\n        emit Sold(amount);\r\n    }\r\n*/\r\n}",
  "sourcePath": "D:\\2) Web3\\1) Ethereum Smart contracts\\21) MatrixTechno problem\\contracts\\SwapToken.sol",
  "compiler": {
    "name": "solc",
    "version": "0.8.18+commit.87f61d96.Emscripten.clang"
  },
  "schemaVersion": "3.4.11",
  "updatedAt": "2023-03-29T15:03:02.555Z",
  "devdoc": {
    "kind": "dev",
    "methods": {},
    "version": 1
  },
  "userdoc": {
    "kind": "user",
    "methods": {},
    "version": 1
  }
}