{
  "contractName": "Escrow",
  "abi": [
    {
      "inputs": [
        {
          "internalType": "address payable",
          "name": "_buyer",
          "type": "address"
        },
        {
          "internalType": "address payable",
          "name": "_seller",
          "type": "address"
        }
      ],
      "stateMutability": "payable",
      "type": "constructor",
      "payable": true
    },
    {
      "inputs": [],
      "name": "amount",
      "outputs": [
        {
          "internalType": "uint256",
          "name": "",
          "type": "uint256"
        }
      ],
      "stateMutability": "view",
      "type": "function",
      "constant": true
    },
    {
      "inputs": [],
      "name": "buyer",
      "outputs": [
        {
          "internalType": "address payable",
          "name": "",
          "type": "address"
        }
      ],
      "stateMutability": "view",
      "type": "function",
      "constant": true
    },
    {
      "inputs": [],
      "name": "buyerApproved",
      "outputs": [
        {
          "internalType": "bool",
          "name": "",
          "type": "bool"
        }
      ],
      "stateMutability": "view",
      "type": "function",
      "constant": true
    },
    {
      "inputs": [],
      "name": "buyerBalance",
      "outputs": [
        {
          "internalType": "int256",
          "name": "",
          "type": "int256"
        }
      ],
      "stateMutability": "view",
      "type": "function",
      "constant": true
    },
    {
      "inputs": [],
      "name": "contractBalance",
      "outputs": [
        {
          "internalType": "uint256",
          "name": "",
          "type": "uint256"
        }
      ],
      "stateMutability": "view",
      "type": "function",
      "constant": true
    },
    {
      "inputs": [],
      "name": "escrowAgent",
      "outputs": [
        {
          "internalType": "address payable",
          "name": "",
          "type": "address"
        }
      ],
      "stateMutability": "view",
      "type": "function",
      "constant": true
    },
    {
      "inputs": [],
      "name": "seller",
      "outputs": [
        {
          "internalType": "address payable",
          "name": "",
          "type": "address"
        }
      ],
      "stateMutability": "view",
      "type": "function",
      "constant": true
    },
    {
      "inputs": [],
      "name": "sellerApproved",
      "outputs": [
        {
          "internalType": "bool",
          "name": "",
          "type": "bool"
        }
      ],
      "stateMutability": "view",
      "type": "function",
      "constant": true
    },
    {
      "inputs": [],
      "name": "sellerBalance",
      "outputs": [
        {
          "internalType": "uint256",
          "name": "",
          "type": "uint256"
        }
      ],
      "stateMutability": "view",
      "type": "function",
      "constant": true
    },
    {
      "inputs": [],
      "name": "receiveFromBuyer",
      "outputs": [],
      "stateMutability": "payable",
      "type": "function",
      "payable": true
    },
    {
      "inputs": [],
      "name": "approveBySeller",
      "outputs": [],
      "stateMutability": "nonpayable",
      "type": "function"
    },
    {
      "inputs": [],
      "name": "approveByBuyer",
      "outputs": [],
      "stateMutability": "nonpayable",
      "type": "function"
    },
    {
      "inputs": [],
      "name": "release",
      "outputs": [],
      "stateMutability": "nonpayable",
      "type": "function"
    },
    {
      "inputs": [],
      "name": "refund",
      "outputs": [],
      "stateMutability": "nonpayable",
      "type": "function"
    }
  ],
  "bytecode": "0x60806040526040516200107a3803806200107a833981810160405281019062000029919062000193565b816000806101000a81548173ffffffffffffffffffffffffffffffffffffffff021916908373ffffffffffffffffffffffffffffffffffffffff16021790555080600160006101000a81548173ffffffffffffffffffffffffffffffffffffffff021916908373ffffffffffffffffffffffffffffffffffffffff16021790555033600260006101000a81548173ffffffffffffffffffffffffffffffffffffffff021916908373ffffffffffffffffffffffffffffffffffffffff1602179055506000600760006101000a81548160ff0219169083151502179055506000600760016101000a81548160ff0219169083151502179055505050620001da565b600080fd5b600073ffffffffffffffffffffffffffffffffffffffff82169050919050565b60006200015b826200012e565b9050919050565b6200016d816200014e565b81146200017957600080fd5b50565b6000815190506200018d8162000162565b92915050565b60008060408385031215620001ad57620001ac62000129565b5b6000620001bd858286016200017c565b9250506020620001d0858286016200017c565b9150509250929050565b610e9080620001ea6000396000f3fe6080604052600436106100dd5760003560e01c80638b7afe2e1161007f578063aa8c217c11610059578063aa8c217c14610233578063e1f6c0981461025e578063e6cdc70814610289578063ff80a389146102b4576100dd565b80638b7afe2e146101d357806399f5c369146101fe5780639fc6cd4a14610229576100dd565b80636cc332ce116100bb5780636cc332ce1461014f5780637150d8ae14610166578063867a06b31461019157806386d1a69f146101bc576100dd565b806308551a53146100e2578063220ef69f1461010d578063590e1ae314610138575b600080fd5b3480156100ee57600080fd5b506100f76102cb565b604051610104919061092c565b60405180910390f35b34801561011957600080fd5b506101226102f1565b60405161012f9190610962565b60405180910390f35b34801561014457600080fd5b5061014d610304565b005b34801561015b57600080fd5b506101646104a9565b005b34801561017257600080fd5b5061017b610556565b604051610188919061092c565b60405180910390f35b34801561019d57600080fd5b506101a661057a565b6040516101b39190610996565b60405180910390f35b3480156101c857600080fd5b506101d1610580565b005b3480156101df57600080fd5b506101e8610728565b6040516101f59190610996565b60405180910390f35b34801561020a57600080fd5b5061021361072e565b6040516102209190610962565b60405180910390f35b610231610741565b005b34801561023f57600080fd5b5061024861080e565b6040516102559190610996565b60405180910390f35b34801561026a57600080fd5b50610273610814565b604051610280919061092c565b60405180910390f35b34801561029557600080fd5b5061029e61083a565b6040516102ab91906109ca565b60405180910390f35b3480156102c057600080fd5b506102c9610840565b005b600160009054906101000a900473ffffffffffffffffffffffffffffffffffffffff1681565b600760009054906101000a900460ff1681565b60001515600760009054906101000a900460ff1615151480610339575060001515600760019054906101000a900460ff161515145b610378576040517f08c379a000000000000000000000000000000000000000000000000000000000815260040161036f90610a8e565b60405180910390fd5b600260009054906101000a900473ffffffffffffffffffffffffffffffffffffffff1673ffffffffffffffffffffffffffffffffffffffff163373ffffffffffffffffffffffffffffffffffffffff1614610408576040517f08c379a00000000000000000000000000000000000000000000000000000000081526004016103ff90610afa565b60405180910390fd5b60008054906101000a900473ffffffffffffffffffffffffffffffffffffffff1673ffffffffffffffffffffffffffffffffffffffff166108fc6006549081150290604051600060405180830381858888f19350505050158015610470573d6000803e3d6000fd5b50600654600360008282546104859190610b49565b92505081905550600654600460008282546104a09190610b7d565b92505081905550565b600160009054906101000a900473ffffffffffffffffffffffffffffffffffffffff1673ffffffffffffffffffffffffffffffffffffffff163373ffffffffffffffffffffffffffffffffffffffff1614610539576040517f08c379a000000000000000000000000000000000000000000000000000000000815260040161053090610c0d565b60405180910390fd5b6001600760006101000a81548160ff021916908315150217905550565b60008054906101000a900473ffffffffffffffffffffffffffffffffffffffff1681565b60055481565b60011515600760009054906101000a900460ff1615151480156105b6575060011515600760019054906101000a900460ff161515145b6105f5576040517f08c379a00000000000000000000000000000000000000000000000000000000081526004016105ec90610cc5565b60405180910390fd5b600260009054906101000a900473ffffffffffffffffffffffffffffffffffffffff1673ffffffffffffffffffffffffffffffffffffffff163373ffffffffffffffffffffffffffffffffffffffff1614610685576040517f08c379a000000000000000000000000000000000000000000000000000000000815260040161067c90610afa565b60405180910390fd5b600160009054906101000a900473ffffffffffffffffffffffffffffffffffffffff1673ffffffffffffffffffffffffffffffffffffffff166108fc6006549081150290604051600060405180830381858888f193505050501580156106ef573d6000803e3d6000fd5b50600654600360008282546107049190610b49565b925050819055506006546005600082825461071f9190610ce5565b92505081905550565b60035481565b600760019054906101000a900460ff1681565b60008054906101000a900473ffffffffffffffffffffffffffffffffffffffff1673ffffffffffffffffffffffffffffffffffffffff163373ffffffffffffffffffffffffffffffffffffffff16146107cf576040517f08c379a00000000000000000000000000000000000000000000000000000000081526004016107c690610d8b565b60405180910390fd5b34600681905550600654600360008282546107ea9190610ce5565b92505081905550600654600460008282546108059190610dab565b92505081905550565b60065481565b600260009054906101000a900473ffffffffffffffffffffffffffffffffffffffff1681565b60045481565b60008054906101000a900473ffffffffffffffffffffffffffffffffffffffff1673ffffffffffffffffffffffffffffffffffffffff163373ffffffffffffffffffffffffffffffffffffffff16146108ce576040517f08c379a00000000000000000000000000000000000000000000000000000000081526004016108c590610e3a565b60405180910390fd5b6001600760016101000a81548160ff021916908315150217905550565b600073ffffffffffffffffffffffffffffffffffffffff82169050919050565b6000610916826108eb565b9050919050565b6109268161090b565b82525050565b6000602082019050610941600083018461091d565b92915050565b60008115159050919050565b61095c81610947565b82525050565b60006020820190506109776000830184610953565b92915050565b6000819050919050565b6109908161097d565b82525050565b60006020820190506109ab6000830184610987565b92915050565b6000819050919050565b6109c4816109b1565b82525050565b60006020820190506109df60008301846109bb565b92915050565b600082825260208201905092915050565b7f426f74682073656c6c657220616e64206275796572206861766520617070726f60008201527f76656420746865207472616e736665722c20736f20726566756e64206e6f742060208201527f706f737369626c65000000000000000000000000000000000000000000000000604082015250565b6000610a786048836109e5565b9150610a83826109f6565b606082019050919050565b60006020820190508181036000830152610aa781610a6b565b9050919050565b7f596f7520617265206e6f742074686520657363726f77206167656e7400000000600082015250565b6000610ae4601c836109e5565b9150610aef82610aae565b602082019050919050565b60006020820190508181036000830152610b1381610ad7565b9050919050565b7f4e487b7100000000000000000000000000000000000000000000000000000000600052601160045260246000fd5b6000610b548261097d565b9150610b5f8361097d565b9250828203905081811115610b7757610b76610b1a565b5b92915050565b6000610b88826109b1565b9150610b93836109b1565b925082820190508281121560008312168382126000841215161715610bbb57610bba610b1a565b5b92915050565b7f596f7520617265206e6f74207468652073656c6c657200000000000000000000600082015250565b6000610bf76016836109e5565b9150610c0282610bc1565b602082019050919050565b60006020820190508181036000830152610c2681610bea565b9050919050565b7f416d6f756e742063616e742062652072656c656173656420776974686f75742060008201527f636f6e63757272656e6365206f6620626f746820627579657220616e6420736560208201527f6c6c657200000000000000000000000000000000000000000000000000000000604082015250565b6000610caf6044836109e5565b9150610cba82610c2d565b606082019050919050565b60006020820190508181036000830152610cde81610ca2565b9050919050565b6000610cf08261097d565b9150610cfb8361097d565b9250828201905080821115610d1357610d12610b1a565b5b92915050565b7f416d6f756e742063616e206f6e6c79206265207472616e73666572726564206260008201527f7920627579657200000000000000000000000000000000000000000000000000602082015250565b6000610d756027836109e5565b9150610d8082610d19565b604082019050919050565b60006020820190508181036000830152610da481610d68565b9050919050565b6000610db6826109b1565b9150610dc1836109b1565b9250828203905081811260008412168282136000851215161715610de857610de7610b1a565b5b92915050565b7f596f7520617265206e6f74207468652062757965720000000000000000000000600082015250565b6000610e246015836109e5565b9150610e2f82610dee565b602082019050919050565b60006020820190508181036000830152610e5381610e17565b905091905056fea26469706673582212205e89896422e0c2c7103f15cc44d6030ade1e9c30fe69d867708af6591402e9ea64736f6c63430008120033",
  "immutableReferences": {},
  "source": "//SPDX-License-Identifier:GPL-3.0\r\n\r\n/* This smart contract implements a trustless escrow system where funds are kept \r\nwith the smart contract until both buyer and seller approve the transfer of amount\r\nto the seller. Then the escrow releases the amount to the seller.\r\n\r\n@Devs, kindly change the address of the buyer and seller from the 1_migration.js as \r\nper your case. These are passed as argument of constructor of the contract.\r\n\r\n*/\r\n\r\npragma solidity ^0.8.0;\r\n\r\ncontract Escrow {\r\n    address payable public buyer;\r\n    address payable public seller;\r\n    address payable public escrowAgent;\r\n    uint public contractBalance;\r\n    int public buyerBalance;\r\n    uint public sellerBalance;\r\n    uint public amount;\r\n    bool public sellerApproved;\r\n    bool public buyerApproved;\r\n\r\n    constructor(address payable _buyer, address payable _seller) payable {\r\n        buyer = _buyer;\r\n        seller = _seller;\r\n        escrowAgent = payable(msg.sender);\r\n        sellerApproved = false;\r\n        buyerApproved = false;\r\n    }\r\n\r\n    function receiveFromBuyer() public payable {\r\n        require(msg.sender==buyer,\"Amount can only be transferred by buyer\");\r\n        amount=msg.value;\r\n        contractBalance+=amount;\r\n        buyerBalance-=int(amount);\r\n\r\n    }\r\n\r\n    function approveBySeller() public {\r\n        require(msg.sender == seller,\"You are not the seller\");\r\n        sellerApproved = true;\r\n    }\r\n\r\n    function approveByBuyer() public {\r\n        require(msg.sender == buyer,\"You are not the buyer\");\r\n        buyerApproved = true;\r\n    }\r\n\r\n    function release() public {\r\n        require(sellerApproved == true && buyerApproved == true,\"Amount cant be released without concurrence of both buyer and seller\");\r\n        require(msg.sender == escrowAgent,\"You are not the escrow agent\");\r\n        payable(seller).transfer(amount);\r\n        contractBalance-=amount;\r\n        sellerBalance+=amount;\r\n    }\r\n\r\n    function refund() public {\r\n        require(sellerApproved == false || buyerApproved == false,\"Both seller and buyer have approved the transfer, so refund not possible\");\r\n        require(msg.sender == escrowAgent,\"You are not the escrow agent\");\r\n        payable(buyer).transfer(amount);\r\n        contractBalance-=amount;\r\n        buyerBalance+=int(amount);\r\n    }\r\n}\r\n",
  "sourcePath": "D:\\2) Web3\\1) Ethereum Smart contracts\\13) Transfer of money through an escrow agent\\contracts\\Escrow.sol",
  "compiler": {
    "name": "solc",
    "version": "0.8.18+commit.87f61d96.Emscripten.clang"
  },
  "schemaVersion": "3.4.11",
  "updatedAt": "2023-03-15T17:02:07.602Z",
  "networkType": "ethereum",
  "devdoc": {
    "kind": "dev",
    "methods": {},
    "version": 1
  },
  "userdoc": {
    "kind": "user",
    "methods": {},
    "version": 1
  }
}