{
  "contractName": "CreateERC20",
  "abi": [
    {
      "inputs": [],
      "stateMutability": "nonpayable",
      "type": "constructor"
    },
    {
      "anonymous": false,
      "inputs": [
        {
          "indexed": true,
          "internalType": "address",
          "name": "tokenHolder",
          "type": "address"
        },
        {
          "indexed": true,
          "internalType": "address",
          "name": "thirdParty",
          "type": "address"
        },
        {
          "indexed": false,
          "internalType": "uint256",
          "name": "tokenAmount",
          "type": "uint256"
        }
      ],
      "name": "Approval",
      "type": "event"
    },
    {
      "anonymous": false,
      "inputs": [
        {
          "indexed": true,
          "internalType": "address",
          "name": "sender",
          "type": "address"
        },
        {
          "indexed": true,
          "internalType": "address",
          "name": "reciever",
          "type": "address"
        },
        {
          "indexed": false,
          "internalType": "uint256",
          "name": "tokenAmount",
          "type": "uint256"
        }
      ],
      "name": "Transfer",
      "type": "event"
    },
    {
      "inputs": [],
      "name": "creator",
      "outputs": [
        {
          "internalType": "address",
          "name": "",
          "type": "address"
        }
      ],
      "stateMutability": "view",
      "type": "function",
      "constant": true
    },
    {
      "inputs": [],
      "name": "decimal",
      "outputs": [
        {
          "internalType": "uint256",
          "name": "",
          "type": "uint256"
        }
      ],
      "stateMutability": "view",
      "type": "function",
      "constant": true
    },
    {
      "inputs": [],
      "name": "mintedTokens",
      "outputs": [
        {
          "internalType": "uint256",
          "name": "",
          "type": "uint256"
        }
      ],
      "stateMutability": "view",
      "type": "function",
      "constant": true
    },
    {
      "inputs": [
        {
          "internalType": "address",
          "name": "",
          "type": "address"
        }
      ],
      "name": "tokenBalance",
      "outputs": [
        {
          "internalType": "uint256",
          "name": "",
          "type": "uint256"
        }
      ],
      "stateMutability": "view",
      "type": "function",
      "constant": true
    },
    {
      "inputs": [],
      "name": "tokenName",
      "outputs": [
        {
          "internalType": "string",
          "name": "",
          "type": "string"
        }
      ],
      "stateMutability": "view",
      "type": "function",
      "constant": true
    },
    {
      "inputs": [],
      "name": "tokenSymbol",
      "outputs": [
        {
          "internalType": "string",
          "name": "",
          "type": "string"
        }
      ],
      "stateMutability": "view",
      "type": "function",
      "constant": true
    },
    {
      "inputs": [],
      "name": "totalSupply",
      "outputs": [
        {
          "internalType": "uint256",
          "name": "",
          "type": "uint256"
        }
      ],
      "stateMutability": "view",
      "type": "function",
      "constant": true
    },
    {
      "inputs": [
        {
          "internalType": "address",
          "name": "tokenHolder",
          "type": "address"
        }
      ],
      "name": "balanceOf",
      "outputs": [
        {
          "internalType": "uint256",
          "name": "",
          "type": "uint256"
        }
      ],
      "stateMutability": "view",
      "type": "function",
      "constant": true
    },
    {
      "inputs": [
        {
          "internalType": "address",
          "name": "reciever",
          "type": "address"
        },
        {
          "internalType": "uint256",
          "name": "tokenAmount",
          "type": "uint256"
        }
      ],
      "name": "transfer",
      "outputs": [],
      "stateMutability": "nonpayable",
      "type": "function"
    },
    {
      "inputs": [
        {
          "internalType": "address",
          "name": "thirdParty",
          "type": "address"
        },
        {
          "internalType": "uint256",
          "name": "tokenAmount",
          "type": "uint256"
        }
      ],
      "name": "approve",
      "outputs": [],
      "stateMutability": "nonpayable",
      "type": "function"
    },
    {
      "inputs": [
        {
          "internalType": "address",
          "name": "sender",
          "type": "address"
        },
        {
          "internalType": "address",
          "name": "reciever",
          "type": "address"
        },
        {
          "internalType": "uint256",
          "name": "tokenAmount",
          "type": "uint256"
        }
      ],
      "name": "transferFrom",
      "outputs": [],
      "stateMutability": "nonpayable",
      "type": "function"
    },
    {
      "inputs": [
        {
          "internalType": "address",
          "name": "_tokenHolder",
          "type": "address"
        },
        {
          "internalType": "address",
          "name": "_thirdParty",
          "type": "address"
        }
      ],
      "name": "allowanceLimit",
      "outputs": [
        {
          "internalType": "uint256",
          "name": "",
          "type": "uint256"
        }
      ],
      "stateMutability": "view",
      "type": "function",
      "constant": true
    }
  ],
  "bytecode": "0x60806040523480156200001157600080fd5b5033600660006101000a81548173ffffffffffffffffffffffffffffffffffffffff021916908373ffffffffffffffffffffffffffffffffffffffff1602179055506040518060400160405280600b81526020017f424954532050494c414e4900000000000000000000000000000000000000000081525060029081620000999190620003d9565b506040518060400160405280600481526020017f424954530000000000000000000000000000000000000000000000000000000081525060039081620000e09190620003d9565b50600060048190555061c350600581905550600554600080600660009054906101000a900473ffffffffffffffffffffffffffffffffffffffff1673ffffffffffffffffffffffffffffffffffffffff1673ffffffffffffffffffffffffffffffffffffffff16815260200190815260200160002081905550620004c0565b600081519050919050565b7f4e487b7100000000000000000000000000000000000000000000000000000000600052604160045260246000fd5b7f4e487b7100000000000000000000000000000000000000000000000000000000600052602260045260246000fd5b60006002820490506001821680620001e157607f821691505b602082108103620001f757620001f662000199565b5b50919050565b60008190508160005260206000209050919050565b60006020601f8301049050919050565b600082821b905092915050565b600060088302620002617fffffffffffffffffffffffffffffffffffffffffffffffffffffffffffffffff8262000222565b6200026d868362000222565b95508019841693508086168417925050509392505050565b6000819050919050565b6000819050919050565b6000620002ba620002b4620002ae8462000285565b6200028f565b62000285565b9050919050565b6000819050919050565b620002d68362000299565b620002ee620002e582620002c1565b8484546200022f565b825550505050565b600090565b62000305620002f6565b62000312818484620002cb565b505050565b5b818110156200033a576200032e600082620002fb565b60018101905062000318565b5050565b601f82111562000389576200035381620001fd565b6200035e8462000212565b810160208510156200036e578190505b620003866200037d8562000212565b83018262000317565b50505b505050565b600082821c905092915050565b6000620003ae600019846008026200038e565b1980831691505092915050565b6000620003c983836200039b565b9150826002028217905092915050565b620003e4826200015f565b67ffffffffffffffff8111156200040057620003ff6200016a565b5b6200040c8254620001c8565b620004198282856200033e565b600060209050601f8311600181146200045157600084156200043c578287015190505b620004488582620003bb565b865550620004b8565b601f1984166200046186620001fd565b60005b828110156200048b5784890151825560018201915060208501945060208101905062000464565b86831015620004ab5784890151620004a7601f8916826200039b565b8355505b6001600288020188555050505b505050505050565b61118580620004d06000396000f3fe608060405234801561001057600080fd5b50600436106100b45760003560e01c806370a082311161007157806370a082311461017b57806376809ce3146101ab5780637b61c320146101c95780638d75fe05146101e7578063a9059cbb14610205578063eedc966a14610221576100b4565b806302d05d3f146100b9578063095ea7b3146100d757806318160ddd146100f357806323b872dd146101115780634fe532771461012d5780636c02a9311461015d575b600080fd5b6100c1610251565b6040516100ce9190610b92565b60405180910390f35b6100f160048036038101906100ec9190610c14565b610277565b005b6100fb610437565b6040516101089190610c63565b60405180910390f35b61012b60048036038101906101269190610c7e565b610441565b005b61014760048036038101906101429190610cd1565b61076b565b6040516101549190610c63565b60405180910390f35b6101656107f2565b6040516101729190610da1565b60405180910390f35b61019560048036038101906101909190610dc3565b610880565b6040516101a29190610c63565b60405180910390f35b6101b36108c8565b6040516101c09190610c63565b60405180910390f35b6101d16108ce565b6040516101de9190610da1565b60405180910390f35b6101ef61095c565b6040516101fc9190610c63565b60405180910390f35b61021f600480360381019061021a9190610c14565b610962565b005b61023b60048036038101906102369190610dc3565b610b39565b6040516102489190610c63565b60405180910390f35b600660009054906101000a900473ffffffffffffffffffffffffffffffffffffffff1681565b806000803373ffffffffffffffffffffffffffffffffffffffff1673ffffffffffffffffffffffffffffffffffffffff1681526020019081526020016000205410156102f8576040517f08c379a00000000000000000000000000000000000000000000000000000000081526004016102ef90610e3c565b60405180910390fd5b6000811161033b576040517f08c379a000000000000000000000000000000000000000000000000000000000815260040161033290610ece565b60405180910390fd5b80600160003373ffffffffffffffffffffffffffffffffffffffff1673ffffffffffffffffffffffffffffffffffffffff16815260200190815260200160002060008473ffffffffffffffffffffffffffffffffffffffff1673ffffffffffffffffffffffffffffffffffffffff16815260200190815260200160002060008282546103c79190610f1d565b925050819055508173ffffffffffffffffffffffffffffffffffffffff163373ffffffffffffffffffffffffffffffffffffffff167f8c5be1e5ebec7d5bd14f71427d1e84f3dd0314c0f7b2291e5b200ac8c7c3b9258360405161042b9190610c63565b60405180910390a35050565b6000600554905090565b60008111610484576040517f08c379a000000000000000000000000000000000000000000000000000000000815260040161047b90610fc3565b60405180910390fd5b806000808573ffffffffffffffffffffffffffffffffffffffff1673ffffffffffffffffffffffffffffffffffffffff168152602001908152602001600020541015610505576040517f08c379a00000000000000000000000000000000000000000000000000000000081526004016104fc90610e3c565b60405180910390fd5b80600160008573ffffffffffffffffffffffffffffffffffffffff1673ffffffffffffffffffffffffffffffffffffffff16815260200190815260200160002060003373ffffffffffffffffffffffffffffffffffffffff1673ffffffffffffffffffffffffffffffffffffffff1681526020019081526020016000205410156105c4576040517f08c379a00000000000000000000000000000000000000000000000000000000081526004016105bb9061102f565b60405180910390fd5b806000808573ffffffffffffffffffffffffffffffffffffffff1673ffffffffffffffffffffffffffffffffffffffff1681526020019081526020016000206000828254610612919061104f565b92505081905550806000808473ffffffffffffffffffffffffffffffffffffffff1673ffffffffffffffffffffffffffffffffffffffff16815260200190815260200160002060008282546106679190610f1d565b9250508190555080600160008573ffffffffffffffffffffffffffffffffffffffff1673ffffffffffffffffffffffffffffffffffffffff16815260200190815260200160002060003373ffffffffffffffffffffffffffffffffffffffff1673ffffffffffffffffffffffffffffffffffffffff16815260200190815260200160002060008282546106fa919061104f565b925050819055508173ffffffffffffffffffffffffffffffffffffffff168373ffffffffffffffffffffffffffffffffffffffff167fddf252ad1be2c89b69c2b068fc378daa952ba7f163c4a11628f55a4df523b3ef8360405161075e9190610c63565b60405180910390a3505050565b6000600160008473ffffffffffffffffffffffffffffffffffffffff1673ffffffffffffffffffffffffffffffffffffffff16815260200190815260200160002060008373ffffffffffffffffffffffffffffffffffffffff1673ffffffffffffffffffffffffffffffffffffffff16815260200190815260200160002054905092915050565b600280546107ff906110b2565b80601f016020809104026020016040519081016040528092919081815260200182805461082b906110b2565b80156108785780601f1061084d57610100808354040283529160200191610878565b820191906000526020600020905b81548152906001019060200180831161085b57829003601f168201915b505050505081565b60008060008373ffffffffffffffffffffffffffffffffffffffff1673ffffffffffffffffffffffffffffffffffffffff168152602001908152602001600020549050919050565b60045481565b600380546108db906110b2565b80601f0160208091040260200160405190810160405280929190818152602001828054610907906110b2565b80156109545780601f1061092957610100808354040283529160200191610954565b820191906000526020600020905b81548152906001019060200180831161093757829003601f168201915b505050505081565b60055481565b806000803373ffffffffffffffffffffffffffffffffffffffff1673ffffffffffffffffffffffffffffffffffffffff1681526020019081526020016000205410156109e3576040517f08c379a00000000000000000000000000000000000000000000000000000000081526004016109da9061112f565b60405180910390fd5b60008111610a26576040517f08c379a0000000000000000000000000000000000000000000000000000000008152600401610a1d90610fc3565b60405180910390fd5b806000803373ffffffffffffffffffffffffffffffffffffffff1673ffffffffffffffffffffffffffffffffffffffff1681526020019081526020016000206000828254610a74919061104f565b92505081905550806000808473ffffffffffffffffffffffffffffffffffffffff1673ffffffffffffffffffffffffffffffffffffffff1681526020019081526020016000206000828254610ac99190610f1d565b925050819055508173ffffffffffffffffffffffffffffffffffffffff163373ffffffffffffffffffffffffffffffffffffffff167fddf252ad1be2c89b69c2b068fc378daa952ba7f163c4a11628f55a4df523b3ef83604051610b2d9190610c63565b60405180910390a35050565b60006020528060005260406000206000915090505481565b600073ffffffffffffffffffffffffffffffffffffffff82169050919050565b6000610b7c82610b51565b9050919050565b610b8c81610b71565b82525050565b6000602082019050610ba76000830184610b83565b92915050565b600080fd5b610bbb81610b71565b8114610bc657600080fd5b50565b600081359050610bd881610bb2565b92915050565b6000819050919050565b610bf181610bde565b8114610bfc57600080fd5b50565b600081359050610c0e81610be8565b92915050565b60008060408385031215610c2b57610c2a610bad565b5b6000610c3985828601610bc9565b9250506020610c4a85828601610bff565b9150509250929050565b610c5d81610bde565b82525050565b6000602082019050610c786000830184610c54565b92915050565b600080600060608486031215610c9757610c96610bad565b5b6000610ca586828701610bc9565b9350506020610cb686828701610bc9565b9250506040610cc786828701610bff565b9150509250925092565b60008060408385031215610ce857610ce7610bad565b5b6000610cf685828601610bc9565b9250506020610d0785828601610bc9565b9150509250929050565b600081519050919050565b600082825260208201905092915050565b60005b83811015610d4b578082015181840152602081019050610d30565b60008484015250505050565b6000601f19601f8301169050919050565b6000610d7382610d11565b610d7d8185610d1c565b9350610d8d818560208601610d2d565b610d9681610d57565b840191505092915050565b60006020820190508181036000830152610dbb8184610d68565b905092915050565b600060208284031215610dd957610dd8610bad565b5b6000610de784828501610bc9565b91505092915050565b7f496e73756666696369656e742062616c616e6365000000000000000000000000600082015250565b6000610e26601483610d1c565b9150610e3182610df0565b602082019050919050565b60006020820190508181036000830152610e5581610e19565b9050919050565b7f4b696e646c792067657420617070726f76616c20666f7220746f6b656e73206d60008201527f6f7265207468616e207a65726f00000000000000000000000000000000000000602082015250565b6000610eb8602d83610d1c565b9150610ec382610e5c565b604082019050919050565b60006020820190508181036000830152610ee781610eab565b9050919050565b7f4e487b7100000000000000000000000000000000000000000000000000000000600052601160045260246000fd5b6000610f2882610bde565b9150610f3383610bde565b9250828201905080821115610f4b57610f4a610eee565b5b92915050565b7f4b696e646c79207472616e7366657220746f6b656e73206d6f7265207468616e60008201527f207a65726f000000000000000000000000000000000000000000000000000000602082015250565b6000610fad602583610d1c565b9150610fb882610f51565b604082019050919050565b60006020820190508181036000830152610fdc81610fa0565b9050919050565b7f496e73756666696369656e7420616c6c6f77616e636500000000000000000000600082015250565b6000611019601683610d1c565b915061102482610fe3565b602082019050919050565b600060208201905081810360008301526110488161100c565b9050919050565b600061105a82610bde565b915061106583610bde565b925082820390508181111561107d5761107c610eee565b5b92915050565b7f4e487b7100000000000000000000000000000000000000000000000000000000600052602260045260246000fd5b600060028204905060018216806110ca57607f821691505b6020821081036110dd576110dc611083565b5b50919050565b7f496e73756666696369656e7420746f6b656e7300000000000000000000000000600082015250565b6000611119601383610d1c565b9150611124826110e3565b602082019050919050565b600060208201905081810360008301526111488161110c565b905091905056fea264697066735822122025a8748b0b6c44ae27e38077bb3bb1e2a28b5bd1f358c63835536e3aa3256d2f64736f6c63430008120033",
  "immutableReferences": {},
  "source": "// SPDX-License-Identifier: GPL-3.0\r\npragma solidity ^0.8.0;\r\n/*\r\nAbout the code : \r\n\r\nThis solidity smart contract creates ERC20 tokens with user defined name and symbol.\r\nThe owner of the token contract can mint as many tokens as he wishes to and can also burn tokens,\r\nalthough in real world, there should be checks on the maximum number of tokens that can be issued\r\nto control inflation of token. \r\n\r\nHere for the purpose of the project we have initialised the name, symbol, decimal and the total supply \r\nof tokens Although a separate mint function can be created to create new tokens based on \r\ncreators wish whenever he/ she wants to mint new tokens.\r\n\r\nThe smart contract provides the functionality to transfer the tokens from the token holder \r\nto any account address by calling transfer() function  \r\nThe smart contract also provides the functionality to transfer tokens on token holder's \r\nbehalf using transferFrom() function. For this functionality, allowance limit is set for \r\nthe address which will be transferring tokens on token holder's behalf. The token holder \r\napproves the allowance limit of all such addresses which can send tokens on its behalf. \r\nThe ERC-20 standard mandates use of minimum 6 functions - function to return total supply \r\nof tokens, function to return the token balance of addresses, function to transfer token \r\nfrom one address to other, function to approve the allowance limit in case third party \r\ntransfers tokens on token holders behalf, function for third party transfer from \r\ntoken holder's address to a recipient address and lastly a function to return the allowance \r\nlimit set by the token holder for the third partyh address which will transfer the tokens \r\non token holders behalf.\r\nThe ERC-20 standard also mandates minimum 2 events to be created - event to be logged \r\nwhenever token is transferred from one address to the other and event to be logged whenever \r\nan allowance limit is approved by a token holder for the transfer of token by a third party\r\non token holder's behalf. \r\n*/\r\n\r\n/* To ensure that all the 6 functions and the two events are present in the token contract,\r\nwe first create an interface contract having the mandated 6 functions and 2 event. Then we \r\ncan inherit this interface contract into out token contract.\r\n*/ \r\n\r\ninterface IERC20 {\r\n    function totalSupply() external view returns(uint); \r\n    function balanceOf(address tokenHolder) external view returns (uint);\r\n    function transfer(address reciever, uint tokenAmount) external;\r\n    function approve(address thirdParty, uint tokenAmount) external;\r\n    function transferFrom(address sender, address reciever, uint tokenAmount) external;\r\n    function allowanceLimit(address tokenHolder, address thirdParty) external view returns (uint allowance);\r\n    event Transfer(address indexed sender, address indexed reciever, uint tokenAmount);\r\n    event Approval(address indexed tokenHolder, address indexed thirdParty, uint tokenAmount);\r\n}\r\n\r\ncontract CreateERC20 is IERC20 { \r\n    \r\n    mapping(address=>uint) public tokenBalance;\r\n    mapping (address=>mapping(address=>uint)) allowance; \r\n    \r\n    string public tokenName;\r\n    string public tokenSymbol;\r\n    uint public decimal; \r\n    // decimal is used to present the token balance to the user in easy to understand format\r\n\r\n    uint public mintedTokens; \r\n    address public creator; \r\n\r\n  \r\n\r\n    constructor() {\r\n        creator=msg.sender;\r\n        tokenName=\"BITS PILANI\";\r\n        tokenSymbol=\"BITS\";\r\n        decimal=0;\r\n        mintedTokens=50000;\r\n        tokenBalance[creator]=mintedTokens;\r\n    }\r\n\r\n    function totalSupply() external view override returns(uint) {\r\n        return mintedTokens;\r\n    } \r\n    function balanceOf(address tokenHolder) external view override returns (uint) {\r\n        return tokenBalance[tokenHolder];\r\n    }\r\n    function transfer(address reciever, uint tokenAmount) external override {\r\n        require(tokenBalance[msg.sender]>=tokenAmount,\"Insufficient tokens\");\r\n        require(tokenAmount>0,\"Kindly transfer tokens more than zero\");\r\n        tokenBalance[msg.sender]-=tokenAmount;\r\n        tokenBalance[reciever]+=tokenAmount;\r\n        emit Transfer(msg.sender, reciever, tokenAmount);\r\n    }\r\n    function approve(address thirdParty, uint tokenAmount) external override {\r\n        require(tokenBalance[msg.sender]>=tokenAmount,\"Insufficient balance\");\r\n        require(tokenAmount>0,\"Kindly get approval for tokens more than zero\");\r\n        allowance[msg.sender][thirdParty]+=tokenAmount;\r\n        emit Approval(msg.sender, thirdParty, tokenAmount);\r\n    }\r\n    function transferFrom(address sender, address reciever, uint tokenAmount) external override {\r\n        require(tokenAmount>0,\"Kindly transfer tokens more than zero\");\r\n        require(tokenBalance[sender]>=tokenAmount,\"Insufficient balance\");\r\n        require(allowance[sender][msg.sender]>=tokenAmount,\"Insufficient allowance\");\r\n        tokenBalance[sender]-=tokenAmount;\r\n        tokenBalance[reciever]+=tokenAmount;\r\n        allowance[sender][msg.sender]-=tokenAmount;\r\n        emit Transfer(sender, reciever, tokenAmount);\r\n    }\r\n    function allowanceLimit(address _tokenHolder, address _thirdParty) external view override returns (uint) {\r\n        return(allowance[_tokenHolder][_thirdParty]);\r\n    }  \r\n}   \r\n\r\n\r\n",
  "sourcePath": "D:\\2) Web3\\3) My projects\\1) Ethereum Smart contracts\\7) Create a simple ERC-20 token\\contracts\\CreateERC20.sol",
  "compiler": {
    "name": "solc",
    "version": "0.8.18+commit.87f61d96.Emscripten.clang"
  },
  "schemaVersion": "3.4.11",
  "updatedAt": "2023-03-10T04:09:23.053Z",
  "networkType": "ethereum",
  "devdoc": {
    "kind": "dev",
    "methods": {},
    "version": 1
  },
  "userdoc": {
    "kind": "user",
    "methods": {},
    "version": 1
  }
}