{
  "contractName": "Marketplace",
  "abi": [
    {
      "anonymous": false,
      "inputs": [
        {
          "indexed": false,
          "internalType": "uint256",
          "name": "id",
          "type": "uint256"
        },
        {
          "indexed": false,
          "internalType": "string",
          "name": "name",
          "type": "string"
        },
        {
          "indexed": false,
          "internalType": "uint256",
          "name": "price",
          "type": "uint256"
        },
        {
          "indexed": false,
          "internalType": "address",
          "name": "seller",
          "type": "address"
        }
      ],
      "name": "ItemAdded",
      "type": "event"
    },
    {
      "anonymous": false,
      "inputs": [
        {
          "indexed": false,
          "internalType": "uint256",
          "name": "id",
          "type": "uint256"
        },
        {
          "indexed": false,
          "internalType": "address",
          "name": "buyer",
          "type": "address"
        },
        {
          "indexed": false,
          "internalType": "uint256",
          "name": "price",
          "type": "uint256"
        }
      ],
      "name": "ItemSold",
      "type": "event"
    },
    {
      "inputs": [],
      "name": "itemCount",
      "outputs": [
        {
          "internalType": "uint256",
          "name": "",
          "type": "uint256"
        }
      ],
      "stateMutability": "view",
      "type": "function",
      "constant": true
    },
    {
      "inputs": [
        {
          "internalType": "uint256",
          "name": "",
          "type": "uint256"
        }
      ],
      "name": "items",
      "outputs": [
        {
          "internalType": "uint256",
          "name": "id",
          "type": "uint256"
        },
        {
          "internalType": "string",
          "name": "name",
          "type": "string"
        },
        {
          "internalType": "uint256",
          "name": "price",
          "type": "uint256"
        },
        {
          "internalType": "address payable",
          "name": "seller",
          "type": "address"
        },
        {
          "internalType": "address payable",
          "name": "buyer",
          "type": "address"
        },
        {
          "internalType": "bool",
          "name": "sold",
          "type": "bool"
        }
      ],
      "stateMutability": "view",
      "type": "function",
      "constant": true
    },
    {
      "inputs": [
        {
          "internalType": "string",
          "name": "_name",
          "type": "string"
        },
        {
          "internalType": "uint256",
          "name": "_price",
          "type": "uint256"
        }
      ],
      "name": "addItem",
      "outputs": [],
      "stateMutability": "nonpayable",
      "type": "function"
    },
    {
      "inputs": [
        {
          "internalType": "uint256",
          "name": "_id",
          "type": "uint256"
        }
      ],
      "name": "buyItem",
      "outputs": [],
      "stateMutability": "payable",
      "type": "function",
      "payable": true
    }
  ],
  "bytecode": "0x608060405234801561001057600080fd5b50610fc3806100206000396000f3fe60806040526004361061003f5760003560e01c806362d6bbdf146100445780636bfb0d011461006d578063bfb231d214610098578063e7fb74c7146100da575b600080fd5b34801561005057600080fd5b5061006b600480360381019061006691906107ee565b6100f6565b005b34801561007957600080fd5b5061008261029f565b60405161008f9190610859565b60405180910390f35b3480156100a457600080fd5b506100bf60048036038101906100ba9190610874565b6102a5565b6040516100d19695949392919061097c565b60405180910390f35b6100f460048036038101906100ef9190610874565b6103b6565b005b6001600081548092919061010990610a13565b91905055506040518060c0016040528060015481526020018381526020018281526020013373ffffffffffffffffffffffffffffffffffffffff168152602001600073ffffffffffffffffffffffffffffffffffffffff1681526020016000151581525060008060015481526020019081526020016000206000820151816000015560208201518160010190816101a09190610c67565b506040820151816002015560608201518160030160006101000a81548173ffffffffffffffffffffffffffffffffffffffff021916908373ffffffffffffffffffffffffffffffffffffffff16021790555060808201518160040160006101000a81548173ffffffffffffffffffffffffffffffffffffffff021916908373ffffffffffffffffffffffffffffffffffffffff16021790555060a08201518160040160146101000a81548160ff0219169083151502179055509050507f4cb34837c7f53a61f23e94bec431249774053a2ab0b596d1382fb3dde16f65cd6001548383336040516102939493929190610d5a565b60405180910390a15050565b60015481565b60006020528060005260406000206000915090508060000154908060010180546102ce90610a8a565b80601f01602080910402602001604051908101604052809291908181526020018280546102fa90610a8a565b80156103475780601f1061031c57610100808354040283529160200191610347565b820191906000526020600020905b81548152906001019060200180831161032a57829003601f168201915b5050505050908060020154908060030160009054906101000a900473ffffffffffffffffffffffffffffffffffffffff16908060040160009054906101000a900473ffffffffffffffffffffffffffffffffffffffff16908060040160149054906101000a900460ff16905086565b60008060008381526020019081526020016000209050600081600001541180156103e65750600154816000015411155b610425576040517f08c379a000000000000000000000000000000000000000000000000000000000815260040161041c90610df2565b60405180910390fd5b8060040160149054906101000a900460ff1615610477576040517f08c379a000000000000000000000000000000000000000000000000000000000815260040161046e90610e5e565b60405180910390fd5b80600201543410156104be576040517f08c379a00000000000000000000000000000000000000000000000000000000081526004016104b590610eca565b60405180910390fd5b8060030160009054906101000a900473ffffffffffffffffffffffffffffffffffffffff1673ffffffffffffffffffffffffffffffffffffffff163373ffffffffffffffffffffffffffffffffffffffff1603610550576040517f08c379a000000000000000000000000000000000000000000000000000000000815260040161054790610f36565b60405180910390fd5b60018160040160146101000a81548160ff0219169083151502179055508060030160009054906101000a900473ffffffffffffffffffffffffffffffffffffffff1673ffffffffffffffffffffffffffffffffffffffff166108fc349081150290604051600060405180830381858888f193505050501580156105d7573d6000803e3d6000fd5b50338160040160006101000a81548173ffffffffffffffffffffffffffffffffffffffff021916908373ffffffffffffffffffffffffffffffffffffffff1602179055507fa574c741071bb18f51fa88c17aeefec514bebf670ca22a3736fba6504ecbb7638160000154333460405161065293929190610f56565b60405180910390a15050565b6000604051905090565b600080fd5b600080fd5b600080fd5b600080fd5b6000601f19601f8301169050919050565b7f4e487b7100000000000000000000000000000000000000000000000000000000600052604160045260246000fd5b6106c58261067c565b810181811067ffffffffffffffff821117156106e4576106e361068d565b5b80604052505050565b60006106f761065e565b905061070382826106bc565b919050565b600067ffffffffffffffff8211156107235761072261068d565b5b61072c8261067c565b9050602081019050919050565b82818337600083830152505050565b600061075b61075684610708565b6106ed565b90508281526020810184848401111561077757610776610677565b5b610782848285610739565b509392505050565b600082601f83011261079f5761079e610672565b5b81356107af848260208601610748565b91505092915050565b6000819050919050565b6107cb816107b8565b81146107d657600080fd5b50565b6000813590506107e8816107c2565b92915050565b6000806040838503121561080557610804610668565b5b600083013567ffffffffffffffff8111156108235761082261066d565b5b61082f8582860161078a565b9250506020610840858286016107d9565b9150509250929050565b610853816107b8565b82525050565b600060208201905061086e600083018461084a565b92915050565b60006020828403121561088a57610889610668565b5b6000610898848285016107d9565b91505092915050565b600081519050919050565b600082825260208201905092915050565b60005b838110156108db5780820151818401526020810190506108c0565b60008484015250505050565b60006108f2826108a1565b6108fc81856108ac565b935061090c8185602086016108bd565b6109158161067c565b840191505092915050565b600073ffffffffffffffffffffffffffffffffffffffff82169050919050565b600061094b82610920565b9050919050565b61095b81610940565b82525050565b60008115159050919050565b61097681610961565b82525050565b600060c082019050610991600083018961084a565b81810360208301526109a381886108e7565b90506109b2604083018761084a565b6109bf6060830186610952565b6109cc6080830185610952565b6109d960a083018461096d565b979650505050505050565b7f4e487b7100000000000000000000000000000000000000000000000000000000600052601160045260246000fd5b6000610a1e826107b8565b91507fffffffffffffffffffffffffffffffffffffffffffffffffffffffffffffffff8203610a5057610a4f6109e4565b5b600182019050919050565b7f4e487b7100000000000000000000000000000000000000000000000000000000600052602260045260246000fd5b60006002820490506001821680610aa257607f821691505b602082108103610ab557610ab4610a5b565b5b50919050565b60008190508160005260206000209050919050565b60006020601f8301049050919050565b600082821b905092915050565b600060088302610b1d7fffffffffffffffffffffffffffffffffffffffffffffffffffffffffffffffff82610ae0565b610b278683610ae0565b95508019841693508086168417925050509392505050565b6000819050919050565b6000610b64610b5f610b5a846107b8565b610b3f565b6107b8565b9050919050565b6000819050919050565b610b7e83610b49565b610b92610b8a82610b6b565b848454610aed565b825550505050565b600090565b610ba7610b9a565b610bb2818484610b75565b505050565b5b81811015610bd657610bcb600082610b9f565b600181019050610bb8565b5050565b601f821115610c1b57610bec81610abb565b610bf584610ad0565b81016020851015610c04578190505b610c18610c1085610ad0565b830182610bb7565b50505b505050565b600082821c905092915050565b6000610c3e60001984600802610c20565b1980831691505092915050565b6000610c578383610c2d565b9150826002028217905092915050565b610c70826108a1565b67ffffffffffffffff811115610c8957610c8861068d565b5b610c938254610a8a565b610c9e828285610bda565b600060209050601f831160018114610cd15760008415610cbf578287015190505b610cc98582610c4b565b865550610d31565b601f198416610cdf86610abb565b60005b82811015610d0757848901518255600182019150602085019450602081019050610ce2565b86831015610d245784890151610d20601f891682610c2d565b8355505b6001600288020188555050505b505050505050565b6000610d4482610920565b9050919050565b610d5481610d39565b82525050565b6000608082019050610d6f600083018761084a565b8181036020830152610d8181866108e7565b9050610d90604083018561084a565b610d9d6060830184610d4b565b95945050505050565b7f4974656d20646f6573206e6f7420657869737400000000000000000000000000600082015250565b6000610ddc6013836108ac565b9150610de782610da6565b602082019050919050565b60006020820190508181036000830152610e0b81610dcf565b9050919050565b7f4974656d20616c726561647920736f6c64000000000000000000000000000000600082015250565b6000610e486011836108ac565b9150610e5382610e12565b602082019050919050565b60006020820190508181036000830152610e7781610e3b565b9050919050565b7f4e6f7420656e6f7567682045746865722070726f766964656400000000000000600082015250565b6000610eb46019836108ac565b9150610ebf82610e7e565b602082019050919050565b60006020820190508181036000830152610ee381610ea7565b9050919050565b7f43616e6e6f742062757920796f7572206f776e206974656d0000000000000000600082015250565b6000610f206018836108ac565b9150610f2b82610eea565b602082019050919050565b60006020820190508181036000830152610f4f81610f13565b9050919050565b6000606082019050610f6b600083018661084a565b610f786020830185610d4b565b610f85604083018461084a565b94935050505056fea2646970667358221220659c27c3f759fa6cce6d22443d78fc6b227324e3d3fc2ce7b78deec9bdeff8ab64736f6c63430008120033",
  "immutableReferences": {},
  "source": "//SPDX-License-Identifier:GPL-3.0\r\n\r\npragma solidity ^0.8.0;\r\n\r\ncontract Marketplace {\r\n    \r\n    struct Item {\r\n        uint id;\r\n        string name;\r\n        uint price;\r\n        address payable seller;\r\n        address payable buyer;\r\n        bool sold;\r\n    }\r\n    \r\n    mapping(uint => Item) public items;\r\n    uint public itemCount;\r\n    \r\n    event ItemAdded(uint id, string name, uint price, address seller);\r\n    event ItemSold(uint id, address buyer, uint price);\r\n    \r\n    function addItem(string memory _name, uint _price) public {\r\n        itemCount++;\r\n        items[itemCount] = Item(itemCount, _name, _price, payable(msg.sender),payable(0), false);\r\n        emit ItemAdded(itemCount, _name, _price, msg.sender);\r\n    }\r\n    \r\n    function buyItem(uint _id) public payable {\r\n        Item storage item = items[_id];\r\n        \r\n        require(item.id > 0 && item.id <= itemCount, \"Item does not exist\");\r\n        require(!item.sold, \"Item already sold\");\r\n        require(msg.value >= item.price, \"Not enough Ether provided\");\r\n        require(msg.sender != item.seller, \"Cannot buy your own item\");\r\n        \r\n        item.sold = true;\r\n        item.seller.transfer(msg.value);\r\n        item.buyer=payable(msg.sender);\r\n        \r\n        emit ItemSold(item.id, msg.sender, msg.value);\r\n    }\r\n}\r\n",
  "sourcePath": "D:\\2) Web3\\3) My projects\\1) Ethereum Smart contracts\\11) Decentralised marketplace\\contracts\\Marketplace.sol",
  "compiler": {
    "name": "solc",
    "version": "0.8.18+commit.87f61d96.Emscripten.clang"
  },
  "schemaVersion": "3.4.11",
  "updatedAt": "2023-03-13T07:29:23.910Z",
  "networkType": "ethereum",
  "devdoc": {
    "kind": "dev",
    "methods": {},
    "version": 1
  },
  "userdoc": {
    "kind": "user",
    "methods": {},
    "version": 1
  }
}