{
  "contractName": "Balance",
  "abi": [
    {
      "inputs": [],
      "stateMutability": "nonpayable",
      "type": "constructor"
    },
    {
      "inputs": [],
      "name": "owner",
      "outputs": [
        {
          "internalType": "address",
          "name": "",
          "type": "address"
        }
      ],
      "stateMutability": "view",
      "type": "function",
      "constant": true
    },
    {
      "inputs": [
        {
          "internalType": "address",
          "name": "_address",
          "type": "address"
        }
      ],
      "name": "balanceOf",
      "outputs": [
        {
          "internalType": "uint256",
          "name": "",
          "type": "uint256"
        }
      ],
      "stateMutability": "view",
      "type": "function",
      "constant": true
    }
  ],
  "bytecode": "0x608060405234801561001057600080fd5b50336000806101000a81548173ffffffffffffffffffffffffffffffffffffffff021916908373ffffffffffffffffffffffffffffffffffffffff160217905550610324806100606000396000f3fe608060405234801561001057600080fd5b50600436106100365760003560e01c806370a082311461003b5780638da5cb5b1461006b575b600080fd5b610055600480360381019061005091906101c0565b610089565b6040516100629190610206565b60405180910390f35b610073610139565b6040516100809190610230565b60405180910390f35b60008060009054906101000a900473ffffffffffffffffffffffffffffffffffffffff1673ffffffffffffffffffffffffffffffffffffffff163373ffffffffffffffffffffffffffffffffffffffff161461011a576040517f08c379a0000000000000000000000000000000000000000000000000000000008152600401610111906102ce565b60405180910390fd5b8173ffffffffffffffffffffffffffffffffffffffff16319050919050565b60008054906101000a900473ffffffffffffffffffffffffffffffffffffffff1681565b600080fd5b600073ffffffffffffffffffffffffffffffffffffffff82169050919050565b600061018d82610162565b9050919050565b61019d81610182565b81146101a857600080fd5b50565b6000813590506101ba81610194565b92915050565b6000602082840312156101d6576101d561015d565b5b60006101e4848285016101ab565b91505092915050565b6000819050919050565b610200816101ed565b82525050565b600060208201905061021b60008301846101f7565b92915050565b61022a81610182565b82525050565b60006020820190506102456000830184610221565b92915050565b600082825260208201905092915050565b7f4f6e6c79206f776e65722063616e2063616c6c20746869732066756e6374696f60008201527f6e00000000000000000000000000000000000000000000000000000000000000602082015250565b60006102b860218361024b565b91506102c38261025c565b604082019050919050565b600060208201905081810360008301526102e7816102ab565b905091905056fea264697066735822122069e5d1b45e5532729aeac4c0b8d8f129f112475ff65b6ac38ff6f0a3123c0cd164736f6c63430008120033",
  "immutableReferences": {},
  "source": "//SPDX-License-Identifier:GPL-3.0\r\n\r\npragma solidity >=0.8.0;\r\n\r\n// This smmart contract returns the balance of an EOA (Externally Owned Account) address or contract address.\r\n// Only the owner of the smart contract can call the balanceOf function.\r\n\r\ncontract Balance {\r\n    address public owner;\r\n    \r\n    constructor () {\r\n        owner=msg.sender;\r\n    }\r\n\r\n    modifier onlyOwner() {\r\n        require(msg.sender==owner,\"Only owner can call this function\");\r\n        _;\r\n    }\r\n    function balanceOf(address _address) view public onlyOwner returns(uint) {\r\n        return(_address.balance);\r\n    }\r\n}",
  "sourcePath": "D:\\2) Web3\\3) My projects\\1) Ethereum Smart contracts\\1) Balance of a given address\\contracts\\Balance.sol",
  "compiler": {
    "name": "solc",
    "version": "0.8.18+commit.87f61d96.Emscripten.clang"
  },
  "schemaVersion": "3.4.11",
  "updatedAt": "2023-03-05T14:01:24.828Z",
  "networkType": "ethereum",
  "devdoc": {
    "kind": "dev",
    "methods": {},
    "version": 1
  },
  "userdoc": {
    "kind": "user",
    "methods": {},
    "version": 1
  }
}